{
  "abi": [
    {
      "inputs": [],
      "stateMutability": "nonpayable",
      "type": "constructor"
    },
    {
      "anonymous": false,
      "inputs": [
        {
          "indexed": true,
          "internalType": "address",
          "name": "owner",
          "type": "address"
        },
        {
          "indexed": true,
          "internalType": "address",
          "name": "approved",
          "type": "address"
        },
        {
          "indexed": true,
          "internalType": "uint256",
          "name": "tokenId",
          "type": "uint256"
        }
      ],
      "name": "Approval",
      "type": "event"
    },
    {
      "anonymous": false,
      "inputs": [
        {
          "indexed": true,
          "internalType": "address",
          "name": "owner",
          "type": "address"
        },
        {
          "indexed": true,
          "internalType": "address",
          "name": "operator",
          "type": "address"
        },
        {
          "indexed": false,
          "internalType": "bool",
          "name": "approved",
          "type": "bool"
        }
      ],
      "name": "ApprovalForAll",
      "type": "event"
    },
    {
      "anonymous": false,
      "inputs": [
        {
          "indexed": false,
          "internalType": "uint256",
          "name": "index",
          "type": "uint256"
        },
        {
          "indexed": true,
          "internalType": "address",
          "name": "mintedBy",
          "type": "address"
        }
      ],
      "name": "Mint",
      "type": "event"
    },
    {
      "anonymous": false,
      "inputs": [
        {
          "indexed": true,
          "internalType": "address",
          "name": "from",
          "type": "address"
        },
        {
          "indexed": true,
          "internalType": "address",
          "name": "to",
          "type": "address"
        },
        {
          "indexed": true,
          "internalType": "uint256",
          "name": "tokenId",
          "type": "uint256"
        }
      ],
      "name": "Transfer",
      "type": "event"
    },
    {
      "inputs": [
        {
          "internalType": "address",
          "name": "to",
          "type": "address"
        },
        {
          "internalType": "uint256",
          "name": "tokenId",
          "type": "uint256"
        }
      ],
      "name": "approve",
      "outputs": [],
      "stateMutability": "nonpayable",
      "type": "function"
    },
    {
      "inputs": [
        {
          "internalType": "address",
          "name": "owner",
          "type": "address"
        }
      ],
      "name": "balanceOf",
      "outputs": [
        {
          "internalType": "uint256",
          "name": "",
          "type": "uint256"
        }
      ],
      "stateMutability": "view",
      "type": "function"
    },
    {
      "inputs": [
        {
          "internalType": "uint256",
          "name": "tokenId",
          "type": "uint256"
        }
      ],
      "name": "getApproved",
      "outputs": [
        {
          "internalType": "address",
          "name": "",
          "type": "address"
        }
      ],
      "stateMutability": "view",
      "type": "function"
    },
    {
      "inputs": [
        {
          "internalType": "address",
          "name": "owner",
          "type": "address"
        },
        {
          "internalType": "address",
          "name": "operator",
          "type": "address"
        }
      ],
      "name": "isApprovedForAll",
      "outputs": [
        {
          "internalType": "bool",
          "name": "",
          "type": "bool"
        }
      ],
      "stateMutability": "view",
      "type": "function"
    },
    {
      "inputs": [
        {
          "internalType": "string",
          "name": "_nftName",
          "type": "string"
        },
        {
          "internalType": "string",
          "name": "_nftURI",
          "type": "string"
        }
      ],
      "name": "mintNFT",
      "outputs": [
        {
          "internalType": "uint256",
          "name": "",
          "type": "uint256"
        }
      ],
      "stateMutability": "nonpayable",
      "type": "function"
    },
    {
      "inputs": [],
      "name": "name",
      "outputs": [
        {
          "internalType": "string",
          "name": "",
          "type": "string"
        }
      ],
      "stateMutability": "view",
      "type": "function"
    },
    {
      "inputs": [
        {
          "internalType": "uint256",
          "name": "tokenId",
          "type": "uint256"
        }
      ],
      "name": "ownerOf",
      "outputs": [
        {
          "internalType": "address",
          "name": "",
          "type": "address"
        }
      ],
      "stateMutability": "view",
      "type": "function"
    },
    {
      "inputs": [
        {
          "internalType": "address",
          "name": "from",
          "type": "address"
        },
        {
          "internalType": "address",
          "name": "to",
          "type": "address"
        },
        {
          "internalType": "uint256",
          "name": "tokenId",
          "type": "uint256"
        }
      ],
      "name": "safeTransferFrom",
      "outputs": [],
      "stateMutability": "nonpayable",
      "type": "function"
    },
    {
      "inputs": [
        {
          "internalType": "address",
          "name": "from",
          "type": "address"
        },
        {
          "internalType": "address",
          "name": "to",
          "type": "address"
        },
        {
          "internalType": "uint256",
          "name": "tokenId",
          "type": "uint256"
        },
        {
          "internalType": "bytes",
          "name": "data",
          "type": "bytes"
        }
      ],
      "name": "safeTransferFrom",
      "outputs": [],
      "stateMutability": "nonpayable",
      "type": "function"
    },
    {
      "inputs": [
        {
          "internalType": "address",
          "name": "operator",
          "type": "address"
        },
        {
          "internalType": "bool",
          "name": "approved",
          "type": "bool"
        }
      ],
      "name": "setApprovalForAll",
      "outputs": [],
      "stateMutability": "nonpayable",
      "type": "function"
    },
    {
      "inputs": [
        {
          "internalType": "bytes4",
          "name": "interfaceId",
          "type": "bytes4"
        }
      ],
      "name": "supportsInterface",
      "outputs": [
        {
          "internalType": "bool",
          "name": "",
          "type": "bool"
        }
      ],
      "stateMutability": "view",
      "type": "function"
    },
    {
      "inputs": [],
      "name": "symbol",
      "outputs": [
        {
          "internalType": "string",
          "name": "",
          "type": "string"
        }
      ],
      "stateMutability": "view",
      "type": "function"
    },
    {
      "inputs": [
        {
          "internalType": "uint256",
          "name": "tokenId",
          "type": "uint256"
        }
      ],
      "name": "tokenURI",
      "outputs": [
        {
          "internalType": "string",
          "name": "",
          "type": "string"
        }
      ],
      "stateMutability": "view",
      "type": "function"
    },
    {
      "inputs": [
        {
          "internalType": "address",
          "name": "from",
          "type": "address"
        },
        {
          "internalType": "address",
          "name": "to",
          "type": "address"
        },
        {
          "internalType": "uint256",
          "name": "tokenId",
          "type": "uint256"
        }
      ],
      "name": "transferFrom",
      "outputs": [],
      "stateMutability": "nonpayable",
      "type": "function"
    },
    {
      "inputs": [
        {
          "internalType": "address",
          "name": "from",
          "type": "address"
        },
        {
          "internalType": "address",
          "name": "to",
          "type": "address"
        },
        {
          "internalType": "uint256",
          "name": "tokenId",
          "type": "uint256"
        }
      ],
      "name": "transferNFTFrom",
      "outputs": [
        {
          "internalType": "bool",
          "name": "",
          "type": "bool"
        }
      ],
      "stateMutability": "nonpayable",
      "type": "function"
    }
  ],
  "bytecode": {
    "object": "0x60806040523480156200001157600080fd5b506040518060400160405280600e81526020016d27232a1021b7b63632b1ba34b7b760911b815250604051806040016040528060048152602001634e46544360e01b815250816000908162000067919062000124565b50600162000076828262000124565b505050620001f0565b634e487b7160e01b600052604160045260246000fd5b600181811c90821680620000aa57607f821691505b602082108103620000cb57634e487b7160e01b600052602260045260246000fd5b50919050565b601f8211156200011f57600081815260208120601f850160051c81016020861015620000fa5750805b601f850160051c820191505b818110156200011b5782815560010162000106565b5050505b505050565b81516001600160401b038111156200014057620001406200007f565b620001588162000151845462000095565b84620000d1565b602080601f831160018114620001905760008415620001775750858301515b600019600386901b1c1916600185901b1785556200011b565b600085815260208120601f198616915b82811015620001c157888601518255948401946001909101908401620001a0565b5085821015620001e05787850151600019600388901b60f8161c191681555b5050505050600190811b01905550565b61168380620002006000396000f3fe608060405234801561001057600080fd5b50600436106100f55760003560e01c806370a0823111610097578063c87b56dd11610066578063c87b56dd146101ff578063cde08c4014610212578063e960554414610225578063e985e9c51461023857600080fd5b806370a08231146101b057806395d89b41146101d1578063a22cb465146101d9578063b88d4fde146101ec57600080fd5b8063095ea7b3116100d3578063095ea7b31461016257806323b872dd1461017757806342842e0e1461018a5780636352211e1461019d57600080fd5b806301ffc9a7146100fa57806306fdde0314610122578063081812fc14610137575b600080fd5b61010d61010836600461102b565b610274565b60405190151581526020015b60405180910390f35b61012a6102c6565b6040516101199190611098565b61014a6101453660046110ab565b610358565b6040516001600160a01b039091168152602001610119565b6101756101703660046110e0565b61037f565b005b61017561018536600461110a565b610499565b61017561019836600461110a565b6104ca565b61014a6101ab3660046110ab565b6104e5565b6101c36101be366004611146565b610545565b604051908152602001610119565b61012a6105cb565b6101756101e7366004611161565b6105da565b6101756101fa366004611229565b6105e9565b61012a61020d3660046110ab565b610621565b61010d61022036600461110a565b610695565b6101c36102333660046112c5565b6106ac565b61010d610246366004611329565b6001600160a01b03918216600090815260056020908152604080832093909416825291909152205460ff1690565b60006001600160e01b031982166380ac58cd60e01b14806102a557506001600160e01b03198216635b5e139f60e01b145b806102c057506301ffc9a760e01b6001600160e01b03198316145b92915050565b6060600080546102d59061135c565b80601f01602080910402602001604051908101604052809291908181526020018280546103019061135c565b801561034e5780601f106103235761010080835404028352916020019161034e565b820191906000526020600020905b81548152906001019060200180831161033157829003601f168201915b5050505050905090565b60006103638261077a565b506000908152600460205260409020546001600160a01b031690565b600061038a826104e5565b9050806001600160a01b0316836001600160a01b0316036103fc5760405162461bcd60e51b815260206004820152602160248201527f4552433732313a20617070726f76616c20746f2063757272656e74206f776e656044820152603960f91b60648201526084015b60405180910390fd5b336001600160a01b038216148061041857506104188133610246565b61048a5760405162461bcd60e51b815260206004820152603d60248201527f4552433732313a20617070726f76652063616c6c6572206973206e6f7420746f60448201527f6b656e206f776e6572206f7220617070726f76656420666f7220616c6c00000060648201526084016103f3565b61049483836107dc565b505050565b6104a3338261084a565b6104bf5760405162461bcd60e51b81526004016103f390611396565b6104948383836108c9565b610494838383604051806020016040528060008152506105e9565b6000818152600260205260408120546001600160a01b0316806102c05760405162461bcd60e51b8152602060048201526018602482015277115490cdcc8c4e881a5b9d985b1a59081d1bdad95b88125160421b60448201526064016103f3565b60006001600160a01b0382166105af5760405162461bcd60e51b815260206004820152602960248201527f4552433732313a2061646472657373207a65726f206973206e6f7420612076616044820152683634b21037bbb732b960b91b60648201526084016103f3565b506001600160a01b031660009081526003602052604090205490565b6060600180546102d59061135c565b6105e5338383610a3a565b5050565b6105f3338361084a565b61060f5760405162461bcd60e51b81526004016103f390611396565b61061b84848484610b08565b50505050565b606061062c8261077a565b600061064360408051602081019091526000815290565b90506000815111610663576040518060200160405280600081525061068e565b8061066d84610b3b565b60405160200161067e9291906113e3565b6040516020818303038152906040525b9392505050565b60006106a28484846104ca565b5060019392505050565b6040805180820190915282815260208101829052600680546001810182556000918252825191929160029091027ff652222313e28459528d920b65115c16c04f3efc82aaedc97be59f3f377c0d3f019081906107089082611460565b506020820151600182019061071d9082611460565b50506006546000915061073290600190611536565b905061073e3382610bce565b60405181815233907ff3cea5493d790af0133817606f7350a91d7f154ea52eaa79d179d4d231e501029060200160405180910390a29392505050565b6000818152600260205260409020546001600160a01b03166107d95760405162461bcd60e51b8152602060048201526018602482015277115490cdcc8c4e881a5b9d985b1a59081d1bdad95b88125160421b60448201526064016103f3565b50565b600081815260046020526040902080546001600160a01b0319166001600160a01b0384169081179091558190610811826104e5565b6001600160a01b03167f8c5be1e5ebec7d5bd14f71427d1e84f3dd0314c0f7b2291e5b200ac8c7c3b92560405160405180910390a45050565b600080610856836104e5565b9050806001600160a01b0316846001600160a01b0316148061089d57506001600160a01b0380821660009081526005602090815260408083209388168352929052205460ff165b806108c15750836001600160a01b03166108b684610358565b6001600160a01b0316145b949350505050565b826001600160a01b03166108dc826104e5565b6001600160a01b0316146109025760405162461bcd60e51b81526004016103f390611549565b6001600160a01b0382166109645760405162461bcd60e51b8152602060048201526024808201527f4552433732313a207472616e7366657220746f20746865207a65726f206164646044820152637265737360e01b60648201526084016103f3565b6109718383836001610be8565b826001600160a01b0316610984826104e5565b6001600160a01b0316146109aa5760405162461bcd60e51b81526004016103f390611549565b600081815260046020908152604080832080546001600160a01b03199081169091556001600160a01b0387811680865260038552838620805460001901905590871680865283862080546001019055868652600290945282852080549092168417909155905184937fddf252ad1be2c89b69c2b068fc378daa952ba7f163c4a11628f55a4df523b3ef91a4505050565b816001600160a01b0316836001600160a01b031603610a9b5760405162461bcd60e51b815260206004820152601960248201527f4552433732313a20617070726f766520746f2063616c6c65720000000000000060448201526064016103f3565b6001600160a01b03838116600081815260056020908152604080832094871680845294825291829020805460ff191686151590811790915591519182527f17307eab39ab6107e8899845ad3d59bd9653f200f220920489ca2b5937696c31910160405180910390a3505050565b610b138484846108c9565b610b1f84848484610c70565b61061b5760405162461bcd60e51b81526004016103f39061158e565b60606000610b4883610d71565b600101905060008167ffffffffffffffff811115610b6857610b6861119d565b6040519080825280601f01601f191660200182016040528015610b92576020820181803683370190505b5090508181016020015b600019016f181899199a1a9b1b9c1cb0b131b232b360811b600a86061a8153600a8504945084610b9c57509392505050565b6105e5828260405180602001604052806000815250610e49565b600181111561061b576001600160a01b03841615610c2e576001600160a01b03841660009081526003602052604081208054839290610c28908490611536565b90915550505b6001600160a01b0383161561061b576001600160a01b03831660009081526003602052604081208054839290610c659084906115e0565b909155505050505050565b60006001600160a01b0384163b15610d6657604051630a85bd0160e11b81526001600160a01b0385169063150b7a0290610cb49033908990889088906004016115f3565b6020604051808303816000875af1925050508015610cef575060408051601f3d908101601f19168201909252610cec91810190611630565b60015b610d4c573d808015610d1d576040519150601f19603f3d011682016040523d82523d6000602084013e610d22565b606091505b508051600003610d445760405162461bcd60e51b81526004016103f39061158e565b805181602001fd5b6001600160e01b031916630a85bd0160e11b1490506108c1565b506001949350505050565b60008072184f03e93ff9f4daa797ed6e38ed64bf6a1f0160401b8310610db05772184f03e93ff9f4daa797ed6e38ed64bf6a1f0160401b830492506040015b6d04ee2d6d415b85acef81000000008310610ddc576d04ee2d6d415b85acef8100000000830492506020015b662386f26fc100008310610dfa57662386f26fc10000830492506010015b6305f5e1008310610e12576305f5e100830492506008015b6127108310610e2657612710830492506004015b60648310610e38576064830492506002015b600a83106102c05760010192915050565b610e538383610e7c565b610e606000848484610c70565b6104945760405162461bcd60e51b81526004016103f39061158e565b6001600160a01b038216610ed25760405162461bcd60e51b815260206004820181905260248201527f4552433732313a206d696e7420746f20746865207a65726f206164647265737360448201526064016103f3565b6000818152600260205260409020546001600160a01b031615610f375760405162461bcd60e51b815260206004820152601c60248201527f4552433732313a20746f6b656e20616c7265616479206d696e7465640000000060448201526064016103f3565b610f45600083836001610be8565b6000818152600260205260409020546001600160a01b031615610faa5760405162461bcd60e51b815260206004820152601c60248201527f4552433732313a20746f6b656e20616c7265616479206d696e7465640000000060448201526064016103f3565b6001600160a01b038216600081815260036020908152604080832080546001019055848352600290915280822080546001600160a01b0319168417905551839291907fddf252ad1be2c89b69c2b068fc378daa952ba7f163c4a11628f55a4df523b3ef908290a45050565b6001600160e01b0319811681146107d957600080fd5b60006020828403121561103d57600080fd5b813561068e81611015565b60005b8381101561106357818101518382015260200161104b565b50506000910152565b60008151808452611084816020860160208601611048565b601f01601f19169290920160200192915050565b60208152600061068e602083018461106c565b6000602082840312156110bd57600080fd5b5035919050565b80356001600160a01b03811681146110db57600080fd5b919050565b600080604083850312156110f357600080fd5b6110fc836110c4565b946020939093013593505050565b60008060006060848603121561111f57600080fd5b611128846110c4565b9250611136602085016110c4565b9150604084013590509250925092565b60006020828403121561115857600080fd5b61068e826110c4565b6000806040838503121561117457600080fd5b61117d836110c4565b91506020830135801515811461119257600080fd5b809150509250929050565b634e487b7160e01b600052604160045260246000fd5b600067ffffffffffffffff808411156111ce576111ce61119d565b604051601f8501601f19908116603f011681019082821181831017156111f6576111f661119d565b8160405280935085815286868601111561120f57600080fd5b858560208301376000602087830101525050509392505050565b6000806000806080858703121561123f57600080fd5b611248856110c4565b9350611256602086016110c4565b925060408501359150606085013567ffffffffffffffff81111561127957600080fd5b8501601f8101871361128a57600080fd5b611299878235602084016111b3565b91505092959194509250565b600082601f8301126112b657600080fd5b61068e838335602085016111b3565b600080604083850312156112d857600080fd5b823567ffffffffffffffff808211156112f057600080fd5b6112fc868387016112a5565b9350602085013591508082111561131257600080fd5b5061131f858286016112a5565b9150509250929050565b6000806040838503121561133c57600080fd5b611345836110c4565b9150611353602084016110c4565b90509250929050565b600181811c9082168061137057607f821691505b60208210810361139057634e487b7160e01b600052602260045260246000fd5b50919050565b6020808252602d908201527f4552433732313a2063616c6c6572206973206e6f7420746f6b656e206f776e6560408201526c1c881bdc88185c1c1c9bdd9959609a1b606082015260800190565b600083516113f5818460208801611048565b835190830190611409818360208801611048565b01949350505050565b601f82111561049457600081815260208120601f850160051c810160208610156114395750805b601f850160051c820191505b8181101561145857828155600101611445565b505050505050565b815167ffffffffffffffff81111561147a5761147a61119d565b61148e81611488845461135c565b84611412565b602080601f8311600181146114c357600084156114ab5750858301515b600019600386901b1c1916600185901b178555611458565b600085815260208120601f198616915b828110156114f2578886015182559484019460019091019084016114d3565b50858210156115105787850151600019600388901b60f8161c191681555b5050505050600190811b01905550565b634e487b7160e01b600052601160045260246000fd5b818103818111156102c0576102c0611520565b60208082526025908201527f4552433732313a207472616e736665722066726f6d20696e636f72726563742060408201526437bbb732b960d91b606082015260800190565b60208082526032908201527f4552433732313a207472616e7366657220746f206e6f6e20455243373231526560408201527131b2b4bb32b91034b6b83632b6b2b73a32b960711b606082015260800190565b808201808211156102c0576102c0611520565b6001600160a01b03858116825284166020820152604081018390526080606082018190526000906116269083018461106c565b9695505050505050565b60006020828403121561164257600080fd5b815161068e8161101556fea2646970667358221220695a0c6144c346149d6890876d648e57a953e19a44095375158e5d378e9acddd64736f6c63430008110033",
    "linkReferences": {}
  },
  "methodIdentifiers": {
    "approve(address,uint256)": "095ea7b3",
    "balanceOf(address)": "70a08231",
    "getApproved(uint256)": "081812fc",
    "isApprovedForAll(address,address)": "e985e9c5",
    "mintNFT(string,string)": "e9605544",
    "name()": "06fdde03",
    "ownerOf(uint256)": "6352211e",
    "safeTransferFrom(address,address,uint256)": "42842e0e",
    "safeTransferFrom(address,address,uint256,bytes)": "b88d4fde",
    "setApprovalForAll(address,bool)": "a22cb465",
    "supportsInterface(bytes4)": "01ffc9a7",
    "symbol()": "95d89b41",
    "tokenURI(uint256)": "c87b56dd",
    "transferFrom(address,address,uint256)": "23b872dd",
    "transferNFTFrom(address,address,uint256)": "cde08c40"
  },
  "id": 55
}