{
  "abi": [
    {
      "inputs": [
        {
          "internalType": "uint256",
          "name": "_minting_fee",
          "type": "uint256"
        },
        {
          "internalType": "uint256",
          "name": "_auctionFee",
          "type": "uint256"
        },
        {
          "internalType": "uint256",
          "name": "_auctionDuration",
          "type": "uint256"
        }
      ],
      "stateMutability": "nonpayable",
      "type": "constructor"
    },
    {
      "anonymous": false,
      "inputs": [
        {
          "indexed": true,
          "internalType": "address",
          "name": "previousOwner",
          "type": "address"
        },
        {
          "indexed": true,
          "internalType": "address",
          "name": "newOwner",
          "type": "address"
        }
      ],
      "name": "OwnershipTransferred",
      "type": "event"
    },
    {
      "inputs": [],
      "name": "auctionCounter",
      "outputs": [
        {
          "internalType": "uint256",
          "name": "",
          "type": "uint256"
        }
      ],
      "stateMutability": "view",
      "type": "function"
    },
    {
      "inputs": [],
      "name": "auctionDuration",
      "outputs": [
        {
          "internalType": "uint256",
          "name": "",
          "type": "uint256"
        }
      ],
      "stateMutability": "view",
      "type": "function"
    },
    {
      "inputs": [],
      "name": "auctionFee",
      "outputs": [
        {
          "internalType": "uint256",
          "name": "",
          "type": "uint256"
        }
      ],
      "stateMutability": "view",
      "type": "function"
    },
    {
      "inputs": [
        {
          "internalType": "uint256",
          "name": "",
          "type": "uint256"
        }
      ],
      "name": "auctions",
      "outputs": [
        {
          "internalType": "address",
          "name": "nftAddress",
          "type": "address"
        },
        {
          "internalType": "uint256",
          "name": "tokenId",
          "type": "uint256"
        },
        {
          "internalType": "uint256",
          "name": "minimumStake",
          "type": "uint256"
        },
        {
          "internalType": "uint256",
          "name": "startTime",
          "type": "uint256"
        },
        {
          "internalType": "uint256",
          "name": "endTime",
          "type": "uint256"
        },
        {
          "internalType": "address",
          "name": "listor",
          "type": "address"
        },
        {
          "internalType": "uint256",
          "name": "lastBid",
          "type": "uint256"
        },
        {
          "internalType": "address",
          "name": "lastBidder",
          "type": "address"
        }
      ],
      "stateMutability": "view",
      "type": "function"
    },
    {
      "inputs": [
        {
          "internalType": "uint256",
          "name": "uniqueId",
          "type": "uint256"
        }
      ],
      "name": "bid",
      "outputs": [],
      "stateMutability": "payable",
      "type": "function"
    },
    {
      "inputs": [
        {
          "internalType": "uint256",
          "name": "listingID",
          "type": "uint256"
        }
      ],
      "name": "buyNFT_Single",
      "outputs": [],
      "stateMutability": "payable",
      "type": "function"
    },
    {
      "inputs": [
        {
          "internalType": "uint256",
          "name": "listingId",
          "type": "uint256"
        }
      ],
      "name": "cancelListing",
      "outputs": [],
      "stateMutability": "nonpayable",
      "type": "function"
    },
    {
      "inputs": [
        {
          "internalType": "uint256",
          "name": "uniqueId",
          "type": "uint256"
        }
      ],
      "name": "claimMyFunds",
      "outputs": [],
      "stateMutability": "nonpayable",
      "type": "function"
    },
    {
      "inputs": [
        {
          "internalType": "address",
          "name": "nftAddress",
          "type": "address"
        },
        {
          "internalType": "uint256",
          "name": "tokenId",
          "type": "uint256"
        },
        {
          "internalType": "uint256",
          "name": "minimumStake",
          "type": "uint256"
        }
      ],
      "name": "createAuction",
      "outputs": [],
      "stateMutability": "payable",
      "type": "function"
    },
    {
      "inputs": [],
      "name": "getAllNFTs",
      "outputs": [
        {
          "components": [
            {
              "internalType": "address",
              "name": "NFTAddress",
              "type": "address"
            },
            {
              "internalType": "address",
              "name": "listor",
              "type": "address"
            },
            {
              "internalType": "uint256",
              "name": "tokenID",
              "type": "uint256"
            },
            {
              "internalType": "uint256",
              "name": "listingPrice",
              "type": "uint256"
            },
            {
              "internalType": "uint256",
              "name": "timestamp",
              "type": "uint256"
            }
          ],
          "internalType": "struct EcstasyMKT.listedNFT[]",
          "name": "",
          "type": "tuple[]"
        }
      ],
      "stateMutability": "view",
      "type": "function"
    },
    {
      "inputs": [
        {
          "internalType": "uint256",
          "name": "uniqueId",
          "type": "uint256"
        }
      ],
      "name": "getLastBid",
      "outputs": [
        {
          "internalType": "uint256",
          "name": "",
          "type": "uint256"
        }
      ],
      "stateMutability": "view",
      "type": "function"
    },
    {
      "inputs": [],
      "name": "getLatestPrice",
      "outputs": [
        {
          "internalType": "int256",
          "name": "",
          "type": "int256"
        }
      ],
      "stateMutability": "view",
      "type": "function"
    },
    {
      "inputs": [
        {
          "internalType": "uint256",
          "name": "uniqueId",
          "type": "uint256"
        }
      ],
      "name": "isOpen",
      "outputs": [
        {
          "internalType": "bool",
          "name": "",
          "type": "bool"
        }
      ],
      "stateMutability": "view",
      "type": "function"
    },
    {
      "inputs": [
        {
          "internalType": "address",
          "name": "_tokenAddress",
          "type": "address"
        },
        {
          "internalType": "uint256",
          "name": "tokenId",
          "type": "uint256"
        },
        {
          "internalType": "uint256",
          "name": "listingPrice_in_MATIC",
          "type": "uint256"
        }
      ],
      "name": "listMyNFTforSale",
      "outputs": [],
      "stateMutability": "payable",
      "type": "function"
    },
    {
      "inputs": [],
      "name": "listedNFTCount",
      "outputs": [
        {
          "internalType": "uint256",
          "name": "",
          "type": "uint256"
        }
      ],
      "stateMutability": "view",
      "type": "function"
    },
    {
      "inputs": [],
      "name": "mintEcstasy",
      "outputs": [],
      "stateMutability": "payable",
      "type": "function"
    },
    {
      "inputs": [],
      "name": "minting_fee",
      "outputs": [
        {
          "internalType": "uint256",
          "name": "",
          "type": "uint256"
        }
      ],
      "stateMutability": "view",
      "type": "function"
    },
    {
      "inputs": [],
      "name": "nativeNFT",
      "outputs": [
        {
          "internalType": "contract EcstasyNFT",
          "name": "",
          "type": "address"
        }
      ],
      "stateMutability": "view",
      "type": "function"
    },
    {
      "inputs": [],
      "name": "numberOfActiveAuctions",
      "outputs": [
        {
          "internalType": "uint256",
          "name": "",
          "type": "uint256"
        }
      ],
      "stateMutability": "view",
      "type": "function"
    },
    {
      "inputs": [],
      "name": "numberOfNftsSold",
      "outputs": [
        {
          "internalType": "uint256",
          "name": "",
          "type": "uint256"
        }
      ],
      "stateMutability": "view",
      "type": "function"
    },
    {
      "inputs": [],
      "name": "owner",
      "outputs": [
        {
          "internalType": "address",
          "name": "",
          "type": "address"
        }
      ],
      "stateMutability": "view",
      "type": "function"
    },
    {
      "inputs": [],
      "name": "renounceOwnership",
      "outputs": [],
      "stateMutability": "nonpayable",
      "type": "function"
    },
    {
      "inputs": [
        {
          "internalType": "address",
          "name": "newOwner",
          "type": "address"
        }
      ],
      "name": "transferOwnership",
      "outputs": [],
      "stateMutability": "nonpayable",
      "type": "function"
    },
    {
      "inputs": [
        {
          "internalType": "uint256",
          "name": "listedTokenID",
          "type": "uint256"
        },
        {
          "internalType": "uint256",
          "name": "listingPrice_in_MATIC",
          "type": "uint256"
        }
      ],
      "name": "updateListingPrice",
      "outputs": [],
      "stateMutability": "payable",
      "type": "function"
    },
    {
      "stateMutability": "payable",
      "type": "receive"
    }
  ],
  "bytecode": {
    "object": "0x60806040526000600255600060035560006009553480156200002057600080fd5b50604051620031533803806200315383398101604081905262000043916200025c565b81818115801562000052575080155b15620000925760405162461bcd60e51b815260206004820152600a60248201526916995c9bc8125b9c1d5d60b21b60448201526064015b60405180910390fd5b67016345785d8a0000821015620000ec5760405162461bcd60e51b815260206004820152601360248201527f496e76616c69642061756374696f6e2066656500000000000000000000000000604482015260640162000089565b600091909155600190815560055562000105336200019d565b600880546001600160a01b03191673ab594600376ec9fd91f8e885dadf0ce036862de017905560405130906200013b906200024e565b6001600160a01b039091168152602001604051809103906000f08015801562000168573d6000803e3d6000fd5b50600780546001600160a01b0319166001600160a01b03929092169190911790556200019483620001ef565b5050506200028b565b600680546001600160a01b038381166001600160a01b0319831681179093556040519116919082907f8be0079c531659141344cd1fd0a4f28419497f9722a3daafe3b4186f6b6457e090600090a35050565b67016345785d8a0000811015620002495760405162461bcd60e51b815260206004820152601360248201527f496e76616c6964204d696e74696e672046656500000000000000000000000000604482015260640162000089565b600c55565b6118e5806200186e83390190565b6000806000606084860312156200027257600080fd5b8351925060208401519150604084015190509250925092565b6115d3806200029b6000396000f3fe60806040526004361061014f5760003560e01c80638da5cb5b116100b6578063c46049431161006f578063c460494314610408578063d09b19851461041b578063df88ea1a1461042e578063e0391b091461044e578063e8603bd614610470578063f2fde38b1461047857600080fd5b80638da5cb5b146103625780638e15f473146103945780638f38ed10146103a9578063a7e76644146103c9578063abb94051146103df578063c3355b8d146103f257600080fd5b80634ad8a0a0116101085780634ad8a0a0146102155780634d6861a61461022a578063571a26a01461026d5780635a5f8d4114610324578063715018a6146103375780637dafaa081461034c57600080fd5b80630cbf54c81461015b57806314525b6b14610184578063305a67a81461019a57806330b6208a146101bc578063421d5400146101ec578063454a2ab31461020257600080fd5b3661015657005b600080fd5b34801561016757600080fd5b5061017160015481565b6040519081526020015b60405180910390f35b34801561019057600080fd5b5061017160005481565b3480156101a657600080fd5b506101ba6101b5366004611346565b610498565b005b3480156101c857600080fd5b506101716101d7366004611346565b60009081526004602052604090206006015490565b3480156101f857600080fd5b5061017160095481565b6101ba610210366004611346565b610556565b34801561022157600080fd5b50600954610171565b34801561023657600080fd5b5061025d610245366004611346565b60009081526004602081905260409091200154421090565b604051901515815260200161017b565b34801561027957600080fd5b506102d8610288366004611346565b6004602081905260009182526040909120805460018201546002830154600384015494840154600585015460068601546007909601546001600160a01b0395861697949693959293918316921688565b604080516001600160a01b03998a168152602081019890985287019590955260608601939093526080850191909152841660a084015260c083015290911660e08201526101000161017b565b6101ba610332366004611346565b6106e4565b34801561034357600080fd5b506101ba610877565b34801561035857600080fd5b5061017160025481565b34801561036e57600080fd5b506006546001600160a01b03165b6040516001600160a01b03909116815260200161017b565b3480156103a057600080fd5b5061017161088b565b3480156103b557600080fd5b5060075461037c906001600160a01b031681565b3480156103d557600080fd5b5061017160035481565b6101ba6103ed36600461137b565b610921565b3480156103fe57600080fd5b50610171600c5481565b6101ba6104163660046113ae565b610aec565b6101ba61042936600461137b565b610c30565b34801561043a57600080fd5b506101ba610449366004611346565b610dcd565b34801561045a57600080fd5b50610463610fa6565b60405161017b91906113d0565b6101ba6110d9565b34801561048457600080fd5b506101ba61049336600461144a565b611195565b6000818152600a60205260409020600101546001600160a01b031633146105195760405162461bcd60e51b815260206004820152602a60248201527f4552523a20596f75206469646e277420746865204e46542c20796f752063616e6044820152691b9bdd0818d85b98d95b60b21b60648201526084015b60405180910390fd5b6000908152600a6020526040812080546001600160a01b031990811682556001820180549091169055600481018290556003810182905560020155565b6000818152600460208190526040909120015442106105ab5760405162461bcd60e51b8152602060048201526011602482015270105d58dd1a5bdb881a5cc818db1bdcd959607a1b6044820152606401610510565b60008181526004602052604090206002015434101561060c5760405162461bcd60e51b815260206004820152601f60248201527f426964206d757374206d65657420746865206d696e696d756d207374616b65006044820152606401610510565b60008181526004602052604090206006015434116106785760405162461bcd60e51b8152602060048201526024808201527f426964206d75737420626520686967686572207468616e20746865206c61737460448201526308189a5960e21b6064820152608401610510565b600081815260046020526040808220600781018054600690920180546001600160a01b03198416331790925534905591516001600160a01b0390911692839183156108fc0291849190818181858888f193505050501580156106de573d6000803e3d6000fd5b50505050565b6106ec61120b565b6000818152600a6020908152604091829020825160a08101845281546001600160a01b039081168252600183015416928101929092526002810154928201929092526003820154606082018190526004909201546080820152903410156107a45760405162461bcd60e51b815260206004820152602660248201527f4552523a20596f75206469646e27742070617920656e6f75676820666f7220746044820152651a194813919560d21b6064820152608401610510565b80516040808301516020808501516000878152600a90925283822080546001600160a01b03199081168255600182018054909116905560048082018490556003820184905560029091019290925592516323b872dd60e01b81523091810191909152336024820152604481018290529091906001600160a01b038416906323b872dd90606401600060405180830381600087803b15801561084457600080fd5b505af1158015610858573d6000803e3d6000fd5b505050506108668134611264565b505050506108746001600555565b50565b61087f61129a565b61088960006112f4565b565b600080600860009054906101000a90046001600160a01b03166001600160a01b031663feaf968c6040518163ffffffff1660e01b815260040160a060405180830381865afa1580156108e1573d6000803e3d6000fd5b505050506040513d601f19601f820116820180604052508101906109059190611486565b5050509150506305f5e1008161091b91906114ec565b91505090565b6000543410156109735760405162461bcd60e51b815260206004820152601860248201527f4552523a2041554354494f4e20464545204e4f54204d455400000000000000006044820152606401610510565b6040516323b872dd60e01b8152336004820152306024820152604481018390526001600160a01b038416906323b872dd90606401600060405180830381600087803b1580156109c157600080fd5b505af11580156109d5573d6000803e3d6000fd5b5050600380549250905060006109ea83611528565b9091555050600280549060006109ff83611528565b9190505550604051806101000160405280846001600160a01b0316815260200183815260200182815260200142815260200160015442610a3f9190611541565b815233602080830191909152600060408084018290526060938401829052600380548352600480855292829020865181546001600160a01b039182166001600160a01b0319918216178355958801516001830155928701516002820155948601519085015560808501519184019190915560a084015160058401805491831691841691909117905560c0840151600684015560e09093015160079092018054929093169116179055505050565b6000828152600a6020908152604091829020825160a08101845281546001600160a01b039081168252600183015416928101839052600282015493810193909352600381015460608401526004015460808301523314610bab5760405162461bcd60e51b815260206004820152603460248201527f4552523a20596f75206469646e2774206c6973742069742c20796f752063616e6044820152736e6f74207570646174652069747320707269636560601b6064820152608401610510565b6080810151610bbd9062278d00611541565b4211610c1a5760405162461bcd60e51b815260206004820152602660248201527f4552523a204c697374696e672074696d65206973206c657373207468616e203360448201526530206461797360d01b6064820152608401610510565b506000918252600a602052604090912060030155565b610c3861120b565b600c54341015610c835760405162461bcd60e51b815260206004820152601660248201527522a9291d1026b4b73a34b733afb332b29022b93937b960511b6044820152606401610510565b6040516323b872dd60e01b8152336004820152306024820152604481018390526001600160a01b038416906323b872dd90606401600060405180830381600087803b158015610cd157600080fd5b505af1158015610ce5573d6000803e3d6000fd5b50506040805160a0810182526001600160a01b0380881682523360208084018281528486018a8152606086018a81524260808801908152600980546000908152600a87528a812099518a54908a166001600160a01b0319918216178b5595516001808c01805492909b169190971617909855925160028901559051600388015551600490960195909555828452600b82529483209354845480870186558585529184209091015581529082018054929450925090610da4908490611541565b909155505060098054906000610db983611528565b9190505550610dc86001600555565b505050565b333014610e305760405162461bcd60e51b815260206004820152602b60248201527f4f6e6c79207468652061756374696f6e6565722063616e20706572666f726d2060448201526a3a3434b99030b1ba34b7b760a91b6064820152608401610510565b60008181526004602081905260409091200154421015610e8a5760405162461bcd60e51b815260206004820152601560248201527420bab1ba34b7b71034b99039ba34b6361037b832b760591b6044820152606401610510565b600081815260046020526040902060078101546006909101546001600160a01b039091169081610f065760405162461bcd60e51b815260206004820152602160248201527f4e6f20626964732077657265206d616465206f6e20746869732061756374696f6044820152603760f91b6064820152608401610510565b6040513090819083156108fc029084906000818181858888f19350505050158015610f35573d6000803e3d6000fd5b506000848152600460208190526040822080546001600160a01b03199081168255600182018490556002808301859055600383018590559282018490556005820180548216905560068201849055600790910180549091169055805491610f9b8361155a565b919050555050505050565b6060600060095467ffffffffffffffff811115610fc557610fc5611571565b60405190808252806020026020018201604052801561103a57816020015b6110276040518060a0016040528060006001600160a01b0316815260200160006001600160a01b031681526020016000815260200160008152602001600081525090565b815260200190600190039081610fe35790505b50905060005b6009548110156110d3576000818152600a6020908152604091829020825160a08101845281546001600160a01b0390811682526001830154169281019290925260028101549282019290925260038201546060820152600490910154608082015282518390839081106110b5576110b5611587565b602002602001018190525080806110cb90611528565b915050611040565b50919050565b600c5434101561113e5760405162461bcd60e51b815260206004820152602a60248201527f4552523a20506c656173652070617920656e6f75676820666f7220746865204560448201526918dcdd185cde4813919560b21b6064820152608401610510565b60075460405162977dcd60e01b81523360048201526001600160a01b039091169062977dcd90602401600060405180830381600087803b15801561118157600080fd5b505af11580156106de573d6000803e3d6000fd5b61119d61129a565b6001600160a01b0381166112025760405162461bcd60e51b815260206004820152602660248201527f4f776e61626c653a206e6577206f776e657220697320746865207a65726f206160448201526564647265737360d01b6064820152608401610510565b610874816112f4565b60026005540361125d5760405162461bcd60e51b815260206004820152601f60248201527f5265656e7472616e637947756172643a207265656e7472616e742063616c6c006044820152606401610510565b6002600555565b6040516001600160a01b0383169082156108fc029083906000818181858888f19350505050158015610dc8573d6000803e3d6000fd5b6006546001600160a01b031633146108895760405162461bcd60e51b815260206004820181905260248201527f4f776e61626c653a2063616c6c6572206973206e6f7420746865206f776e65726044820152606401610510565b600680546001600160a01b038381166001600160a01b0319831681179093556040519116919082907f8be0079c531659141344cd1fd0a4f28419497f9722a3daafe3b4186f6b6457e090600090a35050565b60006020828403121561135857600080fd5b5035919050565b80356001600160a01b038116811461137657600080fd5b919050565b60008060006060848603121561139057600080fd5b6113998461135f565b95602085013595506040909401359392505050565b600080604083850312156113c157600080fd5b50508035926020909101359150565b602080825282518282018190526000919060409081850190868401855b8281101561143d57815180516001600160a01b0390811686528782015116878601528581015186860152606080820151908601526080908101519085015260a090930192908501906001016113ed565b5091979650505050505050565b60006020828403121561145c57600080fd5b6114658261135f565b9392505050565b805169ffffffffffffffffffff8116811461137657600080fd5b600080600080600060a0868803121561149e57600080fd5b6114a78661146c565b94506020860151935060408601519250606086015191506114ca6080870161146c565b90509295509295909350565b634e487b7160e01b600052601160045260246000fd5b60008261150957634e487b7160e01b600052601260045260246000fd5b600160ff1b821460001984141615611523576115236114d6565b500590565b60006001820161153a5761153a6114d6565b5060010190565b80820180821115611554576115546114d6565b92915050565b600081611569576115696114d6565b506000190190565b634e487b7160e01b600052604160045260246000fd5b634e487b7160e01b600052603260045260246000fdfea2646970667358221220d0aed5d443fcdac13ed63b0d4cade75da550b125189830b5556ff86f47dfed8b64736f6c6343000811003360806040523480156200001157600080fd5b50604051620018e5380380620018e58339810160408190526200003491620000be565b6040518060400160405280600a8152602001691150dcdd185cde53919560b21b815250604051806040016040528060048152602001631953919560e21b815250816000908162000085919062000195565b50600162000094828262000195565b5050600880546001600160a01b0319166001600160a01b0393909316929092179091555062000261565b600060208284031215620000d157600080fd5b81516001600160a01b0381168114620000e957600080fd5b9392505050565b634e487b7160e01b600052604160045260246000fd5b600181811c908216806200011b57607f821691505b6020821081036200013c57634e487b7160e01b600052602260045260246000fd5b50919050565b601f8211156200019057600081815260208120601f850160051c810160208610156200016b5750805b601f850160051c820191505b818110156200018c5782815560010162000177565b5050505b505050565b81516001600160401b03811115620001b157620001b1620000f0565b620001c981620001c2845462000106565b8462000142565b602080601f831160018114620002015760008415620001e85750858301515b600019600386901b1c1916600185901b1785556200018c565b600085815260208120601f198616915b82811015620002325788860151825594840194600190910190840162000211565b5085821015620002515787850151600019600388901b60f8161c191681555b5050505050600190811b01905550565b61167480620002716000396000f3fe608060405234801561001057600080fd5b50600436106100e95760003560e01c80636352211e1161008c578063a22cb46511610066578063a22cb465146101e0578063b88d4fde146101f3578063c87b56dd14610206578063e985e9c51461021957600080fd5b80636352211e146101a457806370a08231146101b757806395d89b41146101d857600080fd5b8063081812fc116100c8578063081812fc14610140578063095ea7b31461016b57806323b872dd1461017e57806342842e0e1461019157600080fd5b8062977dcd146100ee57806301ffc9a71461010357806306fdde031461012b575b600080fd5b6101016100fc3660046110bc565b61022c565b005b6101166101113660046110ed565b610285565b60405190151581526020015b60405180910390f35b6101336102d7565b604051610122919061115a565b61015361014e36600461116d565b610369565b6040516001600160a01b039091168152602001610122565b610101610179366004611186565b610390565b61010161018c3660046111b0565b6104aa565b61010161019f3660046111b0565b6104db565b6101536101b236600461116d565b6104f6565b6101ca6101c53660046110bc565b610556565b604051908152602001610122565b6101336105dc565b6101016101ee3660046111ec565b6105eb565b61010161020136600461123e565b6105f6565b61013361021436600461116d565b61062e565b61011661022736600461131a565b61073e565b6008546001600160a01b0316331461024357600080fd5b600061024e60075490565b905061025a828261076c565b6102738160405180602001604052806000815250610905565b610281600780546001019055565b5050565b60006001600160e01b031982166380ac58cd60e01b14806102b657506001600160e01b03198216635b5e139f60e01b145b806102d157506301ffc9a760e01b6001600160e01b03198316145b92915050565b6060600080546102e69061134d565b80601f01602080910402602001604051908101604052809291908181526020018280546103129061134d565b801561035f5780601f106103345761010080835404028352916020019161035f565b820191906000526020600020905b81548152906001019060200180831161034257829003601f168201915b5050505050905090565b600061037482610998565b506000908152600460205260409020546001600160a01b031690565b600061039b826104f6565b9050806001600160a01b0316836001600160a01b03160361040d5760405162461bcd60e51b815260206004820152602160248201527f4552433732313a20617070726f76616c20746f2063757272656e74206f776e656044820152603960f91b60648201526084015b60405180910390fd5b336001600160a01b03821614806104295750610429813361073e565b61049b5760405162461bcd60e51b815260206004820152603d60248201527f4552433732313a20617070726f76652063616c6c6572206973206e6f7420746f60448201527f6b656e206f776e6572206f7220617070726f76656420666f7220616c6c0000006064820152608401610404565b6104a583836109fa565b505050565b6104b43382610a68565b6104d05760405162461bcd60e51b815260040161040490611387565b6104a5838383610ac6565b6104a5838383604051806020016040528060008152506105f6565b6000818152600260205260408120546001600160a01b0316806102d15760405162461bcd60e51b8152602060048201526018602482015277115490cdcc8c4e881a5b9d985b1a59081d1bdad95b88125160421b6044820152606401610404565b60006001600160a01b0382166105c05760405162461bcd60e51b815260206004820152602960248201527f4552433732313a2061646472657373207a65726f206973206e6f7420612076616044820152683634b21037bbb732b960b91b6064820152608401610404565b506001600160a01b031660009081526003602052604090205490565b6060600180546102e69061134d565b610281338383610c37565b6106003383610a68565b61061c5760405162461bcd60e51b815260040161040490611387565b61062884848484610d05565b50505050565b606061063982610998565b600082815260066020526040812080546106529061134d565b80601f016020809104026020016040519081016040528092919081815260200182805461067e9061134d565b80156106cb5780601f106106a0576101008083540402835291602001916106cb565b820191906000526020600020905b8154815290600101906020018083116106ae57829003601f168201915b5050505050905060006106e960408051602081019091526000815290565b905080516000036106fb575092915050565b81511561072d5780826040516020016107159291906113d4565b60405160208183030381529060405292505050919050565b61073684610d38565b949350505050565b6001600160a01b03918216600090815260056020908152604080832093909416825291909152205460ff1690565b6001600160a01b0382166107c25760405162461bcd60e51b815260206004820181905260248201527f4552433732313a206d696e7420746f20746865207a65726f20616464726573736044820152606401610404565b6000818152600260205260409020546001600160a01b0316156108275760405162461bcd60e51b815260206004820152601c60248201527f4552433732313a20746f6b656e20616c7265616479206d696e746564000000006044820152606401610404565b610835600083836001610dac565b6000818152600260205260409020546001600160a01b03161561089a5760405162461bcd60e51b815260206004820152601c60248201527f4552433732313a20746f6b656e20616c7265616479206d696e746564000000006044820152606401610404565b6001600160a01b038216600081815260036020908152604080832080546001019055848352600290915280822080546001600160a01b0319168417905551839291907fddf252ad1be2c89b69c2b068fc378daa952ba7f163c4a11628f55a4df523b3ef908290a45050565b6000828152600260205260409020546001600160a01b03166109805760405162461bcd60e51b815260206004820152602e60248201527f45524337323155524953746f726167653a2055524920736574206f66206e6f6e60448201526d32bc34b9ba32b73a103a37b5b2b760911b6064820152608401610404565b60008281526006602052604090206104a58282611451565b6000818152600260205260409020546001600160a01b03166109f75760405162461bcd60e51b8152602060048201526018602482015277115490cdcc8c4e881a5b9d985b1a59081d1bdad95b88125160421b6044820152606401610404565b50565b600081815260046020526040902080546001600160a01b0319166001600160a01b0384169081179091558190610a2f826104f6565b6001600160a01b03167f8c5be1e5ebec7d5bd14f71427d1e84f3dd0314c0f7b2291e5b200ac8c7c3b92560405160405180910390a45050565b600080610a74836104f6565b9050806001600160a01b0316846001600160a01b03161480610a9b5750610a9b818561073e565b806107365750836001600160a01b0316610ab484610369565b6001600160a01b031614949350505050565b826001600160a01b0316610ad9826104f6565b6001600160a01b031614610aff5760405162461bcd60e51b815260040161040490611511565b6001600160a01b038216610b615760405162461bcd60e51b8152602060048201526024808201527f4552433732313a207472616e7366657220746f20746865207a65726f206164646044820152637265737360e01b6064820152608401610404565b610b6e8383836001610dac565b826001600160a01b0316610b81826104f6565b6001600160a01b031614610ba75760405162461bcd60e51b815260040161040490611511565b600081815260046020908152604080832080546001600160a01b03199081169091556001600160a01b0387811680865260038552838620805460001901905590871680865283862080546001019055868652600290945282852080549092168417909155905184937fddf252ad1be2c89b69c2b068fc378daa952ba7f163c4a11628f55a4df523b3ef91a4505050565b816001600160a01b0316836001600160a01b031603610c985760405162461bcd60e51b815260206004820152601960248201527f4552433732313a20617070726f766520746f2063616c6c6572000000000000006044820152606401610404565b6001600160a01b03838116600081815260056020908152604080832094871680845294825291829020805460ff191686151590811790915591519182527f17307eab39ab6107e8899845ad3d59bd9653f200f220920489ca2b5937696c31910160405180910390a3505050565b610d10848484610ac6565b610d1c84848484610e34565b6106285760405162461bcd60e51b815260040161040490611556565b6060610d4382610998565b6000610d5a60408051602081019091526000815290565b90506000815111610d7a5760405180602001604052806000815250610da5565b80610d8484610f35565b604051602001610d959291906113d4565b6040516020818303038152906040525b9392505050565b6001811115610628576001600160a01b03841615610df2576001600160a01b03841660009081526003602052604081208054839290610dec9084906115be565b90915550505b6001600160a01b03831615610628576001600160a01b03831660009081526003602052604081208054839290610e299084906115d1565b909155505050505050565b60006001600160a01b0384163b15610f2a57604051630a85bd0160e11b81526001600160a01b0385169063150b7a0290610e789033908990889088906004016115e4565b6020604051808303816000875af1925050508015610eb3575060408051601f3d908101601f19168201909252610eb091810190611621565b60015b610f10573d808015610ee1576040519150601f19603f3d011682016040523d82523d6000602084013e610ee6565b606091505b508051600003610f085760405162461bcd60e51b815260040161040490611556565b805181602001fd5b6001600160e01b031916630a85bd0160e11b149050610736565b506001949350505050565b60606000610f4283610fc8565b600101905060008167ffffffffffffffff811115610f6257610f62611228565b6040519080825280601f01601f191660200182016040528015610f8c576020820181803683370190505b5090508181016020015b600019016f181899199a1a9b1b9c1cb0b131b232b360811b600a86061a8153600a8504945084610f9657509392505050565b60008072184f03e93ff9f4daa797ed6e38ed64bf6a1f0160401b83106110075772184f03e93ff9f4daa797ed6e38ed64bf6a1f0160401b830492506040015b6d04ee2d6d415b85acef81000000008310611033576d04ee2d6d415b85acef8100000000830492506020015b662386f26fc10000831061105157662386f26fc10000830492506010015b6305f5e1008310611069576305f5e100830492506008015b612710831061107d57612710830492506004015b6064831061108f576064830492506002015b600a83106102d15760010192915050565b80356001600160a01b03811681146110b757600080fd5b919050565b6000602082840312156110ce57600080fd5b610da5826110a0565b6001600160e01b0319811681146109f757600080fd5b6000602082840312156110ff57600080fd5b8135610da5816110d7565b60005b8381101561112557818101518382015260200161110d565b50506000910152565b6000815180845261114681602086016020860161110a565b601f01601f19169290920160200192915050565b602081526000610da5602083018461112e565b60006020828403121561117f57600080fd5b5035919050565b6000806040838503121561119957600080fd5b6111a2836110a0565b946020939093013593505050565b6000806000606084860312156111c557600080fd5b6111ce846110a0565b92506111dc602085016110a0565b9150604084013590509250925092565b600080604083850312156111ff57600080fd5b611208836110a0565b91506020830135801515811461121d57600080fd5b809150509250929050565b634e487b7160e01b600052604160045260246000fd5b6000806000806080858703121561125457600080fd5b61125d856110a0565b935061126b602086016110a0565b925060408501359150606085013567ffffffffffffffff8082111561128f57600080fd5b818701915087601f8301126112a357600080fd5b8135818111156112b5576112b5611228565b604051601f8201601f19908116603f011681019083821181831017156112dd576112dd611228565b816040528281528a60208487010111156112f657600080fd5b82602086016020830137600060208483010152809550505050505092959194509250565b6000806040838503121561132d57600080fd5b611336836110a0565b9150611344602084016110a0565b90509250929050565b600181811c9082168061136157607f821691505b60208210810361138157634e487b7160e01b600052602260045260246000fd5b50919050565b6020808252602d908201527f4552433732313a2063616c6c6572206973206e6f7420746f6b656e206f776e6560408201526c1c881bdc88185c1c1c9bdd9959609a1b606082015260800190565b600083516113e681846020880161110a565b8351908301906113fa81836020880161110a565b01949350505050565b601f8211156104a557600081815260208120601f850160051c8101602086101561142a5750805b601f850160051c820191505b8181101561144957828155600101611436565b505050505050565b815167ffffffffffffffff81111561146b5761146b611228565b61147f81611479845461134d565b84611403565b602080601f8311600181146114b4576000841561149c5750858301515b600019600386901b1c1916600185901b178555611449565b600085815260208120601f198616915b828110156114e3578886015182559484019460019091019084016114c4565b50858210156115015787850151600019600388901b60f8161c191681555b5050505050600190811b01905550565b60208082526025908201527f4552433732313a207472616e736665722066726f6d20696e636f72726563742060408201526437bbb732b960d91b606082015260800190565b60208082526032908201527f4552433732313a207472616e7366657220746f206e6f6e20455243373231526560408201527131b2b4bb32b91034b6b83632b6b2b73a32b960711b606082015260800190565b634e487b7160e01b600052601160045260246000fd5b818103818111156102d1576102d16115a8565b808201808211156102d1576102d16115a8565b6001600160a01b03858116825284166020820152604081018390526080606082018190526000906116179083018461112e565b9695505050505050565b60006020828403121561163357600080fd5b8151610da5816110d756fea26469706673582212202aa45fab71d898af3cf4afebde1b93412e4bf0fbc5bc764c26b10ae944022f3a64736f6c63430008110033",
    "linkReferences": {}
  },
  "methodIdentifiers": {
    "auctionCounter()": "a7e76644",
    "auctionDuration()": "0cbf54c8",
    "auctionFee()": "14525b6b",
    "auctions(uint256)": "571a26a0",
    "bid(uint256)": "454a2ab3",
    "buyNFT_Single(uint256)": "5a5f8d41",
    "cancelListing(uint256)": "305a67a8",
    "claimMyFunds(uint256)": "df88ea1a",
    "createAuction(address,uint256,uint256)": "abb94051",
    "getAllNFTs()": "e0391b09",
    "getLastBid(uint256)": "30b6208a",
    "getLatestPrice()": "8e15f473",
    "isOpen(uint256)": "4d6861a6",
    "listMyNFTforSale(address,uint256,uint256)": "d09b1985",
    "listedNFTCount()": "421d5400",
    "mintEcstasy()": "e8603bd6",
    "minting_fee()": "c3355b8d",
    "nativeNFT()": "8f38ed10",
    "numberOfActiveAuctions()": "7dafaa08",
    "numberOfNftsSold()": "4ad8a0a0",
    "owner()": "8da5cb5b",
    "renounceOwnership()": "715018a6",
    "transferOwnership(address)": "f2fde38b",
    "updateListingPrice(uint256,uint256)": "c4604943"
  },
  "id": 30
}