{
  "abi": [
    {
      "inputs": [
        {
          "internalType": "uint256",
          "name": "_minting_fee",
          "type": "uint256"
        },
        {
          "internalType": "uint256",
          "name": "_auctionFee",
          "type": "uint256"
        },
        {
          "internalType": "uint256",
          "name": "_auctionDuration",
          "type": "uint256"
        },
        {
          "internalType": "uint256",
          "name": "_listing_fee",
          "type": "uint256"
        }
      ],
      "stateMutability": "nonpayable",
      "type": "constructor"
    },
    {
      "inputs": [],
      "name": "IncorrectAmountPaid",
      "type": "error"
    },
    {
      "inputs": [],
      "name": "IncorrectMSG_SENDER",
      "type": "error"
    },
    {
      "inputs": [],
      "name": "InvalidAuctionFee",
      "type": "error"
    },
    {
      "inputs": [],
      "name": "InvalidListingFee",
      "type": "error"
    },
    {
      "inputs": [],
      "name": "InvalidMintingFee",
      "type": "error"
    },
    {
      "inputs": [],
      "name": "MinimumStakeNotSatisfied",
      "type": "error"
    },
    {
      "inputs": [],
      "name": "NFTSoldOrCanceled",
      "type": "error"
    },
    {
      "inputs": [],
      "name": "NotOpen",
      "type": "error"
    },
    {
      "inputs": [],
      "name": "OpenBidding",
      "type": "error"
    },
    {
      "inputs": [],
      "name": "PlaceAHigherBid",
      "type": "error"
    },
    {
      "inputs": [],
      "name": "TimestampError",
      "type": "error"
    },
    {
      "inputs": [],
      "name": "ZeroAddress",
      "type": "error"
    },
    {
      "inputs": [],
      "name": "ZeroInput",
      "type": "error"
    },
    {
      "anonymous": false,
      "inputs": [
        {
          "indexed": false,
          "internalType": "address",
          "name": "buyer",
          "type": "address"
        },
        {
          "indexed": false,
          "internalType": "uint256",
          "name": "listingID",
          "type": "uint256"
        },
        {
          "indexed": false,
          "internalType": "address",
          "name": "tokenAddress",
          "type": "address"
        },
        {
          "indexed": false,
          "internalType": "uint256",
          "name": "tokenId",
          "type": "uint256"
        },
        {
          "indexed": false,
          "internalType": "uint256",
          "name": "bargainPrice",
          "type": "uint256"
        }
      ],
      "name": "NFTBought",
      "type": "event"
    },
    {
      "anonymous": false,
      "inputs": [
        {
          "indexed": true,
          "internalType": "address",
          "name": "previousOwner",
          "type": "address"
        },
        {
          "indexed": true,
          "internalType": "address",
          "name": "newOwner",
          "type": "address"
        }
      ],
      "name": "OwnershipTransferred",
      "type": "event"
    },
    {
      "anonymous": false,
      "inputs": [
        {
          "indexed": false,
          "internalType": "uint256",
          "name": "uniqueId",
          "type": "uint256"
        },
        {
          "indexed": false,
          "internalType": "address",
          "name": "tokenAddress",
          "type": "address"
        },
        {
          "indexed": false,
          "internalType": "uint256",
          "name": "tokenId",
          "type": "uint256"
        },
        {
          "indexed": false,
          "internalType": "uint256",
          "name": "minimumStake",
          "type": "uint256"
        }
      ],
      "name": "auctionCreated",
      "type": "event"
    },
    {
      "anonymous": false,
      "inputs": [
        {
          "indexed": false,
          "internalType": "uint256",
          "name": "uniqueId",
          "type": "uint256"
        }
      ],
      "name": "fundClaimSuccessful",
      "type": "event"
    },
    {
      "anonymous": false,
      "inputs": [
        {
          "indexed": false,
          "internalType": "uint256",
          "name": "uniqueId",
          "type": "uint256"
        },
        {
          "indexed": false,
          "internalType": "address",
          "name": "lastBidder",
          "type": "address"
        },
        {
          "indexed": false,
          "internalType": "uint256",
          "name": "lastBid",
          "type": "uint256"
        }
      ],
      "name": "lastBid",
      "type": "event"
    },
    {
      "anonymous": false,
      "inputs": [
        {
          "indexed": false,
          "internalType": "uint256",
          "name": "listingId",
          "type": "uint256"
        }
      ],
      "name": "listingCanceled",
      "type": "event"
    },
    {
      "anonymous": false,
      "inputs": [
        {
          "indexed": false,
          "internalType": "uint256",
          "name": "newListingFee",
          "type": "uint256"
        }
      ],
      "name": "listingFeeSet",
      "type": "event"
    },
    {
      "anonymous": false,
      "inputs": [
        {
          "indexed": false,
          "internalType": "uint256",
          "name": "listingId",
          "type": "uint256"
        },
        {
          "indexed": false,
          "internalType": "uint256",
          "name": "listingPrice",
          "type": "uint256"
        }
      ],
      "name": "listingPriceUpdated",
      "type": "event"
    },
    {
      "anonymous": false,
      "inputs": [
        {
          "indexed": false,
          "internalType": "address",
          "name": "tokenAddress",
          "type": "address"
        },
        {
          "indexed": false,
          "internalType": "uint256",
          "name": "tokenId",
          "type": "uint256"
        },
        {
          "indexed": false,
          "internalType": "uint256",
          "name": "listingPrice",
          "type": "uint256"
        }
      ],
      "name": "listingSuccessful",
      "type": "event"
    },
    {
      "anonymous": false,
      "inputs": [
        {
          "indexed": false,
          "internalType": "address",
          "name": "owner",
          "type": "address"
        },
        {
          "indexed": false,
          "internalType": "uint256",
          "name": "tokenId",
          "type": "uint256"
        }
      ],
      "name": "mintSuccessful",
      "type": "event"
    },
    {
      "anonymous": false,
      "inputs": [
        {
          "indexed": false,
          "internalType": "uint256",
          "name": "newMintingFee",
          "type": "uint256"
        }
      ],
      "name": "mintingFeeSet",
      "type": "event"
    },
    {
      "inputs": [],
      "name": "auctionCounter",
      "outputs": [
        {
          "internalType": "uint256",
          "name": "",
          "type": "uint256"
        }
      ],
      "stateMutability": "view",
      "type": "function"
    },
    {
      "inputs": [],
      "name": "auctionDuration",
      "outputs": [
        {
          "internalType": "uint256",
          "name": "",
          "type": "uint256"
        }
      ],
      "stateMutability": "view",
      "type": "function"
    },
    {
      "inputs": [],
      "name": "auctionFee",
      "outputs": [
        {
          "internalType": "uint256",
          "name": "",
          "type": "uint256"
        }
      ],
      "stateMutability": "view",
      "type": "function"
    },
    {
      "inputs": [],
      "name": "auctioneer",
      "outputs": [
        {
          "internalType": "address",
          "name": "",
          "type": "address"
        }
      ],
      "stateMutability": "view",
      "type": "function"
    },
    {
      "inputs": [
        {
          "internalType": "uint256",
          "name": "",
          "type": "uint256"
        }
      ],
      "name": "auctions",
      "outputs": [
        {
          "internalType": "address",
          "name": "nftAddress",
          "type": "address"
        },
        {
          "internalType": "uint256",
          "name": "tokenId",
          "type": "uint256"
        },
        {
          "internalType": "uint256",
          "name": "minimumStake",
          "type": "uint256"
        },
        {
          "internalType": "uint256",
          "name": "startTime",
          "type": "uint256"
        },
        {
          "internalType": "uint256",
          "name": "endTime",
          "type": "uint256"
        },
        {
          "internalType": "address",
          "name": "listor",
          "type": "address"
        },
        {
          "internalType": "uint256",
          "name": "lastBid",
          "type": "uint256"
        },
        {
          "internalType": "address",
          "name": "lastBidder",
          "type": "address"
        }
      ],
      "stateMutability": "view",
      "type": "function"
    },
    {
      "inputs": [
        {
          "internalType": "uint256",
          "name": "uniqueId",
          "type": "uint256"
        }
      ],
      "name": "bid",
      "outputs": [],
      "stateMutability": "payable",
      "type": "function"
    },
    {
      "inputs": [
        {
          "internalType": "uint256",
          "name": "listingID",
          "type": "uint256"
        }
      ],
      "name": "buyNFT",
      "outputs": [],
      "stateMutability": "payable",
      "type": "function"
    },
    {
      "inputs": [
        {
          "internalType": "uint256",
          "name": "listingId",
          "type": "uint256"
        }
      ],
      "name": "cancelListing",
      "outputs": [],
      "stateMutability": "nonpayable",
      "type": "function"
    },
    {
      "inputs": [
        {
          "internalType": "uint256",
          "name": "uniqueId",
          "type": "uint256"
        }
      ],
      "name": "claimMyFunds",
      "outputs": [],
      "stateMutability": "nonpayable",
      "type": "function"
    },
    {
      "inputs": [
        {
          "internalType": "address",
          "name": "_nftAddress",
          "type": "address"
        },
        {
          "internalType": "uint256",
          "name": "_tokenId",
          "type": "uint256"
        },
        {
          "internalType": "uint256",
          "name": "_minimumStake",
          "type": "uint256"
        }
      ],
      "name": "createAuction",
      "outputs": [],
      "stateMutability": "payable",
      "type": "function"
    },
    {
      "inputs": [],
      "name": "getAllNFTs",
      "outputs": [
        {
          "components": [
            {
              "internalType": "address",
              "name": "NFTAddress",
              "type": "address"
            },
            {
              "internalType": "address",
              "name": "listor",
              "type": "address"
            },
            {
              "internalType": "uint256",
              "name": "tokenID",
              "type": "uint256"
            },
            {
              "internalType": "uint256",
              "name": "listingPrice",
              "type": "uint256"
            },
            {
              "internalType": "uint256",
              "name": "timestamp",
              "type": "uint256"
            },
            {
              "internalType": "bool",
              "name": "canceled_sold",
              "type": "bool"
            }
          ],
          "internalType": "struct EcstasyMKT.listedNFT[]",
          "name": "",
          "type": "tuple[]"
        }
      ],
      "stateMutability": "view",
      "type": "function"
    },
    {
      "inputs": [
        {
          "internalType": "uint256",
          "name": "uniqueId",
          "type": "uint256"
        }
      ],
      "name": "getLastBid",
      "outputs": [
        {
          "internalType": "uint256",
          "name": "",
          "type": "uint256"
        }
      ],
      "stateMutability": "view",
      "type": "function"
    },
    {
      "inputs": [
        {
          "internalType": "uint256",
          "name": "uniqueId",
          "type": "uint256"
        }
      ],
      "name": "isOpen",
      "outputs": [
        {
          "internalType": "bool",
          "name": "",
          "type": "bool"
        }
      ],
      "stateMutability": "view",
      "type": "function"
    },
    {
      "inputs": [
        {
          "internalType": "address",
          "name": "_tokenAddress",
          "type": "address"
        },
        {
          "internalType": "uint256",
          "name": "tokenId",
          "type": "uint256"
        },
        {
          "internalType": "uint256",
          "name": "listingPrice_in_MATIC",
          "type": "uint256"
        }
      ],
      "name": "listMyNFTforSale",
      "outputs": [],
      "stateMutability": "payable",
      "type": "function"
    },
    {
      "inputs": [],
      "name": "listedNFTCount",
      "outputs": [
        {
          "internalType": "uint256",
          "name": "",
          "type": "uint256"
        }
      ],
      "stateMutability": "view",
      "type": "function"
    },
    {
      "inputs": [],
      "name": "listing_fee",
      "outputs": [
        {
          "internalType": "uint256",
          "name": "",
          "type": "uint256"
        }
      ],
      "stateMutability": "view",
      "type": "function"
    },
    {
      "inputs": [
        {
          "internalType": "uint256",
          "name": "",
          "type": "uint256"
        }
      ],
      "name": "listings",
      "outputs": [
        {
          "internalType": "address",
          "name": "NFTAddress",
          "type": "address"
        },
        {
          "internalType": "address",
          "name": "listor",
          "type": "address"
        },
        {
          "internalType": "uint256",
          "name": "tokenID",
          "type": "uint256"
        },
        {
          "internalType": "uint256",
          "name": "listingPrice",
          "type": "uint256"
        },
        {
          "internalType": "uint256",
          "name": "timestamp",
          "type": "uint256"
        },
        {
          "internalType": "bool",
          "name": "canceled_sold",
          "type": "bool"
        }
      ],
      "stateMutability": "view",
      "type": "function"
    },
    {
      "inputs": [],
      "name": "mintEcstasy",
      "outputs": [],
      "stateMutability": "payable",
      "type": "function"
    },
    {
      "inputs": [],
      "name": "minting_fee",
      "outputs": [
        {
          "internalType": "uint256",
          "name": "",
          "type": "uint256"
        }
      ],
      "stateMutability": "view",
      "type": "function"
    },
    {
      "inputs": [
        {
          "internalType": "address",
          "name": "",
          "type": "address"
        }
      ],
      "name": "myListings",
      "outputs": [
        {
          "internalType": "uint256",
          "name": "total",
          "type": "uint256"
        }
      ],
      "stateMutability": "view",
      "type": "function"
    },
    {
      "inputs": [],
      "name": "nativeNFT",
      "outputs": [
        {
          "internalType": "contract EcstasyNFT",
          "name": "",
          "type": "address"
        }
      ],
      "stateMutability": "view",
      "type": "function"
    },
    {
      "inputs": [],
      "name": "numberOfActiveAuctions",
      "outputs": [
        {
          "internalType": "uint256",
          "name": "",
          "type": "uint256"
        }
      ],
      "stateMutability": "view",
      "type": "function"
    },
    {
      "inputs": [],
      "name": "numberOfNftsListed",
      "outputs": [
        {
          "internalType": "uint256",
          "name": "",
          "type": "uint256"
        }
      ],
      "stateMutability": "view",
      "type": "function"
    },
    {
      "inputs": [],
      "name": "owner",
      "outputs": [
        {
          "internalType": "address",
          "name": "",
          "type": "address"
        }
      ],
      "stateMutability": "view",
      "type": "function"
    },
    {
      "inputs": [],
      "name": "renounceOwnership",
      "outputs": [],
      "stateMutability": "nonpayable",
      "type": "function"
    },
    {
      "inputs": [
        {
          "internalType": "address",
          "name": "newOwner",
          "type": "address"
        }
      ],
      "name": "transferOwnership",
      "outputs": [],
      "stateMutability": "nonpayable",
      "type": "function"
    },
    {
      "inputs": [
        {
          "internalType": "uint256",
          "name": "listedTokenID",
          "type": "uint256"
        },
        {
          "internalType": "uint256",
          "name": "listingPrice_in_MATIC",
          "type": "uint256"
        }
      ],
      "name": "updateListingPrice",
      "outputs": [],
      "stateMutability": "payable",
      "type": "function"
    },
    {
      "stateMutability": "payable",
      "type": "receive"
    }
  ],
  "bytecode": {
    "object": "0x61010060405260008055600060015560016005553480156200002057600080fd5b506040516200372938038062003729833981016040819052620000439162000250565b8282338215801562000053575081155b15620000725760405163af458c0760e01b815260040160405180910390fd5b67016345785d8a00008310156200009c57604051637235db3560e11b815260040160405180910390fd5b60809290925260c0526001600160a01b031660a0526001600355620000c1336200012a565b30604051620000d09062000242565b6001600160a01b039091168152602001604051809103906000f080158015620000fd573d6000803e3d6000fd5b506001600160a01b031660e05262000115846200017c565b6200012081620001e2565b5050505062000287565b600480546001600160a01b038381166001600160a01b0319831681179093556040519116919082907f8be0079c531659141344cd1fd0a4f28419497f9722a3daafe3b4186f6b6457e090600090a35050565b67016345785d8a0000811015620001a657604051633a6b735d60e21b815260040160405180910390fd5b60088190556040518181527fb7dc7fc51d92cc56d5672b168da215df112695513b8fab8f940258699cec4929906020015b60405180910390a150565b67016345785d8a00008110156200020c57604051631e5c2d5d60e11b815260040160405180910390fd5b60098190556040518181527fc59048267b21d46eaa2a07f08aed3965af33a9ed9914e84aeb1ddfa693a14ed890602001620001d7565b6119488062001de183390190565b600080600080608085870312156200026757600080fd5b505082516020840151604085015160609095015191969095509092509050565b60805160a05160c05160e051611afd620002e46000396000818161046c0152818161160801526116910152600081816101be0152610d880152600081816103c201526111d30152600081816102050152610c8e0152611afd6000f3fe6080604052600436106101a05760003560e01c80638da5cb5b116100ec578063d09b19851161008a578063e0391b0911610064578063e0391b09146105c3578063e8603bd6146105e5578063f2fde38b146105ed578063fba8805c1461060d57600080fd5b8063d09b1985146104f6578063de74e57b14610509578063df88ea1a146105a357600080fd5b8063abb94051116100c6578063abb94051146104a4578063b980777a146104b7578063c3355b8d146104cd578063c4604943146104e357600080fd5b80638da5cb5b1461043c5780638f38ed101461045a578063a7e766441461048e57600080fd5b80634d6861a6116101595780635ec2c7bf116101335780635ec2c7bf146103b057806364dd6595146103fc578063715018a6146104115780637dafaa081461042657600080fd5b80634d6861a6146102a257806351ed8288146102e4578063571a26a0146102f757600080fd5b80630cbf54c8146101ac57806314525b6b146101f3578063305a67a81461022757806330b6208a14610249578063421d540014610279578063454a2ab31461028f57600080fd5b366101a757005b600080fd5b3480156101b857600080fd5b506101e07f000000000000000000000000000000000000000000000000000000000000000081565b6040519081526020015b60405180910390f35b3480156101ff57600080fd5b506101e07f000000000000000000000000000000000000000000000000000000000000000081565b34801561023357600080fd5b506102476102423660046118ba565b61063d565b005b34801561025557600080fd5b506101e06102643660046118ba565b60009081526002602052604090206006015490565b34801561028557600080fd5b506101e060055481565b61024761029d3660046118ba565b61081c565b3480156102ae57600080fd5b506102d46102bd3660046118ba565b600090815260026020526040902060040154421090565b60405190151581526020016101ea565b6102476102f23660046118ba565b610a13565b34801561030357600080fd5b506103646103123660046118ba565b6002602081905260009182526040909120805460018201549282015460038301546004840154600585015460068601546007909601546001600160a01b03958616979694959394929391821692911688565b604080516001600160a01b03998a168152602081019890985287019590955260608601939093526080850191909152841660a084015260c083015290911660e0820152610100016101ea565b3480156103bc57600080fd5b506103e47f000000000000000000000000000000000000000000000000000000000000000081565b6040516001600160a01b0390911681526020016101ea565b34801561040857600080fd5b506101e0610c62565b34801561041d57600080fd5b50610247610c78565b34801561043257600080fd5b506101e060005481565b34801561044857600080fd5b506004546001600160a01b03166103e4565b34801561046657600080fd5b506103e47f000000000000000000000000000000000000000000000000000000000000000081565b34801561049a57600080fd5b506101e060015481565b6102476104b23660046118ef565b610c8c565b3480156104c357600080fd5b506101e060095481565b3480156104d957600080fd5b506101e060085481565b6102476104f1366004611922565b610ecf565b6102476105043660046118ef565b610fce565b34801561051557600080fd5b506105696105243660046118ba565b6006602052600090815260409020805460018201546002830154600384015460048501546005909501546001600160a01b039485169593909416939192909160ff1686565b604080516001600160a01b0397881681529690951660208701529385019290925260608401526080830152151560a082015260c0016101ea565b3480156105af57600080fd5b506102476105be3660046118ba565b6111c8565b3480156105cf57600080fd5b506105d86114a6565b6040516101ea9190611944565b6102476115d1565b3480156105f957600080fd5b506102476106083660046119ca565b61173f565b34801561061957600080fd5b506101e06106283660046119ca565b60076020526000908152604090206001015481565b600081815260066020908152604091829020825160c08101845281546001600160a01b03908116825260018301541692810183905260028201549381019390935260038101546060840152600481015460808401526005015460ff16151560a083015233146106bf57604051631f457f0360e31b815260040160405180910390fd5b60a081015115156001036106e657604051631c8b69c160e01b815260040160405180910390fd5b805160408083018051600080865260208087018281526080880183815260608901848152848752600160a08b018181528c87526006909552948890208a5181546001600160a01b03199081166001600160a01b0392831617835594519682018054909516968116969096179093559551600283015594516003820155935160048086019190915590516005909401805460ff19169415159490941790935592516323b872dd60e01b815290928416916323b872dd916107ab91309133918791016119ec565b600060405180830381600087803b1580156107c557600080fd5b505af11580156107d9573d6000803e3d6000fd5b505050507fbb625791aebea9aad62ce564144ea9b77e18f6fce707746bd3b4c308817dc7e28460405161080e91815260200190565b60405180910390a150505050565b600081815260026020526040902060040154421061084d57604051631bb5f5b360e31b815260040160405180910390fd5b60008181526002602081815260409283902083516101008101855281546001600160a01b0390811682526001830154938201939093529281015493830184905260038101546060840152600481015460808401526005810154821660a0840152600681015460c0840152600701541660e0820152903410156108e257604051636093add160e01b815260040160405180910390fd5b8060c00151341161090657604051635e5de9ab60e01b815260040160405180910390fd5b60e08101805160c0830180513384523482526000868152600260208181526040808420895181546001600160a01b03199081166001600160a01b03928316178355938b01516001830155828b01519482019490945560608a0151600382015560808a0151600482015560a08a015160058201805485169186169190911790559551600687015596516007909501805490911694821694909417909355935192939092918416916108fc84150291849190818181858888f193505050501580156109d3573d6000803e3d6000fd5b506040805185815233602082015234918101919091527f7287d291a2b55e77403eabf4100e5fbb50ff9a0a8bf7abacd3eafb40ecc7ded39060600161080e565b610a1b6117b5565b600081815260066020908152604091829020825160c08101845281546001600160a01b039081168252600183015416928101929092526002810154928201929092526003820154606082018190526004830154608083015260059092015460ff16151560a082015290341015610aa4576040516349ead2b560e11b815260040160405180910390fd5b60a08101511515600103610acb57604051631c8b69c160e01b815260040160405180910390fd5b8051604080830180516020808601805160008089528083526080890181815260608a01828152828852600160a08c018181528d85526006909752928990208b5181546001600160a01b03199081166001600160a01b0392831617835596519482018054909716948116949094179095559651600285015595516003840155945160048084019190915592516005909201805460ff19169215159290921790915593516323b872dd60e01b81529193928516916323b872dd91610b9391309133918891016119ec565b600060405180830381600087803b158015610bad57600080fd5b505af1158015610bc1573d6000803e3d6000fd5b50506040516001600160a01b03841692503480156108fc029250906000818181858888f19350505050158015610bfb573d6000803e3d6000fd5b5060408051338152602081018790526001600160a01b038516818301526060810184905234608082015290517f76da1cce06bef514cd31f5ad6eb50d59bdcefca95a2b95387a092ef7306096fb9181900360a00190a150505050610c5f6001600355565b50565b60006001600554610c739190611a26565b905090565b610c8061180e565b610c8a6000611868565b565b7f0000000000000000000000000000000000000000000000000000000000000000341015610ccd57604051637235db3560e11b815260040160405180910390fd5b6040516323b872dd60e01b81526001600160a01b038416906323b872dd90610cfd903390309087906004016119ec565b600060405180830381600087803b158015610d1757600080fd5b505af1158015610d2b573d6000803e3d6000fd5b505060018054925090506000610d4083611a3f565b9091555050600080549080610d5483611a3f565b9190505550604051806101000160405280846001600160a01b031681526020018381526020018281526020014281526020017f000000000000000000000000000000000000000000000000000000000000000042610db29190611a58565b815233602082015260006040820181905260609091018190526001805460029291610ddc91611a26565b81526020808201929092526040908101600020835181546001600160a01b03199081166001600160a01b0392831617835593850151600180840191909155928501516002830155606085015160038301556080850151600483015560a0850151600583018054861691831691909117905560c0850151600683015560e09094015160079091018054909316931692909217905580547f93b4e27b5e643b53968e73c21541cb98e2d928db9d9f11aae963752280b6f15391610e9c91611a26565b604080519182526001600160a01b03861660208301528101849052606081018390526080015b60405180910390a1505050565b600082815260066020908152604091829020825160c08101845281546001600160a01b03908116825260018301541692810183905260028201549381019390935260038101546060840152600481015460808401526005015460ff16151560a08301523314610f5157604051631f457f0360e31b815260040160405180910390fd5b6080810151610f639062278d00611a58565b421015610f8357604051632d50c33b60e01b815260040160405180910390fd5b60008381526006602090815260409182902060030184905581518581529081018490527f3349783a71fc08b9d0b874fe47a3e334eca4f50af634eaf5dbfa6aa95af0d4629101610ec2565b610fd66117b5565b600954341015610ff957604051631e5c2d5d60e11b815260040160405180910390fd5b6001600160a01b0383166110205760405163d92e233d60e01b815260040160405180910390fd5b6040516323b872dd60e01b81526001600160a01b038416906323b872dd90611050903390309087906004016119ec565b600060405180830381600087803b15801561106a57600080fd5b505af115801561107e573d6000803e3d6000fd5b50506040805160c0810182526001600160a01b0380881682523360208084018281528486018a8152606086018a81524260808801908152600060a08901818152600580548352600688528b83209a518b54908b166001600160a01b0319918216178c55965160018c8101805492909c169190981617909955935160028a0155915160038901555160048801559051958501805496151560ff19909716969096179095558285526007825294842092548354808701855584865291852090910155825282018054929450925090611155908490611a58565b90915550506005805490600061116a83611a3f565b9091555050604080516001600160a01b0385168152602081018490529081018290527fee550b79594ed142a06aa552a26eadd430ac70d23d7bec4ba7ae743c85e5ba939060600160405180910390a16111c36001600355565b505050565b336001600160a01b037f000000000000000000000000000000000000000000000000000000000000000016146112595760405162461bcd60e51b815260206004820152602b60248201527f4f6e6c79207468652061756374696f6e6565722063616e20706572666f726d2060448201526a3a3434b99030b1ba34b7b760a91b60648201526084015b60405180910390fd5b60008181526002602052604090206004015442101561128b57604051630a29e34360e41b815260040160405180910390fd5b60008181526002602081815260409283902083516101008101855281546001600160a01b039081168083526001840154948301859052948301549582019590955260038201546060820152600482015460808201526005820154851660a0820152600682015460c0820181905260079092015490941660e0850181905292909190836113635760405162461bcd60e51b815260206004820152602160248201527f4e6f20626964732077657265206d616465206f6e20746869732061756374696f6044820152603760f91b6064820152608401611250565b8460a001516001600160a01b03166108fc849081150290604051600060405180830381858888f193505050501580156113a0573d6000803e3d6000fd5b506040516323b872dd60e01b81526001600160a01b038216906323b872dd906113d1903090889087906004016119ec565b600060405180830381600087803b1580156113eb57600080fd5b505af11580156113ff573d6000803e3d6000fd5b5050506000878152600260208190526040822080546001600160a01b03199081168255600182018490559181018390556003810183905560048101839055600581018054831690556006810183905560070180549091169055805491508061146683611a6b565b90915550506040518681527f176383336d59b304355f3f0a58947d019af92b9982d77fe545c8110ea040f7219060200160405180910390a1505050505050565b6060600060055467ffffffffffffffff8111156114c5576114c5611a82565b60405190808252806020026020018201604052801561152557816020015b6040805160c08101825260008082526020808301829052928201819052606082018190526080820181905260a082015282526000199092019101816114e35790505b50905060005b6005548110156115cb57600081815260066020908152604091829020825160c08101845281546001600160a01b03908116825260018301541692810192909252600281015492820192909252600382015460608201526004820154608082015260059091015460ff16151560a082015282518390839081106115af576115af611a98565b6020026020010181905250806115c490611a3f565b905061152b565b50919050565b6008543410156115f457604051633a6b735d60e21b815260040160405180910390fd5b60405162977dcd60e01b81523360048201527f00000000000000000000000000000000000000000000000000000000000000006001600160a01b03169062977dcd90602401600060405180830381600087803b15801561165357600080fd5b505af1158015611667573d6000803e3d6000fd5b505050507f57c570468540d5e14b67934e6818da98e4d2744163ec822cf0c918fa7e863c583360017f00000000000000000000000000000000000000000000000000000000000000006001600160a01b031663aa46a4006040518163ffffffff1660e01b8152600401602060405180830381865afa1580156116ed573d6000803e3d6000fd5b505050506040513d601f19601f820116820180604052508101906117119190611aae565b61171b9190611a26565b604080516001600160a01b03909316835260208301919091520160405180910390a1565b61174761180e565b6001600160a01b0381166117ac5760405162461bcd60e51b815260206004820152602660248201527f4f776e61626c653a206e6577206f776e657220697320746865207a65726f206160448201526564647265737360d01b6064820152608401611250565b610c5f81611868565b6002600354036118075760405162461bcd60e51b815260206004820152601f60248201527f5265656e7472616e637947756172643a207265656e7472616e742063616c6c006044820152606401611250565b6002600355565b6004546001600160a01b03163314610c8a5760405162461bcd60e51b815260206004820181905260248201527f4f776e61626c653a2063616c6c6572206973206e6f7420746865206f776e65726044820152606401611250565b600480546001600160a01b038381166001600160a01b0319831681179093556040519116919082907f8be0079c531659141344cd1fd0a4f28419497f9722a3daafe3b4186f6b6457e090600090a35050565b6000602082840312156118cc57600080fd5b5035919050565b80356001600160a01b03811681146118ea57600080fd5b919050565b60008060006060848603121561190457600080fd5b61190d846118d3565b95602085013595506040909401359392505050565b6000806040838503121561193557600080fd5b50508035926020909101359150565b602080825282518282018190526000919060409081850190868401855b828110156119bd57815180516001600160a01b0390811686528782015116878601528581015186860152606080820151908601526080808201519086015260a09081015115159085015260c09093019290850190600101611961565b5091979650505050505050565b6000602082840312156119dc57600080fd5b6119e5826118d3565b9392505050565b6001600160a01b039384168152919092166020820152604081019190915260600190565b634e487b7160e01b600052601160045260246000fd5b81810381811115611a3957611a39611a10565b92915050565b600060018201611a5157611a51611a10565b5060010190565b80820180821115611a3957611a39611a10565b600081611a7a57611a7a611a10565b506000190190565b634e487b7160e01b600052604160045260246000fd5b634e487b7160e01b600052603260045260246000fd5b600060208284031215611ac057600080fd5b505191905056fea2646970667358221220c31a06d53a1b5053cd005fdfe7e5886c37a8e70a5a2cdf77bada12978b6d1d6464736f6c6343000811003360a06040523480156200001157600080fd5b5060405162001948380380620019488339810160408190526200003491620000a9565b6040518060400160405280600a8152602001691158dcdd185cde53919560b21b815250604051806040016040528060048152602001631953919560e21b815250816000908162000085919062000180565b50600162000094828262000180565b5050506001600160a01b03166080526200024c565b600060208284031215620000bc57600080fd5b81516001600160a01b0381168114620000d457600080fd5b9392505050565b634e487b7160e01b600052604160045260246000fd5b600181811c908216806200010657607f821691505b6020821081036200012757634e487b7160e01b600052602260045260246000fd5b50919050565b601f8211156200017b57600081815260208120601f850160051c81016020861015620001565750805b601f850160051c820191505b81811015620001775782815560010162000162565b5050505b505050565b81516001600160401b038111156200019c576200019c620000db565b620001b481620001ad8454620000f1565b846200012d565b602080601f831160018114620001ec5760008415620001d35750858301515b600019600386901b1c1916600185901b17855562000177565b600085815260208120601f198616915b828110156200021d57888601518255948401946001909101908401620001fc565b50858210156200023c5787850151600019600388901b60f8161c191681555b5050505050600190811b01905550565b6080516116d96200026f60003960008181610218015261027e01526116d96000f3fe608060405234801561001057600080fd5b50600436106100ff5760003560e01c806370a0823111610097578063abc8c7af11610066578063abc8c7af14610213578063b88d4fde1461023a578063c87b56dd1461024d578063e985e9c51461026057600080fd5b806370a08231146101cd57806395d89b41146101ee578063a22cb465146101f6578063aa46a4001461020957600080fd5b8063095ea7b3116100d3578063095ea7b31461018157806323b872dd1461019457806342842e0e146101a75780636352211e146101ba57600080fd5b8062977dcd1461010457806301ffc9a71461011957806306fdde0314610141578063081812fc14610156575b600080fd5b610117610112366004611121565b610273565b005b61012c610127366004611152565b6102ea565b60405190151581526020015b60405180910390f35b61014961033c565b60405161013891906111bf565b6101696101643660046111d2565b6103ce565b6040516001600160a01b039091168152602001610138565b61011761018f3660046111eb565b6103f5565b6101176101a2366004611215565b61050f565b6101176101b5366004611215565b610540565b6101696101c83660046111d2565b61055b565b6101e06101db366004611121565b6105bb565b604051908152602001610138565b610149610641565b610117610204366004611251565b610650565b6007546101e09081565b6101697f000000000000000000000000000000000000000000000000000000000000000081565b6101176102483660046112a3565b61065b565b61014961025b3660046111d2565b610693565b61012c61026e36600461137f565b6107a3565b336001600160a01b037f000000000000000000000000000000000000000000000000000000000000000016146102a857600080fd5b60006102b360075490565b90506102bf82826107d1565b6102d8816040518060200160405280600081525061096a565b6102e6600780546001019055565b5050565b60006001600160e01b031982166380ac58cd60e01b148061031b57506001600160e01b03198216635b5e139f60e01b145b8061033657506301ffc9a760e01b6001600160e01b03198316145b92915050565b60606000805461034b906113b2565b80601f0160208091040260200160405190810160405280929190818152602001828054610377906113b2565b80156103c45780601f10610399576101008083540402835291602001916103c4565b820191906000526020600020905b8154815290600101906020018083116103a757829003601f168201915b5050505050905090565b60006103d9826109fd565b506000908152600460205260409020546001600160a01b031690565b60006104008261055b565b9050806001600160a01b0316836001600160a01b0316036104725760405162461bcd60e51b815260206004820152602160248201527f4552433732313a20617070726f76616c20746f2063757272656e74206f776e656044820152603960f91b60648201526084015b60405180910390fd5b336001600160a01b038216148061048e575061048e81336107a3565b6105005760405162461bcd60e51b815260206004820152603d60248201527f4552433732313a20617070726f76652063616c6c6572206973206e6f7420746f60448201527f6b656e206f776e6572206f7220617070726f76656420666f7220616c6c0000006064820152608401610469565b61050a8383610a5f565b505050565b6105193382610acd565b6105355760405162461bcd60e51b8152600401610469906113ec565b61050a838383610b2b565b61050a8383836040518060200160405280600081525061065b565b6000818152600260205260408120546001600160a01b0316806103365760405162461bcd60e51b8152602060048201526018602482015277115490cdcc8c4e881a5b9d985b1a59081d1bdad95b88125160421b6044820152606401610469565b60006001600160a01b0382166106255760405162461bcd60e51b815260206004820152602960248201527f4552433732313a2061646472657373207a65726f206973206e6f7420612076616044820152683634b21037bbb732b960b91b6064820152608401610469565b506001600160a01b031660009081526003602052604090205490565b60606001805461034b906113b2565b6102e6338383610c9c565b6106653383610acd565b6106815760405162461bcd60e51b8152600401610469906113ec565b61068d84848484610d6a565b50505050565b606061069e826109fd565b600082815260066020526040812080546106b7906113b2565b80601f01602080910402602001604051908101604052809291908181526020018280546106e3906113b2565b80156107305780601f1061070557610100808354040283529160200191610730565b820191906000526020600020905b81548152906001019060200180831161071357829003601f168201915b50505050509050600061074e60408051602081019091526000815290565b90508051600003610760575092915050565b81511561079257808260405160200161077a929190611439565b60405160208183030381529060405292505050919050565b61079b84610d9d565b949350505050565b6001600160a01b03918216600090815260056020908152604080832093909416825291909152205460ff1690565b6001600160a01b0382166108275760405162461bcd60e51b815260206004820181905260248201527f4552433732313a206d696e7420746f20746865207a65726f20616464726573736044820152606401610469565b6000818152600260205260409020546001600160a01b03161561088c5760405162461bcd60e51b815260206004820152601c60248201527f4552433732313a20746f6b656e20616c7265616479206d696e746564000000006044820152606401610469565b61089a600083836001610e11565b6000818152600260205260409020546001600160a01b0316156108ff5760405162461bcd60e51b815260206004820152601c60248201527f4552433732313a20746f6b656e20616c7265616479206d696e746564000000006044820152606401610469565b6001600160a01b038216600081815260036020908152604080832080546001019055848352600290915280822080546001600160a01b0319168417905551839291907fddf252ad1be2c89b69c2b068fc378daa952ba7f163c4a11628f55a4df523b3ef908290a45050565b6000828152600260205260409020546001600160a01b03166109e55760405162461bcd60e51b815260206004820152602e60248201527f45524337323155524953746f726167653a2055524920736574206f66206e6f6e60448201526d32bc34b9ba32b73a103a37b5b2b760911b6064820152608401610469565b600082815260066020526040902061050a82826114b6565b6000818152600260205260409020546001600160a01b0316610a5c5760405162461bcd60e51b8152602060048201526018602482015277115490cdcc8c4e881a5b9d985b1a59081d1bdad95b88125160421b6044820152606401610469565b50565b600081815260046020526040902080546001600160a01b0319166001600160a01b0384169081179091558190610a948261055b565b6001600160a01b03167f8c5be1e5ebec7d5bd14f71427d1e84f3dd0314c0f7b2291e5b200ac8c7c3b92560405160405180910390a45050565b600080610ad98361055b565b9050806001600160a01b0316846001600160a01b03161480610b005750610b0081856107a3565b8061079b5750836001600160a01b0316610b19846103ce565b6001600160a01b031614949350505050565b826001600160a01b0316610b3e8261055b565b6001600160a01b031614610b645760405162461bcd60e51b815260040161046990611576565b6001600160a01b038216610bc65760405162461bcd60e51b8152602060048201526024808201527f4552433732313a207472616e7366657220746f20746865207a65726f206164646044820152637265737360e01b6064820152608401610469565b610bd38383836001610e11565b826001600160a01b0316610be68261055b565b6001600160a01b031614610c0c5760405162461bcd60e51b815260040161046990611576565b600081815260046020908152604080832080546001600160a01b03199081169091556001600160a01b0387811680865260038552838620805460001901905590871680865283862080546001019055868652600290945282852080549092168417909155905184937fddf252ad1be2c89b69c2b068fc378daa952ba7f163c4a11628f55a4df523b3ef91a4505050565b816001600160a01b0316836001600160a01b031603610cfd5760405162461bcd60e51b815260206004820152601960248201527f4552433732313a20617070726f766520746f2063616c6c6572000000000000006044820152606401610469565b6001600160a01b03838116600081815260056020908152604080832094871680845294825291829020805460ff191686151590811790915591519182527f17307eab39ab6107e8899845ad3d59bd9653f200f220920489ca2b5937696c31910160405180910390a3505050565b610d75848484610b2b565b610d8184848484610e99565b61068d5760405162461bcd60e51b8152600401610469906115bb565b6060610da8826109fd565b6000610dbf60408051602081019091526000815290565b90506000815111610ddf5760405180602001604052806000815250610e0a565b80610de984610f9a565b604051602001610dfa929190611439565b6040516020818303038152906040525b9392505050565b600181111561068d576001600160a01b03841615610e57576001600160a01b03841660009081526003602052604081208054839290610e51908490611623565b90915550505b6001600160a01b0383161561068d576001600160a01b03831660009081526003602052604081208054839290610e8e908490611636565b909155505050505050565b60006001600160a01b0384163b15610f8f57604051630a85bd0160e11b81526001600160a01b0385169063150b7a0290610edd903390899088908890600401611649565b6020604051808303816000875af1925050508015610f18575060408051601f3d908101601f19168201909252610f1591810190611686565b60015b610f75573d808015610f46576040519150601f19603f3d011682016040523d82523d6000602084013e610f4b565b606091505b508051600003610f6d5760405162461bcd60e51b8152600401610469906115bb565b805181602001fd5b6001600160e01b031916630a85bd0160e11b14905061079b565b506001949350505050565b60606000610fa78361102d565b600101905060008167ffffffffffffffff811115610fc757610fc761128d565b6040519080825280601f01601f191660200182016040528015610ff1576020820181803683370190505b5090508181016020015b600019016f181899199a1a9b1b9c1cb0b131b232b360811b600a86061a8153600a8504945084610ffb57509392505050565b60008072184f03e93ff9f4daa797ed6e38ed64bf6a1f0160401b831061106c5772184f03e93ff9f4daa797ed6e38ed64bf6a1f0160401b830492506040015b6d04ee2d6d415b85acef81000000008310611098576d04ee2d6d415b85acef8100000000830492506020015b662386f26fc1000083106110b657662386f26fc10000830492506010015b6305f5e10083106110ce576305f5e100830492506008015b61271083106110e257612710830492506004015b606483106110f4576064830492506002015b600a83106103365760010192915050565b80356001600160a01b038116811461111c57600080fd5b919050565b60006020828403121561113357600080fd5b610e0a82611105565b6001600160e01b031981168114610a5c57600080fd5b60006020828403121561116457600080fd5b8135610e0a8161113c565b60005b8381101561118a578181015183820152602001611172565b50506000910152565b600081518084526111ab81602086016020860161116f565b601f01601f19169290920160200192915050565b602081526000610e0a6020830184611193565b6000602082840312156111e457600080fd5b5035919050565b600080604083850312156111fe57600080fd5b61120783611105565b946020939093013593505050565b60008060006060848603121561122a57600080fd5b61123384611105565b925061124160208501611105565b9150604084013590509250925092565b6000806040838503121561126457600080fd5b61126d83611105565b91506020830135801515811461128257600080fd5b809150509250929050565b634e487b7160e01b600052604160045260246000fd5b600080600080608085870312156112b957600080fd5b6112c285611105565b93506112d060208601611105565b925060408501359150606085013567ffffffffffffffff808211156112f457600080fd5b818701915087601f83011261130857600080fd5b81358181111561131a5761131a61128d565b604051601f8201601f19908116603f011681019083821181831017156113425761134261128d565b816040528281528a602084870101111561135b57600080fd5b82602086016020830137600060208483010152809550505050505092959194509250565b6000806040838503121561139257600080fd5b61139b83611105565b91506113a960208401611105565b90509250929050565b600181811c908216806113c657607f821691505b6020821081036113e657634e487b7160e01b600052602260045260246000fd5b50919050565b6020808252602d908201527f4552433732313a2063616c6c6572206973206e6f7420746f6b656e206f776e6560408201526c1c881bdc88185c1c1c9bdd9959609a1b606082015260800190565b6000835161144b81846020880161116f565b83519083019061145f81836020880161116f565b01949350505050565b601f82111561050a57600081815260208120601f850160051c8101602086101561148f5750805b601f850160051c820191505b818110156114ae5782815560010161149b565b505050505050565b815167ffffffffffffffff8111156114d0576114d061128d565b6114e4816114de84546113b2565b84611468565b602080601f83116001811461151957600084156115015750858301515b600019600386901b1c1916600185901b1785556114ae565b600085815260208120601f198616915b8281101561154857888601518255948401946001909101908401611529565b50858210156115665787850151600019600388901b60f8161c191681555b5050505050600190811b01905550565b60208082526025908201527f4552433732313a207472616e736665722066726f6d20696e636f72726563742060408201526437bbb732b960d91b606082015260800190565b60208082526032908201527f4552433732313a207472616e7366657220746f206e6f6e20455243373231526560408201527131b2b4bb32b91034b6b83632b6b2b73a32b960711b606082015260800190565b634e487b7160e01b600052601160045260246000fd5b818103818111156103365761033661160d565b808201808211156103365761033661160d565b6001600160a01b038581168252841660208201526040810183905260806060820181905260009061167c90830184611193565b9695505050505050565b60006020828403121561169857600080fd5b8151610e0a8161113c56fea264697066735822122068399b18c779bf7fffb1dd0999402549a1bf379159c19d07dbeb510e78d1d10064736f6c63430008110033",
    "linkReferences": {}
  },
  "methodIdentifiers": {
    "auctionCounter()": "a7e76644",
    "auctionDuration()": "0cbf54c8",
    "auctionFee()": "14525b6b",
    "auctioneer()": "5ec2c7bf",
    "auctions(uint256)": "571a26a0",
    "bid(uint256)": "454a2ab3",
    "buyNFT(uint256)": "51ed8288",
    "cancelListing(uint256)": "305a67a8",
    "claimMyFunds(uint256)": "df88ea1a",
    "createAuction(address,uint256,uint256)": "abb94051",
    "getAllNFTs()": "e0391b09",
    "getLastBid(uint256)": "30b6208a",
    "isOpen(uint256)": "4d6861a6",
    "listMyNFTforSale(address,uint256,uint256)": "d09b1985",
    "listedNFTCount()": "421d5400",
    "listing_fee()": "b980777a",
    "listings(uint256)": "de74e57b",
    "mintEcstasy()": "e8603bd6",
    "minting_fee()": "c3355b8d",
    "myListings(address)": "fba8805c",
    "nativeNFT()": "8f38ed10",
    "numberOfActiveAuctions()": "7dafaa08",
    "numberOfNftsListed()": "64dd6595",
    "owner()": "8da5cb5b",
    "renounceOwnership()": "715018a6",
    "transferOwnership(address)": "f2fde38b",
    "updateListingPrice(uint256,uint256)": "c4604943"
  },
  "id": 29
}