{
  "abi": [
    {
      "inputs": [
        {
          "internalType": "uint256",
          "name": "_minting_fee",
          "type": "uint256"
        },
        {
          "internalType": "uint256",
          "name": "_auctionFee",
          "type": "uint256"
        },
        {
          "internalType": "uint256",
          "name": "_auctionDuration",
          "type": "uint256"
        }
      ],
      "stateMutability": "nonpayable",
      "type": "constructor"
    },
    {
      "anonymous": false,
      "inputs": [
        {
          "indexed": true,
          "internalType": "address",
          "name": "previousOwner",
          "type": "address"
        },
        {
          "indexed": true,
          "internalType": "address",
          "name": "newOwner",
          "type": "address"
        }
      ],
      "name": "OwnershipTransferred",
      "type": "event"
    },
    {
      "inputs": [],
      "name": "auctionCounter",
      "outputs": [
        {
          "internalType": "uint256",
          "name": "",
          "type": "uint256"
        }
      ],
      "stateMutability": "view",
      "type": "function"
    },
    {
      "inputs": [],
      "name": "auctionDuration",
      "outputs": [
        {
          "internalType": "uint256",
          "name": "",
          "type": "uint256"
        }
      ],
      "stateMutability": "view",
      "type": "function"
    },
    {
      "inputs": [],
      "name": "auctionFee",
      "outputs": [
        {
          "internalType": "uint256",
          "name": "",
          "type": "uint256"
        }
      ],
      "stateMutability": "view",
      "type": "function"
    },
    {
      "inputs": [
        {
          "internalType": "uint256",
          "name": "",
          "type": "uint256"
        }
      ],
      "name": "auctions",
      "outputs": [
        {
          "internalType": "address",
          "name": "nftAddress",
          "type": "address"
        },
        {
          "internalType": "uint256",
          "name": "tokenId",
          "type": "uint256"
        },
        {
          "internalType": "uint256",
          "name": "minimumStake",
          "type": "uint256"
        },
        {
          "internalType": "uint256",
          "name": "startTime",
          "type": "uint256"
        },
        {
          "internalType": "uint256",
          "name": "endTime",
          "type": "uint256"
        },
        {
          "internalType": "address",
          "name": "listor",
          "type": "address"
        },
        {
          "internalType": "uint256",
          "name": "lastBid",
          "type": "uint256"
        },
        {
          "internalType": "address",
          "name": "lastBidder",
          "type": "address"
        }
      ],
      "stateMutability": "view",
      "type": "function"
    },
    {
      "inputs": [
        {
          "internalType": "uint256",
          "name": "uniqueId",
          "type": "uint256"
        }
      ],
      "name": "bid",
      "outputs": [],
      "stateMutability": "payable",
      "type": "function"
    },
    {
      "inputs": [
        {
          "internalType": "uint256",
          "name": "listingID",
          "type": "uint256"
        }
      ],
      "name": "buyNFT_Single",
      "outputs": [],
      "stateMutability": "payable",
      "type": "function"
    },
    {
      "inputs": [
        {
          "internalType": "uint256",
          "name": "listingId",
          "type": "uint256"
        }
      ],
      "name": "cancelListing",
      "outputs": [],
      "stateMutability": "nonpayable",
      "type": "function"
    },
    {
      "inputs": [
        {
          "internalType": "uint256",
          "name": "uniqueId",
          "type": "uint256"
        }
      ],
      "name": "claimMyFunds",
      "outputs": [],
      "stateMutability": "nonpayable",
      "type": "function"
    },
    {
      "inputs": [
        {
          "internalType": "address",
          "name": "nftAddress",
          "type": "address"
        },
        {
          "internalType": "uint256",
          "name": "tokenId",
          "type": "uint256"
        },
        {
          "internalType": "uint256",
          "name": "minimumStake",
          "type": "uint256"
        }
      ],
      "name": "createAuction",
      "outputs": [],
      "stateMutability": "payable",
      "type": "function"
    },
    {
      "inputs": [],
      "name": "getAllNFTs",
      "outputs": [
        {
          "components": [
            {
              "internalType": "address",
              "name": "NFTAddress",
              "type": "address"
            },
            {
              "internalType": "address",
              "name": "listor",
              "type": "address"
            },
            {
              "internalType": "uint256",
              "name": "tokenID",
              "type": "uint256"
            },
            {
              "internalType": "uint256",
              "name": "listingPrice",
              "type": "uint256"
            },
            {
              "internalType": "uint256",
              "name": "timestamp",
              "type": "uint256"
            }
          ],
          "internalType": "struct EcstasyMKT.listedNFT[]",
          "name": "",
          "type": "tuple[]"
        }
      ],
      "stateMutability": "view",
      "type": "function"
    },
    {
      "inputs": [
        {
          "internalType": "uint256",
          "name": "uniqueId",
          "type": "uint256"
        }
      ],
      "name": "getLastBid",
      "outputs": [
        {
          "internalType": "uint256",
          "name": "",
          "type": "uint256"
        }
      ],
      "stateMutability": "view",
      "type": "function"
    },
    {
      "inputs": [],
      "name": "getLatestPrice",
      "outputs": [
        {
          "internalType": "int256",
          "name": "",
          "type": "int256"
        }
      ],
      "stateMutability": "view",
      "type": "function"
    },
    {
      "inputs": [
        {
          "internalType": "uint256",
          "name": "uniqueId",
          "type": "uint256"
        }
      ],
      "name": "isOpen",
      "outputs": [
        {
          "internalType": "bool",
          "name": "",
          "type": "bool"
        }
      ],
      "stateMutability": "view",
      "type": "function"
    },
    {
      "inputs": [
        {
          "internalType": "address",
          "name": "_tokenAddress",
          "type": "address"
        },
        {
          "internalType": "uint256",
          "name": "tokenId",
          "type": "uint256"
        },
        {
          "internalType": "uint256",
          "name": "listingPrice_in_MATIC",
          "type": "uint256"
        }
      ],
      "name": "listMyNFTforSale",
      "outputs": [],
      "stateMutability": "payable",
      "type": "function"
    },
    {
      "inputs": [],
      "name": "listedNFTCount",
      "outputs": [
        {
          "internalType": "uint256",
          "name": "",
          "type": "uint256"
        }
      ],
      "stateMutability": "view",
      "type": "function"
    },
    {
      "inputs": [
        {
          "internalType": "uint256",
          "name": "",
          "type": "uint256"
        }
      ],
      "name": "listings",
      "outputs": [
        {
          "internalType": "address",
          "name": "NFTAddress",
          "type": "address"
        },
        {
          "internalType": "address",
          "name": "listor",
          "type": "address"
        },
        {
          "internalType": "uint256",
          "name": "tokenID",
          "type": "uint256"
        },
        {
          "internalType": "uint256",
          "name": "listingPrice",
          "type": "uint256"
        },
        {
          "internalType": "uint256",
          "name": "timestamp",
          "type": "uint256"
        }
      ],
      "stateMutability": "view",
      "type": "function"
    },
    {
      "inputs": [],
      "name": "mintEcstasy",
      "outputs": [],
      "stateMutability": "payable",
      "type": "function"
    },
    {
      "inputs": [],
      "name": "minting_fee",
      "outputs": [
        {
          "internalType": "uint256",
          "name": "",
          "type": "uint256"
        }
      ],
      "stateMutability": "view",
      "type": "function"
    },
    {
      "inputs": [
        {
          "internalType": "address",
          "name": "",
          "type": "address"
        }
      ],
      "name": "myListings",
      "outputs": [
        {
          "internalType": "uint256",
          "name": "total",
          "type": "uint256"
        }
      ],
      "stateMutability": "view",
      "type": "function"
    },
    {
      "inputs": [],
      "name": "nativeNFT",
      "outputs": [
        {
          "internalType": "contract EcstasyNFT",
          "name": "",
          "type": "address"
        }
      ],
      "stateMutability": "view",
      "type": "function"
    },
    {
      "inputs": [],
      "name": "numberOfActiveAuctions",
      "outputs": [
        {
          "internalType": "uint256",
          "name": "",
          "type": "uint256"
        }
      ],
      "stateMutability": "view",
      "type": "function"
    },
    {
      "inputs": [],
      "name": "numberOfNftsSold",
      "outputs": [
        {
          "internalType": "uint256",
          "name": "",
          "type": "uint256"
        }
      ],
      "stateMutability": "view",
      "type": "function"
    },
    {
      "inputs": [],
      "name": "owner",
      "outputs": [
        {
          "internalType": "address",
          "name": "",
          "type": "address"
        }
      ],
      "stateMutability": "view",
      "type": "function"
    },
    {
      "inputs": [],
      "name": "renounceOwnership",
      "outputs": [],
      "stateMutability": "nonpayable",
      "type": "function"
    },
    {
      "inputs": [
        {
          "internalType": "address",
          "name": "newOwner",
          "type": "address"
        }
      ],
      "name": "transferOwnership",
      "outputs": [],
      "stateMutability": "nonpayable",
      "type": "function"
    },
    {
      "inputs": [
        {
          "internalType": "uint256",
          "name": "listedTokenID",
          "type": "uint256"
        },
        {
          "internalType": "uint256",
          "name": "listingPrice_in_MATIC",
          "type": "uint256"
        }
      ],
      "name": "updateListingPrice",
      "outputs": [],
      "stateMutability": "payable",
      "type": "function"
    },
    {
      "stateMutability": "payable",
      "type": "receive"
    }
  ],
  "bytecode": {
    "object": "0x608060405260006002556000600355600160095567016345785d8a0000600d553480156200002c57600080fd5b5060405162003246380380620032468339810160408190526200004f9162000268565b8181811580156200005e575080155b156200009e5760405162461bcd60e51b815260206004820152600a60248201526916995c9bc8125b9c1d5d60b21b60448201526064015b60405180910390fd5b67016345785d8a0000821015620000f85760405162461bcd60e51b815260206004820152601360248201527f496e76616c69642061756374696f6e2066656500000000000000000000000000604482015260640162000095565b60009190915560019081556005556200011133620001a9565b600880546001600160a01b03191673ab594600376ec9fd91f8e885dadf0ce036862de0179055604051309062000147906200025a565b6001600160a01b039091168152602001604051809103906000f08015801562000174573d6000803e3d6000fd5b50600780546001600160a01b0319166001600160a01b0392909216919091179055620001a083620001fb565b50505062000297565b600680546001600160a01b038381166001600160a01b0319831681179093556040519116919082907f8be0079c531659141344cd1fd0a4f28419497f9722a3daafe3b4186f6b6457e090600090a35050565b67016345785d8a0000811015620002555760405162461bcd60e51b815260206004820152601360248201527f496e76616c6964204d696e74696e672046656500000000000000000000000000604482015260640162000095565b600c55565b6118e5806200196183390190565b6000806000606084860312156200027e57600080fd5b8351925060208401519150604084015190509250925092565b6116ba80620002a76000396000f3fe6080604052600436106101855760003560e01c80638e15f473116100d1578063d09b19851161008a578063e0391b0911610064578063e0391b091461050d578063e8603bd61461052f578063f2fde38b14610537578063fba8805c1461055757600080fd5b8063d09b198514610451578063de74e57b14610464578063df88ea1a146104ed57600080fd5b80638e15f473146103ca5780638f38ed10146103df578063a7e76644146103ff578063abb9405114610415578063c3355b8d14610428578063c46049431461043e57600080fd5b80634ad8a0a01161013e5780635a5f8d41116101185780635a5f8d411461035a578063715018a61461036d5780637dafaa08146103825780638da5cb5b1461039857600080fd5b80634ad8a0a01461024b5780634d6861a614610260578063571a26a0146102a357600080fd5b80630cbf54c81461019157806314525b6b146101ba578063305a67a8146101d057806330b6208a146101f2578063421d540014610222578063454a2ab31461023857600080fd5b3661018c57005b600080fd5b34801561019d57600080fd5b506101a760015481565b6040519081526020015b60405180910390f35b3480156101c657600080fd5b506101a760005481565b3480156101dc57600080fd5b506101f06101eb36600461142d565b610587565b005b3480156101fe57600080fd5b506101a761020d36600461142d565b60009081526004602052604090206006015490565b34801561022e57600080fd5b506101a760095481565b6101f061024636600461142d565b610645565b34801561025757600080fd5b506009546101a7565b34801561026c57600080fd5b5061029361027b36600461142d565b60009081526004602081905260409091200154421090565b60405190151581526020016101b1565b3480156102af57600080fd5b5061030e6102be36600461142d565b6004602081905260009182526040909120805460018201546002830154600384015494840154600585015460068601546007909601546001600160a01b0395861697949693959293918316921688565b604080516001600160a01b03998a168152602081019890985287019590955260608601939093526080850191909152841660a084015260c083015290911660e0820152610100016101b1565b6101f061036836600461142d565b6107d3565b34801561037957600080fd5b506101f0610993565b34801561038e57600080fd5b506101a760025481565b3480156103a457600080fd5b506006546001600160a01b03165b6040516001600160a01b0390911681526020016101b1565b3480156103d657600080fd5b506101a76109a7565b3480156103eb57600080fd5b506007546103b2906001600160a01b031681565b34801561040b57600080fd5b506101a760035481565b6101f0610423366004611462565b610a3d565b34801561043457600080fd5b506101a7600c5481565b6101f061044c366004611495565b610c08565b6101f061045f366004611462565b610d4d565b34801561047057600080fd5b506104ba61047f36600461142d565b600a60205260009081526040902080546001820154600283015460038401546004909401546001600160a01b03938416949390921692909185565b604080516001600160a01b039687168152959094166020860152928401919091526060830152608082015260a0016101b1565b3480156104f957600080fd5b506101f061050836600461142d565b610eea565b34801561051957600080fd5b506105226110c3565b6040516101b191906114b7565b6101f06111f6565b34801561054357600080fd5b506101f0610552366004611531565b6112b2565b34801561056357600080fd5b506101a7610572366004611531565b600b6020526000908152604090206001015481565b6000818152600a60205260409020600101546001600160a01b031633146106085760405162461bcd60e51b815260206004820152602a60248201527f4552523a20596f75206469646e277420746865204e46542c20796f752063616e6044820152691b9bdd0818d85b98d95b60b21b60648201526084015b60405180910390fd5b6000908152600a6020526040812080546001600160a01b031990811682556001820180549091169055600481018290556003810182905560020155565b60008181526004602081905260409091200154421061069a5760405162461bcd60e51b8152602060048201526011602482015270105d58dd1a5bdb881a5cc818db1bdcd959607a1b60448201526064016105ff565b6000818152600460205260409020600201543410156106fb5760405162461bcd60e51b815260206004820152601f60248201527f426964206d757374206d65657420746865206d696e696d756d207374616b650060448201526064016105ff565b60008181526004602052604090206006015434116107675760405162461bcd60e51b8152602060048201526024808201527f426964206d75737420626520686967686572207468616e20746865206c61737460448201526308189a5960e21b60648201526084016105ff565b600081815260046020526040808220600781018054600690920180546001600160a01b03198416331790925534905591516001600160a01b0390911692839183156108fc0291849190818181858888f193505050501580156107cd573d6000803e3d6000fd5b50505050565b6107db611328565b6000818152600a6020908152604091829020825160a08101845281546001600160a01b039081168252600183015416928101929092526002810154928201929092526003820154606082018190526004909201546080820152903410156108935760405162461bcd60e51b815260206004820152602660248201527f4552523a20596f75206469646e27742070617920656e6f75676820666f7220746044820152651a194813919560d21b60648201526084016105ff565b80516040808301516020808501516000878152600a90925283822080546001600160a01b03199081168255600182018054909116905560048082018490556003820184905560029091019290925592516323b872dd60e01b81523091810191909152336024820152604481018290529091906001600160a01b038416906323b872dd90606401600060405180830381600087803b15801561093357600080fd5b505af1158015610947573d6000803e3d6000fd5b50506040516001600160a01b03841692503480156108fc029250906000818181858888f19350505050158015610981573d6000803e3d6000fd5b50505050506109906001600555565b50565b61099b611381565b6109a560006113db565b565b600080600860009054906101000a90046001600160a01b03166001600160a01b031663feaf968c6040518163ffffffff1660e01b815260040160a060405180830381865afa1580156109fd573d6000803e3d6000fd5b505050506040513d601f19601f82011682018060405250810190610a21919061156d565b5050509150506305f5e10081610a3791906115d3565b91505090565b600054341015610a8f5760405162461bcd60e51b815260206004820152601860248201527f4552523a2041554354494f4e20464545204e4f54204d4554000000000000000060448201526064016105ff565b6040516323b872dd60e01b8152336004820152306024820152604481018390526001600160a01b038416906323b872dd90606401600060405180830381600087803b158015610add57600080fd5b505af1158015610af1573d6000803e3d6000fd5b505060038054925090506000610b068361160f565b909155505060028054906000610b1b8361160f565b9190505550604051806101000160405280846001600160a01b0316815260200183815260200182815260200142815260200160015442610b5b9190611628565b815233602080830191909152600060408084018290526060938401829052600380548352600480855292829020865181546001600160a01b039182166001600160a01b0319918216178355958801516001830155928701516002820155948601519085015560808501519184019190915560a084015160058401805491831691841691909117905560c0840151600684015560e09093015160079092018054929093169116179055505050565b6000828152600a6020908152604091829020825160a08101845281546001600160a01b039081168252600183015416928101839052600282015493810193909352600381015460608401526004015460808301523314610cc75760405162461bcd60e51b815260206004820152603460248201527f4552523a20596f75206469646e2774206c6973742069742c20796f752063616e6044820152736e6f74207570646174652069747320707269636560601b60648201526084016105ff565b6080810151610cd99062278d00611628565b421015610d375760405162461bcd60e51b815260206004820152602660248201527f4552523a204c697374696e672074696d65206973206c657373207468616e203360448201526530206461797360d01b60648201526084016105ff565b506000918252600a602052604090912060030155565b610d55611328565b600d54341015610da05760405162461bcd60e51b815260206004820152601660248201527522a9291d1026b4b73a34b733afb332b29022b93937b960511b60448201526064016105ff565b6040516323b872dd60e01b8152336004820152306024820152604481018390526001600160a01b038416906323b872dd90606401600060405180830381600087803b158015610dee57600080fd5b505af1158015610e02573d6000803e3d6000fd5b50506040805160a0810182526001600160a01b0380881682523360208084018281528486018a8152606086018a81524260808801908152600980546000908152600a87528a812099518a54908a166001600160a01b0319918216178b5595516001808c01805492909b169190971617909855925160028901559051600388015551600490960195909555828452600b82529483209354845480870186558585529184209091015581529082018054929450925090610ec1908490611628565b909155505060098054906000610ed68361160f565b9190505550610ee56001600555565b505050565b333014610f4d5760405162461bcd60e51b815260206004820152602b60248201527f4f6e6c79207468652061756374696f6e6565722063616e20706572666f726d2060448201526a3a3434b99030b1ba34b7b760a91b60648201526084016105ff565b60008181526004602081905260409091200154421015610fa75760405162461bcd60e51b815260206004820152601560248201527420bab1ba34b7b71034b99039ba34b6361037b832b760591b60448201526064016105ff565b600081815260046020526040902060078101546006909101546001600160a01b0390911690816110235760405162461bcd60e51b815260206004820152602160248201527f4e6f20626964732077657265206d616465206f6e20746869732061756374696f6044820152603760f91b60648201526084016105ff565b6040513090819083156108fc029084906000818181858888f19350505050158015611052573d6000803e3d6000fd5b506000848152600460208190526040822080546001600160a01b031990811682556001820184905560028083018590556003830185905592820184905560058201805482169055600682018490556007909101805490911690558054916110b883611641565b919050555050505050565b6060600060095467ffffffffffffffff8111156110e2576110e2611658565b60405190808252806020026020018201604052801561115757816020015b6111446040518060a0016040528060006001600160a01b0316815260200160006001600160a01b031681526020016000815260200160008152602001600081525090565b8152602001906001900390816111005790505b50905060005b6009548110156111f0576000818152600a6020908152604091829020825160a08101845281546001600160a01b0390811682526001830154169281019290925260028101549282019290925260038201546060820152600490910154608082015282518390839081106111d2576111d261166e565b602002602001018190525080806111e89061160f565b91505061115d565b50919050565b600c5434101561125b5760405162461bcd60e51b815260206004820152602a60248201527f4552523a20506c656173652070617920656e6f75676820666f7220746865204560448201526918dcdd185cde4813919560b21b60648201526084016105ff565b60075460405162977dcd60e01b81523360048201526001600160a01b039091169062977dcd90602401600060405180830381600087803b15801561129e57600080fd5b505af11580156107cd573d6000803e3d6000fd5b6112ba611381565b6001600160a01b03811661131f5760405162461bcd60e51b815260206004820152602660248201527f4f776e61626c653a206e6577206f776e657220697320746865207a65726f206160448201526564647265737360d01b60648201526084016105ff565b610990816113db565b60026005540361137a5760405162461bcd60e51b815260206004820152601f60248201527f5265656e7472616e637947756172643a207265656e7472616e742063616c6c0060448201526064016105ff565b6002600555565b6006546001600160a01b031633146109a55760405162461bcd60e51b815260206004820181905260248201527f4f776e61626c653a2063616c6c6572206973206e6f7420746865206f776e657260448201526064016105ff565b600680546001600160a01b038381166001600160a01b0319831681179093556040519116919082907f8be0079c531659141344cd1fd0a4f28419497f9722a3daafe3b4186f6b6457e090600090a35050565b60006020828403121561143f57600080fd5b5035919050565b80356001600160a01b038116811461145d57600080fd5b919050565b60008060006060848603121561147757600080fd5b61148084611446565b95602085013595506040909401359392505050565b600080604083850312156114a857600080fd5b50508035926020909101359150565b602080825282518282018190526000919060409081850190868401855b8281101561152457815180516001600160a01b0390811686528782015116878601528581015186860152606080820151908601526080908101519085015260a090930192908501906001016114d4565b5091979650505050505050565b60006020828403121561154357600080fd5b61154c82611446565b9392505050565b805169ffffffffffffffffffff8116811461145d57600080fd5b600080600080600060a0868803121561158557600080fd5b61158e86611553565b94506020860151935060408601519250606086015191506115b160808701611553565b90509295509295909350565b634e487b7160e01b600052601160045260246000fd5b6000826115f057634e487b7160e01b600052601260045260246000fd5b600160ff1b82146000198414161561160a5761160a6115bd565b500590565b600060018201611621576116216115bd565b5060010190565b8082018082111561163b5761163b6115bd565b92915050565b600081611650576116506115bd565b506000190190565b634e487b7160e01b600052604160045260246000fd5b634e487b7160e01b600052603260045260246000fdfea2646970667358221220966bc1aa067cfda9cd5eb68b7fe5c536fea9d4e95a6a8fe43c550b7bf4c4f2a464736f6c6343000811003360806040523480156200001157600080fd5b50604051620018e5380380620018e58339810160408190526200003491620000be565b6040518060400160405280600a8152602001691150dcdd185cde53919560b21b815250604051806040016040528060048152602001631953919560e21b815250816000908162000085919062000195565b50600162000094828262000195565b5050600880546001600160a01b0319166001600160a01b0393909316929092179091555062000261565b600060208284031215620000d157600080fd5b81516001600160a01b0381168114620000e957600080fd5b9392505050565b634e487b7160e01b600052604160045260246000fd5b600181811c908216806200011b57607f821691505b6020821081036200013c57634e487b7160e01b600052602260045260246000fd5b50919050565b601f8211156200019057600081815260208120601f850160051c810160208610156200016b5750805b601f850160051c820191505b818110156200018c5782815560010162000177565b5050505b505050565b81516001600160401b03811115620001b157620001b1620000f0565b620001c981620001c2845462000106565b8462000142565b602080601f831160018114620002015760008415620001e85750858301515b600019600386901b1c1916600185901b1785556200018c565b600085815260208120601f198616915b82811015620002325788860151825594840194600190910190840162000211565b5085821015620002515787850151600019600388901b60f8161c191681555b5050505050600190811b01905550565b61167480620002716000396000f3fe608060405234801561001057600080fd5b50600436106100e95760003560e01c80636352211e1161008c578063a22cb46511610066578063a22cb465146101e0578063b88d4fde146101f3578063c87b56dd14610206578063e985e9c51461021957600080fd5b80636352211e146101a457806370a08231146101b757806395d89b41146101d857600080fd5b8063081812fc116100c8578063081812fc14610140578063095ea7b31461016b57806323b872dd1461017e57806342842e0e1461019157600080fd5b8062977dcd146100ee57806301ffc9a71461010357806306fdde031461012b575b600080fd5b6101016100fc3660046110bc565b61022c565b005b6101166101113660046110ed565b610285565b60405190151581526020015b60405180910390f35b6101336102d7565b604051610122919061115a565b61015361014e36600461116d565b610369565b6040516001600160a01b039091168152602001610122565b610101610179366004611186565b610390565b61010161018c3660046111b0565b6104aa565b61010161019f3660046111b0565b6104db565b6101536101b236600461116d565b6104f6565b6101ca6101c53660046110bc565b610556565b604051908152602001610122565b6101336105dc565b6101016101ee3660046111ec565b6105eb565b61010161020136600461123e565b6105f6565b61013361021436600461116d565b61062e565b61011661022736600461131a565b61073e565b6008546001600160a01b0316331461024357600080fd5b600061024e60075490565b905061025a828261076c565b6102738160405180602001604052806000815250610905565b610281600780546001019055565b5050565b60006001600160e01b031982166380ac58cd60e01b14806102b657506001600160e01b03198216635b5e139f60e01b145b806102d157506301ffc9a760e01b6001600160e01b03198316145b92915050565b6060600080546102e69061134d565b80601f01602080910402602001604051908101604052809291908181526020018280546103129061134d565b801561035f5780601f106103345761010080835404028352916020019161035f565b820191906000526020600020905b81548152906001019060200180831161034257829003601f168201915b5050505050905090565b600061037482610998565b506000908152600460205260409020546001600160a01b031690565b600061039b826104f6565b9050806001600160a01b0316836001600160a01b03160361040d5760405162461bcd60e51b815260206004820152602160248201527f4552433732313a20617070726f76616c20746f2063757272656e74206f776e656044820152603960f91b60648201526084015b60405180910390fd5b336001600160a01b03821614806104295750610429813361073e565b61049b5760405162461bcd60e51b815260206004820152603d60248201527f4552433732313a20617070726f76652063616c6c6572206973206e6f7420746f60448201527f6b656e206f776e6572206f7220617070726f76656420666f7220616c6c0000006064820152608401610404565b6104a583836109fa565b505050565b6104b43382610a68565b6104d05760405162461bcd60e51b815260040161040490611387565b6104a5838383610ac6565b6104a5838383604051806020016040528060008152506105f6565b6000818152600260205260408120546001600160a01b0316806102d15760405162461bcd60e51b8152602060048201526018602482015277115490cdcc8c4e881a5b9d985b1a59081d1bdad95b88125160421b6044820152606401610404565b60006001600160a01b0382166105c05760405162461bcd60e51b815260206004820152602960248201527f4552433732313a2061646472657373207a65726f206973206e6f7420612076616044820152683634b21037bbb732b960b91b6064820152608401610404565b506001600160a01b031660009081526003602052604090205490565b6060600180546102e69061134d565b610281338383610c37565b6106003383610a68565b61061c5760405162461bcd60e51b815260040161040490611387565b61062884848484610d05565b50505050565b606061063982610998565b600082815260066020526040812080546106529061134d565b80601f016020809104026020016040519081016040528092919081815260200182805461067e9061134d565b80156106cb5780601f106106a0576101008083540402835291602001916106cb565b820191906000526020600020905b8154815290600101906020018083116106ae57829003601f168201915b5050505050905060006106e960408051602081019091526000815290565b905080516000036106fb575092915050565b81511561072d5780826040516020016107159291906113d4565b60405160208183030381529060405292505050919050565b61073684610d38565b949350505050565b6001600160a01b03918216600090815260056020908152604080832093909416825291909152205460ff1690565b6001600160a01b0382166107c25760405162461bcd60e51b815260206004820181905260248201527f4552433732313a206d696e7420746f20746865207a65726f20616464726573736044820152606401610404565b6000818152600260205260409020546001600160a01b0316156108275760405162461bcd60e51b815260206004820152601c60248201527f4552433732313a20746f6b656e20616c7265616479206d696e746564000000006044820152606401610404565b610835600083836001610dac565b6000818152600260205260409020546001600160a01b03161561089a5760405162461bcd60e51b815260206004820152601c60248201527f4552433732313a20746f6b656e20616c7265616479206d696e746564000000006044820152606401610404565b6001600160a01b038216600081815260036020908152604080832080546001019055848352600290915280822080546001600160a01b0319168417905551839291907fddf252ad1be2c89b69c2b068fc378daa952ba7f163c4a11628f55a4df523b3ef908290a45050565b6000828152600260205260409020546001600160a01b03166109805760405162461bcd60e51b815260206004820152602e60248201527f45524337323155524953746f726167653a2055524920736574206f66206e6f6e60448201526d32bc34b9ba32b73a103a37b5b2b760911b6064820152608401610404565b60008281526006602052604090206104a58282611451565b6000818152600260205260409020546001600160a01b03166109f75760405162461bcd60e51b8152602060048201526018602482015277115490cdcc8c4e881a5b9d985b1a59081d1bdad95b88125160421b6044820152606401610404565b50565b600081815260046020526040902080546001600160a01b0319166001600160a01b0384169081179091558190610a2f826104f6565b6001600160a01b03167f8c5be1e5ebec7d5bd14f71427d1e84f3dd0314c0f7b2291e5b200ac8c7c3b92560405160405180910390a45050565b600080610a74836104f6565b9050806001600160a01b0316846001600160a01b03161480610a9b5750610a9b818561073e565b806107365750836001600160a01b0316610ab484610369565b6001600160a01b031614949350505050565b826001600160a01b0316610ad9826104f6565b6001600160a01b031614610aff5760405162461bcd60e51b815260040161040490611511565b6001600160a01b038216610b615760405162461bcd60e51b8152602060048201526024808201527f4552433732313a207472616e7366657220746f20746865207a65726f206164646044820152637265737360e01b6064820152608401610404565b610b6e8383836001610dac565b826001600160a01b0316610b81826104f6565b6001600160a01b031614610ba75760405162461bcd60e51b815260040161040490611511565b600081815260046020908152604080832080546001600160a01b03199081169091556001600160a01b0387811680865260038552838620805460001901905590871680865283862080546001019055868652600290945282852080549092168417909155905184937fddf252ad1be2c89b69c2b068fc378daa952ba7f163c4a11628f55a4df523b3ef91a4505050565b816001600160a01b0316836001600160a01b031603610c985760405162461bcd60e51b815260206004820152601960248201527f4552433732313a20617070726f766520746f2063616c6c6572000000000000006044820152606401610404565b6001600160a01b03838116600081815260056020908152604080832094871680845294825291829020805460ff191686151590811790915591519182527f17307eab39ab6107e8899845ad3d59bd9653f200f220920489ca2b5937696c31910160405180910390a3505050565b610d10848484610ac6565b610d1c84848484610e34565b6106285760405162461bcd60e51b815260040161040490611556565b6060610d4382610998565b6000610d5a60408051602081019091526000815290565b90506000815111610d7a5760405180602001604052806000815250610da5565b80610d8484610f35565b604051602001610d959291906113d4565b6040516020818303038152906040525b9392505050565b6001811115610628576001600160a01b03841615610df2576001600160a01b03841660009081526003602052604081208054839290610dec9084906115be565b90915550505b6001600160a01b03831615610628576001600160a01b03831660009081526003602052604081208054839290610e299084906115d1565b909155505050505050565b60006001600160a01b0384163b15610f2a57604051630a85bd0160e11b81526001600160a01b0385169063150b7a0290610e789033908990889088906004016115e4565b6020604051808303816000875af1925050508015610eb3575060408051601f3d908101601f19168201909252610eb091810190611621565b60015b610f10573d808015610ee1576040519150601f19603f3d011682016040523d82523d6000602084013e610ee6565b606091505b508051600003610f085760405162461bcd60e51b815260040161040490611556565b805181602001fd5b6001600160e01b031916630a85bd0160e11b149050610736565b506001949350505050565b60606000610f4283610fc8565b600101905060008167ffffffffffffffff811115610f6257610f62611228565b6040519080825280601f01601f191660200182016040528015610f8c576020820181803683370190505b5090508181016020015b600019016f181899199a1a9b1b9c1cb0b131b232b360811b600a86061a8153600a8504945084610f9657509392505050565b60008072184f03e93ff9f4daa797ed6e38ed64bf6a1f0160401b83106110075772184f03e93ff9f4daa797ed6e38ed64bf6a1f0160401b830492506040015b6d04ee2d6d415b85acef81000000008310611033576d04ee2d6d415b85acef8100000000830492506020015b662386f26fc10000831061105157662386f26fc10000830492506010015b6305f5e1008310611069576305f5e100830492506008015b612710831061107d57612710830492506004015b6064831061108f576064830492506002015b600a83106102d15760010192915050565b80356001600160a01b03811681146110b757600080fd5b919050565b6000602082840312156110ce57600080fd5b610da5826110a0565b6001600160e01b0319811681146109f757600080fd5b6000602082840312156110ff57600080fd5b8135610da5816110d7565b60005b8381101561112557818101518382015260200161110d565b50506000910152565b6000815180845261114681602086016020860161110a565b601f01601f19169290920160200192915050565b602081526000610da5602083018461112e565b60006020828403121561117f57600080fd5b5035919050565b6000806040838503121561119957600080fd5b6111a2836110a0565b946020939093013593505050565b6000806000606084860312156111c557600080fd5b6111ce846110a0565b92506111dc602085016110a0565b9150604084013590509250925092565b600080604083850312156111ff57600080fd5b611208836110a0565b91506020830135801515811461121d57600080fd5b809150509250929050565b634e487b7160e01b600052604160045260246000fd5b6000806000806080858703121561125457600080fd5b61125d856110a0565b935061126b602086016110a0565b925060408501359150606085013567ffffffffffffffff8082111561128f57600080fd5b818701915087601f8301126112a357600080fd5b8135818111156112b5576112b5611228565b604051601f8201601f19908116603f011681019083821181831017156112dd576112dd611228565b816040528281528a60208487010111156112f657600080fd5b82602086016020830137600060208483010152809550505050505092959194509250565b6000806040838503121561132d57600080fd5b611336836110a0565b9150611344602084016110a0565b90509250929050565b600181811c9082168061136157607f821691505b60208210810361138157634e487b7160e01b600052602260045260246000fd5b50919050565b6020808252602d908201527f4552433732313a2063616c6c6572206973206e6f7420746f6b656e206f776e6560408201526c1c881bdc88185c1c1c9bdd9959609a1b606082015260800190565b600083516113e681846020880161110a565b8351908301906113fa81836020880161110a565b01949350505050565b601f8211156104a557600081815260208120601f850160051c8101602086101561142a5750805b601f850160051c820191505b8181101561144957828155600101611436565b505050505050565b815167ffffffffffffffff81111561146b5761146b611228565b61147f81611479845461134d565b84611403565b602080601f8311600181146114b4576000841561149c5750858301515b600019600386901b1c1916600185901b178555611449565b600085815260208120601f198616915b828110156114e3578886015182559484019460019091019084016114c4565b50858210156115015787850151600019600388901b60f8161c191681555b5050505050600190811b01905550565b60208082526025908201527f4552433732313a207472616e736665722066726f6d20696e636f72726563742060408201526437bbb732b960d91b606082015260800190565b60208082526032908201527f4552433732313a207472616e7366657220746f206e6f6e20455243373231526560408201527131b2b4bb32b91034b6b83632b6b2b73a32b960711b606082015260800190565b634e487b7160e01b600052601160045260246000fd5b818103818111156102d1576102d16115a8565b808201808211156102d1576102d16115a8565b6001600160a01b03858116825284166020820152604081018390526080606082018190526000906116179083018461112e565b9695505050505050565b60006020828403121561163357600080fd5b8151610da5816110d756fea264697066735822122096013dd9157037f0d12cd24bd51937b22647852797fd9fc55f130179b6e5b5fd64736f6c63430008110033",
    "linkReferences": {}
  },
  "methodIdentifiers": {
    "auctionCounter()": "a7e76644",
    "auctionDuration()": "0cbf54c8",
    "auctionFee()": "14525b6b",
    "auctions(uint256)": "571a26a0",
    "bid(uint256)": "454a2ab3",
    "buyNFT_Single(uint256)": "5a5f8d41",
    "cancelListing(uint256)": "305a67a8",
    "claimMyFunds(uint256)": "df88ea1a",
    "createAuction(address,uint256,uint256)": "abb94051",
    "getAllNFTs()": "e0391b09",
    "getLastBid(uint256)": "30b6208a",
    "getLatestPrice()": "8e15f473",
    "isOpen(uint256)": "4d6861a6",
    "listMyNFTforSale(address,uint256,uint256)": "d09b1985",
    "listedNFTCount()": "421d5400",
    "listings(uint256)": "de74e57b",
    "mintEcstasy()": "e8603bd6",
    "minting_fee()": "c3355b8d",
    "myListings(address)": "fba8805c",
    "nativeNFT()": "8f38ed10",
    "numberOfActiveAuctions()": "7dafaa08",
    "numberOfNftsSold()": "4ad8a0a0",
    "owner()": "8da5cb5b",
    "renounceOwnership()": "715018a6",
    "transferOwnership(address)": "f2fde38b",
    "updateListingPrice(uint256,uint256)": "c4604943"
  },
  "id": 30
}