{
  "abi": [
    {
      "inputs": [
        {
          "internalType": "string",
          "name": "name",
          "type": "string"
        },
        {
          "internalType": "string",
          "name": "symbol",
          "type": "string"
        }
      ],
      "stateMutability": "nonpayable",
      "type": "constructor"
    },
    {
      "anonymous": false,
      "inputs": [
        {
          "indexed": true,
          "internalType": "address",
          "name": "owner",
          "type": "address"
        },
        {
          "indexed": true,
          "internalType": "address",
          "name": "approved",
          "type": "address"
        },
        {
          "indexed": true,
          "internalType": "uint256",
          "name": "tokenId",
          "type": "uint256"
        }
      ],
      "name": "Approval",
      "type": "event"
    },
    {
      "anonymous": false,
      "inputs": [
        {
          "indexed": true,
          "internalType": "address",
          "name": "owner",
          "type": "address"
        },
        {
          "indexed": true,
          "internalType": "address",
          "name": "operator",
          "type": "address"
        },
        {
          "indexed": false,
          "internalType": "bool",
          "name": "approved",
          "type": "bool"
        }
      ],
      "name": "ApprovalForAll",
      "type": "event"
    },
    {
      "anonymous": false,
      "inputs": [
        {
          "indexed": true,
          "internalType": "address",
          "name": "from",
          "type": "address"
        },
        {
          "indexed": true,
          "internalType": "address",
          "name": "to",
          "type": "address"
        },
        {
          "indexed": true,
          "internalType": "uint256",
          "name": "tokenId",
          "type": "uint256"
        }
      ],
      "name": "Transfer",
      "type": "event"
    },
    {
      "inputs": [
        {
          "internalType": "address",
          "name": "to",
          "type": "address"
        },
        {
          "internalType": "uint256",
          "name": "tokenId",
          "type": "uint256"
        }
      ],
      "name": "approve",
      "outputs": [],
      "stateMutability": "nonpayable",
      "type": "function"
    },
    {
      "inputs": [
        {
          "internalType": "address",
          "name": "owner",
          "type": "address"
        }
      ],
      "name": "balanceOf",
      "outputs": [
        {
          "internalType": "uint256",
          "name": "",
          "type": "uint256"
        }
      ],
      "stateMutability": "view",
      "type": "function"
    },
    {
      "inputs": [
        {
          "internalType": "uint256",
          "name": "tokenId",
          "type": "uint256"
        }
      ],
      "name": "getApproved",
      "outputs": [
        {
          "internalType": "address",
          "name": "",
          "type": "address"
        }
      ],
      "stateMutability": "view",
      "type": "function"
    },
    {
      "inputs": [
        {
          "internalType": "address",
          "name": "to",
          "type": "address"
        },
        {
          "internalType": "string",
          "name": "tokenURI",
          "type": "string"
        }
      ],
      "name": "holders",
      "outputs": [],
      "stateMutability": "nonpayable",
      "type": "function"
    },
    {
      "inputs": [
        {
          "internalType": "address",
          "name": "owner",
          "type": "address"
        },
        {
          "internalType": "address",
          "name": "operator",
          "type": "address"
        }
      ],
      "name": "isApprovedForAll",
      "outputs": [
        {
          "internalType": "bool",
          "name": "",
          "type": "bool"
        }
      ],
      "stateMutability": "view",
      "type": "function"
    },
    {
      "inputs": [],
      "name": "name",
      "outputs": [
        {
          "internalType": "string",
          "name": "",
          "type": "string"
        }
      ],
      "stateMutability": "view",
      "type": "function"
    },
    {
      "inputs": [],
      "name": "owner",
      "outputs": [
        {
          "internalType": "address",
          "name": "",
          "type": "address"
        }
      ],
      "stateMutability": "view",
      "type": "function"
    },
    {
      "inputs": [
        {
          "internalType": "uint256",
          "name": "tokenId",
          "type": "uint256"
        }
      ],
      "name": "ownerOf",
      "outputs": [
        {
          "internalType": "address",
          "name": "",
          "type": "address"
        }
      ],
      "stateMutability": "view",
      "type": "function"
    },
    {
      "inputs": [
        {
          "internalType": "address",
          "name": "from",
          "type": "address"
        },
        {
          "internalType": "address",
          "name": "to",
          "type": "address"
        },
        {
          "internalType": "uint256",
          "name": "tokenId",
          "type": "uint256"
        }
      ],
      "name": "safeTransferFrom",
      "outputs": [],
      "stateMutability": "nonpayable",
      "type": "function"
    },
    {
      "inputs": [
        {
          "internalType": "address",
          "name": "from",
          "type": "address"
        },
        {
          "internalType": "address",
          "name": "to",
          "type": "address"
        },
        {
          "internalType": "uint256",
          "name": "tokenId",
          "type": "uint256"
        },
        {
          "internalType": "bytes",
          "name": "data",
          "type": "bytes"
        }
      ],
      "name": "safeTransferFrom",
      "outputs": [],
      "stateMutability": "nonpayable",
      "type": "function"
    },
    {
      "inputs": [
        {
          "internalType": "address",
          "name": "operator",
          "type": "address"
        },
        {
          "internalType": "bool",
          "name": "approved",
          "type": "bool"
        }
      ],
      "name": "setApprovalForAll",
      "outputs": [],
      "stateMutability": "nonpayable",
      "type": "function"
    },
    {
      "inputs": [
        {
          "internalType": "bytes4",
          "name": "interfaceId",
          "type": "bytes4"
        }
      ],
      "name": "supportsInterface",
      "outputs": [
        {
          "internalType": "bool",
          "name": "",
          "type": "bool"
        }
      ],
      "stateMutability": "view",
      "type": "function"
    },
    {
      "inputs": [],
      "name": "symbol",
      "outputs": [
        {
          "internalType": "string",
          "name": "",
          "type": "string"
        }
      ],
      "stateMutability": "view",
      "type": "function"
    },
    {
      "inputs": [
        {
          "internalType": "uint256",
          "name": "tokenId",
          "type": "uint256"
        }
      ],
      "name": "tokenURI",
      "outputs": [
        {
          "internalType": "string",
          "name": "",
          "type": "string"
        }
      ],
      "stateMutability": "view",
      "type": "function"
    },
    {
      "inputs": [
        {
          "internalType": "address",
          "name": "from",
          "type": "address"
        },
        {
          "internalType": "address",
          "name": "to",
          "type": "address"
        },
        {
          "internalType": "uint256",
          "name": "tokenId",
          "type": "uint256"
        }
      ],
      "name": "transferFrom",
      "outputs": [],
      "stateMutability": "nonpayable",
      "type": "function"
    }
  ],
  "bytecode": {
    "object": "0x60806040523480156200001157600080fd5b5060405162001a0738038062001a07833981016040819052620000349162000136565b818160006200004483826200022f565b5060016200005382826200022f565b5050600880546001600160a01b0319163317905550620002fb915050565b634e487b7160e01b600052604160045260246000fd5b600082601f8301126200009957600080fd5b81516001600160401b0380821115620000b657620000b662000071565b604051601f8301601f19908116603f01168101908282118183101715620000e157620000e162000071565b81604052838152602092508683858801011115620000fe57600080fd5b600091505b8382101562000122578582018301518183018401529082019062000103565b600093810190920192909252949350505050565b600080604083850312156200014a57600080fd5b82516001600160401b03808211156200016257600080fd5b620001708683870162000087565b935060208501519150808211156200018757600080fd5b50620001968582860162000087565b9150509250929050565b600181811c90821680620001b557607f821691505b602082108103620001d657634e487b7160e01b600052602260045260246000fd5b50919050565b601f8211156200022a57600081815260208120601f850160051c81016020861015620002055750805b601f850160051c820191505b81811015620002265782815560010162000211565b5050505b505050565b81516001600160401b038111156200024b576200024b62000071565b62000263816200025c8454620001a0565b84620001dc565b602080601f8311600181146200029b5760008415620002825750858301515b600019600386901b1c1916600185901b17855562000226565b600085815260208120601f198616915b82811015620002cc57888601518255948401946001909101908401620002ab565b5085821015620002eb5787850151600019600388901b60f8161c191681555b5050505050600190811b01905550565b6116fc806200030b6000396000f3fe608060405234801561001057600080fd5b50600436106100f55760003560e01c806370a0823111610097578063a22cb46511610066578063a22cb465146101ff578063b88d4fde14610212578063c87b56dd14610225578063e985e9c51461023857600080fd5b806370a08231146101b0578063820ad1f5146101d15780638da5cb5b146101e457806395d89b41146101f757600080fd5b8063095ea7b3116100d3578063095ea7b31461016257806323b872dd1461017757806342842e0e1461018a5780636352211e1461019d57600080fd5b806301ffc9a7146100fa57806306fdde0314610122578063081812fc14610137575b600080fd5b61010d6101083660046110c6565b61024b565b60405190151581526020015b60405180910390f35b61012a61029d565b6040516101199190611133565b61014a610145366004611146565b61032f565b6040516001600160a01b039091168152602001610119565b61017561017036600461117b565b610356565b005b6101756101853660046111a5565b610470565b6101756101983660046111a5565b6104a1565b61014a6101ab366004611146565b6104bc565b6101c36101be3660046111e1565b61051c565b604051908152602001610119565b6101756101df366004611288565b6105a2565b60085461014a906001600160a01b031681565b61012a6105e8565b61017561020d3660046112ea565b6105f7565b610175610220366004611326565b610606565b61012a610233366004611146565b61063e565b61010d6102463660046113a2565b61074e565b60006001600160e01b031982166380ac58cd60e01b148061027c57506001600160e01b03198216635b5e139f60e01b145b8061029757506301ffc9a760e01b6001600160e01b03198316145b92915050565b6060600080546102ac906113d5565b80601f01602080910402602001604051908101604052809291908181526020018280546102d8906113d5565b80156103255780601f106102fa57610100808354040283529160200191610325565b820191906000526020600020905b81548152906001019060200180831161030857829003601f168201915b5050505050905090565b600061033a8261077c565b506000908152600460205260409020546001600160a01b031690565b6000610361826104bc565b9050806001600160a01b0316836001600160a01b0316036103d35760405162461bcd60e51b815260206004820152602160248201527f4552433732313a20617070726f76616c20746f2063757272656e74206f776e656044820152603960f91b60648201526084015b60405180910390fd5b336001600160a01b03821614806103ef57506103ef813361074e565b6104615760405162461bcd60e51b815260206004820152603d60248201527f4552433732313a20617070726f76652063616c6c6572206973206e6f7420746f60448201527f6b656e206f776e6572206f7220617070726f76656420666f7220616c6c00000060648201526084016103ca565b61046b83836107de565b505050565b61047a338261084c565b6104965760405162461bcd60e51b81526004016103ca9061140f565b61046b8383836108aa565b61046b83838360405180602001604052806000815250610606565b6000818152600260205260408120546001600160a01b0316806102975760405162461bcd60e51b8152602060048201526018602482015277115490cdcc8c4e881a5b9d985b1a59081d1bdad95b88125160421b60448201526064016103ca565b60006001600160a01b0382166105865760405162461bcd60e51b815260206004820152602960248201527f4552433732313a2061646472657373207a65726f206973206e6f7420612076616044820152683634b21037bbb732b960b91b60648201526084016103ca565b506001600160a01b031660009081526003602052604090205490565b6008546001600160a01b031633146105b957600080fd5b60006105c460075490565b90506105d08382610a1b565b6105da8183610bb4565b61046b600780546001019055565b6060600180546102ac906113d5565b610602338383610c47565b5050565b610610338361084c565b61062c5760405162461bcd60e51b81526004016103ca9061140f565b61063884848484610d15565b50505050565b60606106498261077c565b60008281526006602052604081208054610662906113d5565b80601f016020809104026020016040519081016040528092919081815260200182805461068e906113d5565b80156106db5780601f106106b0576101008083540402835291602001916106db565b820191906000526020600020905b8154815290600101906020018083116106be57829003601f168201915b5050505050905060006106f960408051602081019091526000815290565b9050805160000361070b575092915050565b81511561073d57808260405160200161072592919061145c565b60405160208183030381529060405292505050919050565b61074684610d48565b949350505050565b6001600160a01b03918216600090815260056020908152604080832093909416825291909152205460ff1690565b6000818152600260205260409020546001600160a01b03166107db5760405162461bcd60e51b8152602060048201526018602482015277115490cdcc8c4e881a5b9d985b1a59081d1bdad95b88125160421b60448201526064016103ca565b50565b600081815260046020526040902080546001600160a01b0319166001600160a01b0384169081179091558190610813826104bc565b6001600160a01b03167f8c5be1e5ebec7d5bd14f71427d1e84f3dd0314c0f7b2291e5b200ac8c7c3b92560405160405180910390a45050565b600080610858836104bc565b9050806001600160a01b0316846001600160a01b0316148061087f575061087f818561074e565b806107465750836001600160a01b03166108988461032f565b6001600160a01b031614949350505050565b826001600160a01b03166108bd826104bc565b6001600160a01b0316146108e35760405162461bcd60e51b81526004016103ca9061148b565b6001600160a01b0382166109455760405162461bcd60e51b8152602060048201526024808201527f4552433732313a207472616e7366657220746f20746865207a65726f206164646044820152637265737360e01b60648201526084016103ca565b6109528383836001610dbc565b826001600160a01b0316610965826104bc565b6001600160a01b03161461098b5760405162461bcd60e51b81526004016103ca9061148b565b600081815260046020908152604080832080546001600160a01b03199081169091556001600160a01b0387811680865260038552838620805460001901905590871680865283862080546001019055868652600290945282852080549092168417909155905184937fddf252ad1be2c89b69c2b068fc378daa952ba7f163c4a11628f55a4df523b3ef91a4505050565b6001600160a01b038216610a715760405162461bcd60e51b815260206004820181905260248201527f4552433732313a206d696e7420746f20746865207a65726f206164647265737360448201526064016103ca565b6000818152600260205260409020546001600160a01b031615610ad65760405162461bcd60e51b815260206004820152601c60248201527f4552433732313a20746f6b656e20616c7265616479206d696e7465640000000060448201526064016103ca565b610ae4600083836001610dbc565b6000818152600260205260409020546001600160a01b031615610b495760405162461bcd60e51b815260206004820152601c60248201527f4552433732313a20746f6b656e20616c7265616479206d696e7465640000000060448201526064016103ca565b6001600160a01b038216600081815260036020908152604080832080546001019055848352600290915280822080546001600160a01b0319168417905551839291907fddf252ad1be2c89b69c2b068fc378daa952ba7f163c4a11628f55a4df523b3ef908290a45050565b6000828152600260205260409020546001600160a01b0316610c2f5760405162461bcd60e51b815260206004820152602e60248201527f45524337323155524953746f726167653a2055524920736574206f66206e6f6e60448201526d32bc34b9ba32b73a103a37b5b2b760911b60648201526084016103ca565b600082815260066020526040902061046b828261151e565b816001600160a01b0316836001600160a01b031603610ca85760405162461bcd60e51b815260206004820152601960248201527f4552433732313a20617070726f766520746f2063616c6c65720000000000000060448201526064016103ca565b6001600160a01b03838116600081815260056020908152604080832094871680845294825291829020805460ff191686151590811790915591519182527f17307eab39ab6107e8899845ad3d59bd9653f200f220920489ca2b5937696c31910160405180910390a3505050565b610d208484846108aa565b610d2c84848484610e44565b6106385760405162461bcd60e51b81526004016103ca906115de565b6060610d538261077c565b6000610d6a60408051602081019091526000815290565b90506000815111610d8a5760405180602001604052806000815250610db5565b80610d9484610f45565b604051602001610da592919061145c565b6040516020818303038152906040525b9392505050565b6001811115610638576001600160a01b03841615610e02576001600160a01b03841660009081526003602052604081208054839290610dfc908490611646565b90915550505b6001600160a01b03831615610638576001600160a01b03831660009081526003602052604081208054839290610e39908490611659565b909155505050505050565b60006001600160a01b0384163b15610f3a57604051630a85bd0160e11b81526001600160a01b0385169063150b7a0290610e8890339089908890889060040161166c565b6020604051808303816000875af1925050508015610ec3575060408051601f3d908101601f19168201909252610ec0918101906116a9565b60015b610f20573d808015610ef1576040519150601f19603f3d011682016040523d82523d6000602084013e610ef6565b606091505b508051600003610f185760405162461bcd60e51b81526004016103ca906115de565b805181602001fd5b6001600160e01b031916630a85bd0160e11b149050610746565b506001949350505050565b60606000610f5283610fd8565b600101905060008167ffffffffffffffff811115610f7257610f726111fc565b6040519080825280601f01601f191660200182016040528015610f9c576020820181803683370190505b5090508181016020015b600019016f181899199a1a9b1b9c1cb0b131b232b360811b600a86061a8153600a8504945084610fa657509392505050565b60008072184f03e93ff9f4daa797ed6e38ed64bf6a1f0160401b83106110175772184f03e93ff9f4daa797ed6e38ed64bf6a1f0160401b830492506040015b6d04ee2d6d415b85acef81000000008310611043576d04ee2d6d415b85acef8100000000830492506020015b662386f26fc10000831061106157662386f26fc10000830492506010015b6305f5e1008310611079576305f5e100830492506008015b612710831061108d57612710830492506004015b6064831061109f576064830492506002015b600a83106102975760010192915050565b6001600160e01b0319811681146107db57600080fd5b6000602082840312156110d857600080fd5b8135610db5816110b0565b60005b838110156110fe5781810151838201526020016110e6565b50506000910152565b6000815180845261111f8160208601602086016110e3565b601f01601f19169290920160200192915050565b602081526000610db56020830184611107565b60006020828403121561115857600080fd5b5035919050565b80356001600160a01b038116811461117657600080fd5b919050565b6000806040838503121561118e57600080fd5b6111978361115f565b946020939093013593505050565b6000806000606084860312156111ba57600080fd5b6111c38461115f565b92506111d16020850161115f565b9150604084013590509250925092565b6000602082840312156111f357600080fd5b610db58261115f565b634e487b7160e01b600052604160045260246000fd5b600067ffffffffffffffff8084111561122d5761122d6111fc565b604051601f8501601f19908116603f01168101908282118183101715611255576112556111fc565b8160405280935085815286868601111561126e57600080fd5b858560208301376000602087830101525050509392505050565b6000806040838503121561129b57600080fd5b6112a48361115f565b9150602083013567ffffffffffffffff8111156112c057600080fd5b8301601f810185136112d157600080fd5b6112e085823560208401611212565b9150509250929050565b600080604083850312156112fd57600080fd5b6113068361115f565b91506020830135801515811461131b57600080fd5b809150509250929050565b6000806000806080858703121561133c57600080fd5b6113458561115f565b93506113536020860161115f565b925060408501359150606085013567ffffffffffffffff81111561137657600080fd5b8501601f8101871361138757600080fd5b61139687823560208401611212565b91505092959194509250565b600080604083850312156113b557600080fd5b6113be8361115f565b91506113cc6020840161115f565b90509250929050565b600181811c908216806113e957607f821691505b60208210810361140957634e487b7160e01b600052602260045260246000fd5b50919050565b6020808252602d908201527f4552433732313a2063616c6c6572206973206e6f7420746f6b656e206f776e6560408201526c1c881bdc88185c1c1c9bdd9959609a1b606082015260800190565b6000835161146e8184602088016110e3565b8351908301906114828183602088016110e3565b01949350505050565b60208082526025908201527f4552433732313a207472616e736665722066726f6d20696e636f72726563742060408201526437bbb732b960d91b606082015260800190565b601f82111561046b57600081815260208120601f850160051c810160208610156114f75750805b601f850160051c820191505b8181101561151657828155600101611503565b505050505050565b815167ffffffffffffffff811115611538576115386111fc565b61154c8161154684546113d5565b846114d0565b602080601f83116001811461158157600084156115695750858301515b600019600386901b1c1916600185901b178555611516565b600085815260208120601f198616915b828110156115b057888601518255948401946001909101908401611591565b50858210156115ce5787850151600019600388901b60f8161c191681555b5050505050600190811b01905550565b60208082526032908201527f4552433732313a207472616e7366657220746f206e6f6e20455243373231526560408201527131b2b4bb32b91034b6b83632b6b2b73a32b960711b606082015260800190565b634e487b7160e01b600052601160045260246000fd5b8181038181111561029757610297611630565b8082018082111561029757610297611630565b6001600160a01b038581168252841660208201526040810183905260806060820181905260009061169f90830184611107565b9695505050505050565b6000602082840312156116bb57600080fd5b8151610db5816110b056fea26469706673582212202ad24a82146a936c445c0f5c0b2f30e7e529138b4c7c9e0726e7ef1a23a57b2564736f6c63430008110033",
    "linkReferences": {}
  },
  "methodIdentifiers": {
    "approve(address,uint256)": "095ea7b3",
    "balanceOf(address)": "70a08231",
    "getApproved(uint256)": "081812fc",
    "holders(address,string)": "820ad1f5",
    "isApprovedForAll(address,address)": "e985e9c5",
    "name()": "06fdde03",
    "owner()": "8da5cb5b",
    "ownerOf(uint256)": "6352211e",
    "safeTransferFrom(address,address,uint256)": "42842e0e",
    "safeTransferFrom(address,address,uint256,bytes)": "b88d4fde",
    "setApprovalForAll(address,bool)": "a22cb465",
    "supportsInterface(bytes4)": "01ffc9a7",
    "symbol()": "95d89b41",
    "tokenURI(uint256)": "c87b56dd",
    "transferFrom(address,address,uint256)": "23b872dd"
  },
  "id": 57
}