{
  "abi": [
    {
      "inputs": [
        {
          "internalType": "address payable",
          "name": "_address",
          "type": "address"
        }
      ],
      "stateMutability": "nonpayable",
      "type": "constructor"
    },
    {
      "anonymous": false,
      "inputs": [
        {
          "indexed": true,
          "internalType": "address",
          "name": "owner",
          "type": "address"
        },
        {
          "indexed": true,
          "internalType": "address",
          "name": "approved",
          "type": "address"
        },
        {
          "indexed": true,
          "internalType": "uint256",
          "name": "tokenId",
          "type": "uint256"
        }
      ],
      "name": "Approval",
      "type": "event"
    },
    {
      "anonymous": false,
      "inputs": [
        {
          "indexed": true,
          "internalType": "address",
          "name": "owner",
          "type": "address"
        },
        {
          "indexed": true,
          "internalType": "address",
          "name": "operator",
          "type": "address"
        },
        {
          "indexed": false,
          "internalType": "bool",
          "name": "approved",
          "type": "bool"
        }
      ],
      "name": "ApprovalForAll",
      "type": "event"
    },
    {
      "anonymous": false,
      "inputs": [
        {
          "indexed": true,
          "internalType": "address",
          "name": "from",
          "type": "address"
        },
        {
          "indexed": true,
          "internalType": "address",
          "name": "to",
          "type": "address"
        },
        {
          "indexed": true,
          "internalType": "uint256",
          "name": "tokenId",
          "type": "uint256"
        }
      ],
      "name": "Transfer",
      "type": "event"
    },
    {
      "inputs": [],
      "name": "_tokenIds",
      "outputs": [
        {
          "internalType": "uint256",
          "name": "_value",
          "type": "uint256"
        }
      ],
      "stateMutability": "view",
      "type": "function"
    },
    {
      "inputs": [
        {
          "internalType": "address",
          "name": "to",
          "type": "address"
        },
        {
          "internalType": "uint256",
          "name": "tokenId",
          "type": "uint256"
        }
      ],
      "name": "approve",
      "outputs": [],
      "stateMutability": "nonpayable",
      "type": "function"
    },
    {
      "inputs": [
        {
          "internalType": "address",
          "name": "owner",
          "type": "address"
        }
      ],
      "name": "balanceOf",
      "outputs": [
        {
          "internalType": "uint256",
          "name": "",
          "type": "uint256"
        }
      ],
      "stateMutability": "view",
      "type": "function"
    },
    {
      "inputs": [
        {
          "internalType": "uint256",
          "name": "tokenId",
          "type": "uint256"
        }
      ],
      "name": "getApproved",
      "outputs": [
        {
          "internalType": "address",
          "name": "",
          "type": "address"
        }
      ],
      "stateMutability": "view",
      "type": "function"
    },
    {
      "inputs": [
        {
          "internalType": "address",
          "name": "owner",
          "type": "address"
        },
        {
          "internalType": "address",
          "name": "operator",
          "type": "address"
        }
      ],
      "name": "isApprovedForAll",
      "outputs": [
        {
          "internalType": "bool",
          "name": "",
          "type": "bool"
        }
      ],
      "stateMutability": "view",
      "type": "function"
    },
    {
      "inputs": [],
      "name": "marketplace",
      "outputs": [
        {
          "internalType": "contract EcstasyMKT",
          "name": "",
          "type": "address"
        }
      ],
      "stateMutability": "view",
      "type": "function"
    },
    {
      "inputs": [
        {
          "internalType": "address",
          "name": "to",
          "type": "address"
        }
      ],
      "name": "mintEcstasyNFT",
      "outputs": [],
      "stateMutability": "nonpayable",
      "type": "function"
    },
    {
      "inputs": [],
      "name": "name",
      "outputs": [
        {
          "internalType": "string",
          "name": "",
          "type": "string"
        }
      ],
      "stateMutability": "view",
      "type": "function"
    },
    {
      "inputs": [
        {
          "internalType": "uint256",
          "name": "tokenId",
          "type": "uint256"
        }
      ],
      "name": "ownerOf",
      "outputs": [
        {
          "internalType": "address",
          "name": "",
          "type": "address"
        }
      ],
      "stateMutability": "view",
      "type": "function"
    },
    {
      "inputs": [
        {
          "internalType": "address",
          "name": "from",
          "type": "address"
        },
        {
          "internalType": "address",
          "name": "to",
          "type": "address"
        },
        {
          "internalType": "uint256",
          "name": "tokenId",
          "type": "uint256"
        }
      ],
      "name": "safeTransferFrom",
      "outputs": [],
      "stateMutability": "nonpayable",
      "type": "function"
    },
    {
      "inputs": [
        {
          "internalType": "address",
          "name": "from",
          "type": "address"
        },
        {
          "internalType": "address",
          "name": "to",
          "type": "address"
        },
        {
          "internalType": "uint256",
          "name": "tokenId",
          "type": "uint256"
        },
        {
          "internalType": "bytes",
          "name": "data",
          "type": "bytes"
        }
      ],
      "name": "safeTransferFrom",
      "outputs": [],
      "stateMutability": "nonpayable",
      "type": "function"
    },
    {
      "inputs": [
        {
          "internalType": "address",
          "name": "operator",
          "type": "address"
        },
        {
          "internalType": "bool",
          "name": "approved",
          "type": "bool"
        }
      ],
      "name": "setApprovalForAll",
      "outputs": [],
      "stateMutability": "nonpayable",
      "type": "function"
    },
    {
      "inputs": [
        {
          "internalType": "bytes4",
          "name": "interfaceId",
          "type": "bytes4"
        }
      ],
      "name": "supportsInterface",
      "outputs": [
        {
          "internalType": "bool",
          "name": "",
          "type": "bool"
        }
      ],
      "stateMutability": "view",
      "type": "function"
    },
    {
      "inputs": [],
      "name": "symbol",
      "outputs": [
        {
          "internalType": "string",
          "name": "",
          "type": "string"
        }
      ],
      "stateMutability": "view",
      "type": "function"
    },
    {
      "inputs": [
        {
          "internalType": "uint256",
          "name": "tokenId",
          "type": "uint256"
        }
      ],
      "name": "tokenURI",
      "outputs": [
        {
          "internalType": "string",
          "name": "",
          "type": "string"
        }
      ],
      "stateMutability": "view",
      "type": "function"
    },
    {
      "inputs": [
        {
          "internalType": "address",
          "name": "from",
          "type": "address"
        },
        {
          "internalType": "address",
          "name": "to",
          "type": "address"
        },
        {
          "internalType": "uint256",
          "name": "tokenId",
          "type": "uint256"
        }
      ],
      "name": "transferFrom",
      "outputs": [],
      "stateMutability": "nonpayable",
      "type": "function"
    }
  ],
  "bytecode": {
    "object": "0x60a06040523480156200001157600080fd5b5060405162001948380380620019488339810160408190526200003491620000a9565b6040518060400160405280600a8152602001691158dcdd185cde53919560b21b815250604051806040016040528060048152602001631953919560e21b815250816000908162000085919062000180565b50600162000094828262000180565b5050506001600160a01b03166080526200024c565b600060208284031215620000bc57600080fd5b81516001600160a01b0381168114620000d457600080fd5b9392505050565b634e487b7160e01b600052604160045260246000fd5b600181811c908216806200010657607f821691505b6020821081036200012757634e487b7160e01b600052602260045260246000fd5b50919050565b601f8211156200017b57600081815260208120601f850160051c81016020861015620001565750805b601f850160051c820191505b81811015620001775782815560010162000162565b5050505b505050565b81516001600160401b038111156200019c576200019c620000db565b620001b481620001ad8454620000f1565b846200012d565b602080601f831160018114620001ec5760008415620001d35750858301515b600019600386901b1c1916600185901b17855562000177565b600085815260208120601f198616915b828110156200021d57888601518255948401946001909101908401620001fc565b50858210156200023c5787850151600019600388901b60f8161c191681555b5050505050600190811b01905550565b6080516116d96200026f60003960008181610218015261027e01526116d96000f3fe608060405234801561001057600080fd5b50600436106100ff5760003560e01c806370a0823111610097578063abc8c7af11610066578063abc8c7af14610213578063b88d4fde1461023a578063c87b56dd1461024d578063e985e9c51461026057600080fd5b806370a08231146101cd57806395d89b41146101ee578063a22cb465146101f6578063aa46a4001461020957600080fd5b8063095ea7b3116100d3578063095ea7b31461018157806323b872dd1461019457806342842e0e146101a75780636352211e146101ba57600080fd5b8062977dcd1461010457806301ffc9a71461011957806306fdde0314610141578063081812fc14610156575b600080fd5b610117610112366004611121565b610273565b005b61012c610127366004611152565b6102ea565b60405190151581526020015b60405180910390f35b61014961033c565b60405161013891906111bf565b6101696101643660046111d2565b6103ce565b6040516001600160a01b039091168152602001610138565b61011761018f3660046111eb565b6103f5565b6101176101a2366004611215565b61050f565b6101176101b5366004611215565b610540565b6101696101c83660046111d2565b61055b565b6101e06101db366004611121565b6105bb565b604051908152602001610138565b610149610641565b610117610204366004611251565b610650565b6007546101e09081565b6101697f000000000000000000000000000000000000000000000000000000000000000081565b6101176102483660046112a3565b61065b565b61014961025b3660046111d2565b610693565b61012c61026e36600461137f565b6107a3565b336001600160a01b037f000000000000000000000000000000000000000000000000000000000000000016146102a857600080fd5b60006102b360075490565b90506102bf82826107d1565b6102d8816040518060200160405280600081525061096a565b6102e6600780546001019055565b5050565b60006001600160e01b031982166380ac58cd60e01b148061031b57506001600160e01b03198216635b5e139f60e01b145b8061033657506301ffc9a760e01b6001600160e01b03198316145b92915050565b60606000805461034b906113b2565b80601f0160208091040260200160405190810160405280929190818152602001828054610377906113b2565b80156103c45780601f10610399576101008083540402835291602001916103c4565b820191906000526020600020905b8154815290600101906020018083116103a757829003601f168201915b5050505050905090565b60006103d9826109fd565b506000908152600460205260409020546001600160a01b031690565b60006104008261055b565b9050806001600160a01b0316836001600160a01b0316036104725760405162461bcd60e51b815260206004820152602160248201527f4552433732313a20617070726f76616c20746f2063757272656e74206f776e656044820152603960f91b60648201526084015b60405180910390fd5b336001600160a01b038216148061048e575061048e81336107a3565b6105005760405162461bcd60e51b815260206004820152603d60248201527f4552433732313a20617070726f76652063616c6c6572206973206e6f7420746f60448201527f6b656e206f776e6572206f7220617070726f76656420666f7220616c6c0000006064820152608401610469565b61050a8383610a5f565b505050565b6105193382610acd565b6105355760405162461bcd60e51b8152600401610469906113ec565b61050a838383610b2b565b61050a8383836040518060200160405280600081525061065b565b6000818152600260205260408120546001600160a01b0316806103365760405162461bcd60e51b8152602060048201526018602482015277115490cdcc8c4e881a5b9d985b1a59081d1bdad95b88125160421b6044820152606401610469565b60006001600160a01b0382166106255760405162461bcd60e51b815260206004820152602960248201527f4552433732313a2061646472657373207a65726f206973206e6f7420612076616044820152683634b21037bbb732b960b91b6064820152608401610469565b506001600160a01b031660009081526003602052604090205490565b60606001805461034b906113b2565b6102e6338383610c9c565b6106653383610acd565b6106815760405162461bcd60e51b8152600401610469906113ec565b61068d84848484610d6a565b50505050565b606061069e826109fd565b600082815260066020526040812080546106b7906113b2565b80601f01602080910402602001604051908101604052809291908181526020018280546106e3906113b2565b80156107305780601f1061070557610100808354040283529160200191610730565b820191906000526020600020905b81548152906001019060200180831161071357829003601f168201915b50505050509050600061074e60408051602081019091526000815290565b90508051600003610760575092915050565b81511561079257808260405160200161077a929190611439565b60405160208183030381529060405292505050919050565b61079b84610d9d565b949350505050565b6001600160a01b03918216600090815260056020908152604080832093909416825291909152205460ff1690565b6001600160a01b0382166108275760405162461bcd60e51b815260206004820181905260248201527f4552433732313a206d696e7420746f20746865207a65726f20616464726573736044820152606401610469565b6000818152600260205260409020546001600160a01b03161561088c5760405162461bcd60e51b815260206004820152601c60248201527f4552433732313a20746f6b656e20616c7265616479206d696e746564000000006044820152606401610469565b61089a600083836001610e11565b6000818152600260205260409020546001600160a01b0316156108ff5760405162461bcd60e51b815260206004820152601c60248201527f4552433732313a20746f6b656e20616c7265616479206d696e746564000000006044820152606401610469565b6001600160a01b038216600081815260036020908152604080832080546001019055848352600290915280822080546001600160a01b0319168417905551839291907fddf252ad1be2c89b69c2b068fc378daa952ba7f163c4a11628f55a4df523b3ef908290a45050565b6000828152600260205260409020546001600160a01b03166109e55760405162461bcd60e51b815260206004820152602e60248201527f45524337323155524953746f726167653a2055524920736574206f66206e6f6e60448201526d32bc34b9ba32b73a103a37b5b2b760911b6064820152608401610469565b600082815260066020526040902061050a82826114b6565b6000818152600260205260409020546001600160a01b0316610a5c5760405162461bcd60e51b8152602060048201526018602482015277115490cdcc8c4e881a5b9d985b1a59081d1bdad95b88125160421b6044820152606401610469565b50565b600081815260046020526040902080546001600160a01b0319166001600160a01b0384169081179091558190610a948261055b565b6001600160a01b03167f8c5be1e5ebec7d5bd14f71427d1e84f3dd0314c0f7b2291e5b200ac8c7c3b92560405160405180910390a45050565b600080610ad98361055b565b9050806001600160a01b0316846001600160a01b03161480610b005750610b0081856107a3565b8061079b5750836001600160a01b0316610b19846103ce565b6001600160a01b031614949350505050565b826001600160a01b0316610b3e8261055b565b6001600160a01b031614610b645760405162461bcd60e51b815260040161046990611576565b6001600160a01b038216610bc65760405162461bcd60e51b8152602060048201526024808201527f4552433732313a207472616e7366657220746f20746865207a65726f206164646044820152637265737360e01b6064820152608401610469565b610bd38383836001610e11565b826001600160a01b0316610be68261055b565b6001600160a01b031614610c0c5760405162461bcd60e51b815260040161046990611576565b600081815260046020908152604080832080546001600160a01b03199081169091556001600160a01b0387811680865260038552838620805460001901905590871680865283862080546001019055868652600290945282852080549092168417909155905184937fddf252ad1be2c89b69c2b068fc378daa952ba7f163c4a11628f55a4df523b3ef91a4505050565b816001600160a01b0316836001600160a01b031603610cfd5760405162461bcd60e51b815260206004820152601960248201527f4552433732313a20617070726f766520746f2063616c6c6572000000000000006044820152606401610469565b6001600160a01b03838116600081815260056020908152604080832094871680845294825291829020805460ff191686151590811790915591519182527f17307eab39ab6107e8899845ad3d59bd9653f200f220920489ca2b5937696c31910160405180910390a3505050565b610d75848484610b2b565b610d8184848484610e99565b61068d5760405162461bcd60e51b8152600401610469906115bb565b6060610da8826109fd565b6000610dbf60408051602081019091526000815290565b90506000815111610ddf5760405180602001604052806000815250610e0a565b80610de984610f9a565b604051602001610dfa929190611439565b6040516020818303038152906040525b9392505050565b600181111561068d576001600160a01b03841615610e57576001600160a01b03841660009081526003602052604081208054839290610e51908490611623565b90915550505b6001600160a01b0383161561068d576001600160a01b03831660009081526003602052604081208054839290610e8e908490611636565b909155505050505050565b60006001600160a01b0384163b15610f8f57604051630a85bd0160e11b81526001600160a01b0385169063150b7a0290610edd903390899088908890600401611649565b6020604051808303816000875af1925050508015610f18575060408051601f3d908101601f19168201909252610f1591810190611686565b60015b610f75573d808015610f46576040519150601f19603f3d011682016040523d82523d6000602084013e610f4b565b606091505b508051600003610f6d5760405162461bcd60e51b8152600401610469906115bb565b805181602001fd5b6001600160e01b031916630a85bd0160e11b14905061079b565b506001949350505050565b60606000610fa78361102d565b600101905060008167ffffffffffffffff811115610fc757610fc761128d565b6040519080825280601f01601f191660200182016040528015610ff1576020820181803683370190505b5090508181016020015b600019016f181899199a1a9b1b9c1cb0b131b232b360811b600a86061a8153600a8504945084610ffb57509392505050565b60008072184f03e93ff9f4daa797ed6e38ed64bf6a1f0160401b831061106c5772184f03e93ff9f4daa797ed6e38ed64bf6a1f0160401b830492506040015b6d04ee2d6d415b85acef81000000008310611098576d04ee2d6d415b85acef8100000000830492506020015b662386f26fc1000083106110b657662386f26fc10000830492506010015b6305f5e10083106110ce576305f5e100830492506008015b61271083106110e257612710830492506004015b606483106110f4576064830492506002015b600a83106103365760010192915050565b80356001600160a01b038116811461111c57600080fd5b919050565b60006020828403121561113357600080fd5b610e0a82611105565b6001600160e01b031981168114610a5c57600080fd5b60006020828403121561116457600080fd5b8135610e0a8161113c565b60005b8381101561118a578181015183820152602001611172565b50506000910152565b600081518084526111ab81602086016020860161116f565b601f01601f19169290920160200192915050565b602081526000610e0a6020830184611193565b6000602082840312156111e457600080fd5b5035919050565b600080604083850312156111fe57600080fd5b61120783611105565b946020939093013593505050565b60008060006060848603121561122a57600080fd5b61123384611105565b925061124160208501611105565b9150604084013590509250925092565b6000806040838503121561126457600080fd5b61126d83611105565b91506020830135801515811461128257600080fd5b809150509250929050565b634e487b7160e01b600052604160045260246000fd5b600080600080608085870312156112b957600080fd5b6112c285611105565b93506112d060208601611105565b925060408501359150606085013567ffffffffffffffff808211156112f457600080fd5b818701915087601f83011261130857600080fd5b81358181111561131a5761131a61128d565b604051601f8201601f19908116603f011681019083821181831017156113425761134261128d565b816040528281528a602084870101111561135b57600080fd5b82602086016020830137600060208483010152809550505050505092959194509250565b6000806040838503121561139257600080fd5b61139b83611105565b91506113a960208401611105565b90509250929050565b600181811c908216806113c657607f821691505b6020821081036113e657634e487b7160e01b600052602260045260246000fd5b50919050565b6020808252602d908201527f4552433732313a2063616c6c6572206973206e6f7420746f6b656e206f776e6560408201526c1c881bdc88185c1c1c9bdd9959609a1b606082015260800190565b6000835161144b81846020880161116f565b83519083019061145f81836020880161116f565b01949350505050565b601f82111561050a57600081815260208120601f850160051c8101602086101561148f5750805b601f850160051c820191505b818110156114ae5782815560010161149b565b505050505050565b815167ffffffffffffffff8111156114d0576114d061128d565b6114e4816114de84546113b2565b84611468565b602080601f83116001811461151957600084156115015750858301515b600019600386901b1c1916600185901b1785556114ae565b600085815260208120601f198616915b8281101561154857888601518255948401946001909101908401611529565b50858210156115665787850151600019600388901b60f8161c191681555b5050505050600190811b01905550565b60208082526025908201527f4552433732313a207472616e736665722066726f6d20696e636f72726563742060408201526437bbb732b960d91b606082015260800190565b60208082526032908201527f4552433732313a207472616e7366657220746f206e6f6e20455243373231526560408201527131b2b4bb32b91034b6b83632b6b2b73a32b960711b606082015260800190565b634e487b7160e01b600052601160045260246000fd5b818103818111156103365761033661160d565b808201808211156103365761033661160d565b6001600160a01b038581168252841660208201526040810183905260806060820181905260009061167c90830184611193565b9695505050505050565b60006020828403121561169857600080fd5b8151610e0a8161113c56fea264697066735822122068399b18c779bf7fffb1dd0999402549a1bf379159c19d07dbeb510e78d1d10064736f6c63430008110033",
    "linkReferences": {}
  },
  "methodIdentifiers": {
    "_tokenIds()": "aa46a400",
    "approve(address,uint256)": "095ea7b3",
    "balanceOf(address)": "70a08231",
    "getApproved(uint256)": "081812fc",
    "isApprovedForAll(address,address)": "e985e9c5",
    "marketplace()": "abc8c7af",
    "mintEcstasyNFT(address)": "00977dcd",
    "name()": "06fdde03",
    "ownerOf(uint256)": "6352211e",
    "safeTransferFrom(address,address,uint256)": "42842e0e",
    "safeTransferFrom(address,address,uint256,bytes)": "b88d4fde",
    "setApprovalForAll(address,bool)": "a22cb465",
    "supportsInterface(bytes4)": "01ffc9a7",
    "symbol()": "95d89b41",
    "tokenURI(uint256)": "c87b56dd",
    "transferFrom(address,address,uint256)": "23b872dd"
  },
  "id": 30
}