{
  "abi": [
    {
      "inputs": [
        {
          "internalType": "address payable",
          "name": "_address",
          "type": "address"
        }
      ],
      "stateMutability": "nonpayable",
      "type": "constructor"
    },
    {
      "anonymous": false,
      "inputs": [
        {
          "indexed": true,
          "internalType": "address",
          "name": "owner",
          "type": "address"
        },
        {
          "indexed": true,
          "internalType": "address",
          "name": "approved",
          "type": "address"
        },
        {
          "indexed": true,
          "internalType": "uint256",
          "name": "tokenId",
          "type": "uint256"
        }
      ],
      "name": "Approval",
      "type": "event"
    },
    {
      "anonymous": false,
      "inputs": [
        {
          "indexed": true,
          "internalType": "address",
          "name": "owner",
          "type": "address"
        },
        {
          "indexed": true,
          "internalType": "address",
          "name": "operator",
          "type": "address"
        },
        {
          "indexed": false,
          "internalType": "bool",
          "name": "approved",
          "type": "bool"
        }
      ],
      "name": "ApprovalForAll",
      "type": "event"
    },
    {
      "anonymous": false,
      "inputs": [
        {
          "indexed": true,
          "internalType": "address",
          "name": "from",
          "type": "address"
        },
        {
          "indexed": true,
          "internalType": "address",
          "name": "to",
          "type": "address"
        },
        {
          "indexed": true,
          "internalType": "uint256",
          "name": "tokenId",
          "type": "uint256"
        }
      ],
      "name": "Transfer",
      "type": "event"
    },
    {
      "inputs": [
        {
          "internalType": "address",
          "name": "to",
          "type": "address"
        },
        {
          "internalType": "uint256",
          "name": "tokenId",
          "type": "uint256"
        }
      ],
      "name": "approve",
      "outputs": [],
      "stateMutability": "nonpayable",
      "type": "function"
    },
    {
      "inputs": [
        {
          "internalType": "address",
          "name": "owner",
          "type": "address"
        }
      ],
      "name": "balanceOf",
      "outputs": [
        {
          "internalType": "uint256",
          "name": "",
          "type": "uint256"
        }
      ],
      "stateMutability": "view",
      "type": "function"
    },
    {
      "inputs": [
        {
          "internalType": "uint256",
          "name": "tokenId",
          "type": "uint256"
        }
      ],
      "name": "getApproved",
      "outputs": [
        {
          "internalType": "address",
          "name": "",
          "type": "address"
        }
      ],
      "stateMutability": "view",
      "type": "function"
    },
    {
      "inputs": [
        {
          "internalType": "address",
          "name": "owner",
          "type": "address"
        },
        {
          "internalType": "address",
          "name": "operator",
          "type": "address"
        }
      ],
      "name": "isApprovedForAll",
      "outputs": [
        {
          "internalType": "bool",
          "name": "",
          "type": "bool"
        }
      ],
      "stateMutability": "view",
      "type": "function"
    },
    {
      "inputs": [
        {
          "internalType": "address",
          "name": "to",
          "type": "address"
        }
      ],
      "name": "mintEcstasyNFT",
      "outputs": [],
      "stateMutability": "nonpayable",
      "type": "function"
    },
    {
      "inputs": [],
      "name": "name",
      "outputs": [
        {
          "internalType": "string",
          "name": "",
          "type": "string"
        }
      ],
      "stateMutability": "view",
      "type": "function"
    },
    {
      "inputs": [
        {
          "internalType": "uint256",
          "name": "tokenId",
          "type": "uint256"
        }
      ],
      "name": "ownerOf",
      "outputs": [
        {
          "internalType": "address",
          "name": "",
          "type": "address"
        }
      ],
      "stateMutability": "view",
      "type": "function"
    },
    {
      "inputs": [
        {
          "internalType": "address",
          "name": "from",
          "type": "address"
        },
        {
          "internalType": "address",
          "name": "to",
          "type": "address"
        },
        {
          "internalType": "uint256",
          "name": "tokenId",
          "type": "uint256"
        }
      ],
      "name": "safeTransferFrom",
      "outputs": [],
      "stateMutability": "nonpayable",
      "type": "function"
    },
    {
      "inputs": [
        {
          "internalType": "address",
          "name": "from",
          "type": "address"
        },
        {
          "internalType": "address",
          "name": "to",
          "type": "address"
        },
        {
          "internalType": "uint256",
          "name": "tokenId",
          "type": "uint256"
        },
        {
          "internalType": "bytes",
          "name": "data",
          "type": "bytes"
        }
      ],
      "name": "safeTransferFrom",
      "outputs": [],
      "stateMutability": "nonpayable",
      "type": "function"
    },
    {
      "inputs": [
        {
          "internalType": "address",
          "name": "operator",
          "type": "address"
        },
        {
          "internalType": "bool",
          "name": "approved",
          "type": "bool"
        }
      ],
      "name": "setApprovalForAll",
      "outputs": [],
      "stateMutability": "nonpayable",
      "type": "function"
    },
    {
      "inputs": [
        {
          "internalType": "bytes4",
          "name": "interfaceId",
          "type": "bytes4"
        }
      ],
      "name": "supportsInterface",
      "outputs": [
        {
          "internalType": "bool",
          "name": "",
          "type": "bool"
        }
      ],
      "stateMutability": "view",
      "type": "function"
    },
    {
      "inputs": [],
      "name": "symbol",
      "outputs": [
        {
          "internalType": "string",
          "name": "",
          "type": "string"
        }
      ],
      "stateMutability": "view",
      "type": "function"
    },
    {
      "inputs": [
        {
          "internalType": "uint256",
          "name": "tokenId",
          "type": "uint256"
        }
      ],
      "name": "tokenURI",
      "outputs": [
        {
          "internalType": "string",
          "name": "",
          "type": "string"
        }
      ],
      "stateMutability": "view",
      "type": "function"
    },
    {
      "inputs": [
        {
          "internalType": "address",
          "name": "from",
          "type": "address"
        },
        {
          "internalType": "address",
          "name": "to",
          "type": "address"
        },
        {
          "internalType": "uint256",
          "name": "tokenId",
          "type": "uint256"
        }
      ],
      "name": "transferFrom",
      "outputs": [],
      "stateMutability": "nonpayable",
      "type": "function"
    }
  ],
  "bytecode": {
    "object": "0x60806040523480156200001157600080fd5b50604051620018e5380380620018e58339810160408190526200003491620000be565b6040518060400160405280600a8152602001691158dcdd185cde53919560b21b815250604051806040016040528060048152602001631953919560e21b815250816000908162000085919062000195565b50600162000094828262000195565b5050600880546001600160a01b0319166001600160a01b0393909316929092179091555062000261565b600060208284031215620000d157600080fd5b81516001600160a01b0381168114620000e957600080fd5b9392505050565b634e487b7160e01b600052604160045260246000fd5b600181811c908216806200011b57607f821691505b6020821081036200013c57634e487b7160e01b600052602260045260246000fd5b50919050565b601f8211156200019057600081815260208120601f850160051c810160208610156200016b5750805b601f850160051c820191505b818110156200018c5782815560010162000177565b5050505b505050565b81516001600160401b03811115620001b157620001b1620000f0565b620001c981620001c2845462000106565b8462000142565b602080601f831160018114620002015760008415620001e85750858301515b600019600386901b1c1916600185901b1785556200018c565b600085815260208120601f198616915b82811015620002325788860151825594840194600190910190840162000211565b5085821015620002515787850151600019600388901b60f8161c191681555b5050505050600190811b01905550565b61167480620002716000396000f3fe608060405234801561001057600080fd5b50600436106100e95760003560e01c80636352211e1161008c578063a22cb46511610066578063a22cb465146101e0578063b88d4fde146101f3578063c87b56dd14610206578063e985e9c51461021957600080fd5b80636352211e146101a457806370a08231146101b757806395d89b41146101d857600080fd5b8063081812fc116100c8578063081812fc14610140578063095ea7b31461016b57806323b872dd1461017e57806342842e0e1461019157600080fd5b8062977dcd146100ee57806301ffc9a71461010357806306fdde031461012b575b600080fd5b6101016100fc3660046110bc565b61022c565b005b6101166101113660046110ed565b610285565b60405190151581526020015b60405180910390f35b6101336102d7565b604051610122919061115a565b61015361014e36600461116d565b610369565b6040516001600160a01b039091168152602001610122565b610101610179366004611186565b610390565b61010161018c3660046111b0565b6104aa565b61010161019f3660046111b0565b6104db565b6101536101b236600461116d565b6104f6565b6101ca6101c53660046110bc565b610556565b604051908152602001610122565b6101336105dc565b6101016101ee3660046111ec565b6105eb565b61010161020136600461123e565b6105f6565b61013361021436600461116d565b61062e565b61011661022736600461131a565b61073e565b6008546001600160a01b0316331461024357600080fd5b600061024e60075490565b905061025a828261076c565b6102738160405180602001604052806000815250610905565b610281600780546001019055565b5050565b60006001600160e01b031982166380ac58cd60e01b14806102b657506001600160e01b03198216635b5e139f60e01b145b806102d157506301ffc9a760e01b6001600160e01b03198316145b92915050565b6060600080546102e69061134d565b80601f01602080910402602001604051908101604052809291908181526020018280546103129061134d565b801561035f5780601f106103345761010080835404028352916020019161035f565b820191906000526020600020905b81548152906001019060200180831161034257829003601f168201915b5050505050905090565b600061037482610998565b506000908152600460205260409020546001600160a01b031690565b600061039b826104f6565b9050806001600160a01b0316836001600160a01b03160361040d5760405162461bcd60e51b815260206004820152602160248201527f4552433732313a20617070726f76616c20746f2063757272656e74206f776e656044820152603960f91b60648201526084015b60405180910390fd5b336001600160a01b03821614806104295750610429813361073e565b61049b5760405162461bcd60e51b815260206004820152603d60248201527f4552433732313a20617070726f76652063616c6c6572206973206e6f7420746f60448201527f6b656e206f776e6572206f7220617070726f76656420666f7220616c6c0000006064820152608401610404565b6104a583836109fa565b505050565b6104b43382610a68565b6104d05760405162461bcd60e51b815260040161040490611387565b6104a5838383610ac6565b6104a5838383604051806020016040528060008152506105f6565b6000818152600260205260408120546001600160a01b0316806102d15760405162461bcd60e51b8152602060048201526018602482015277115490cdcc8c4e881a5b9d985b1a59081d1bdad95b88125160421b6044820152606401610404565b60006001600160a01b0382166105c05760405162461bcd60e51b815260206004820152602960248201527f4552433732313a2061646472657373207a65726f206973206e6f7420612076616044820152683634b21037bbb732b960b91b6064820152608401610404565b506001600160a01b031660009081526003602052604090205490565b6060600180546102e69061134d565b610281338383610c37565b6106003383610a68565b61061c5760405162461bcd60e51b815260040161040490611387565b61062884848484610d05565b50505050565b606061063982610998565b600082815260066020526040812080546106529061134d565b80601f016020809104026020016040519081016040528092919081815260200182805461067e9061134d565b80156106cb5780601f106106a0576101008083540402835291602001916106cb565b820191906000526020600020905b8154815290600101906020018083116106ae57829003601f168201915b5050505050905060006106e960408051602081019091526000815290565b905080516000036106fb575092915050565b81511561072d5780826040516020016107159291906113d4565b60405160208183030381529060405292505050919050565b61073684610d38565b949350505050565b6001600160a01b03918216600090815260056020908152604080832093909416825291909152205460ff1690565b6001600160a01b0382166107c25760405162461bcd60e51b815260206004820181905260248201527f4552433732313a206d696e7420746f20746865207a65726f20616464726573736044820152606401610404565b6000818152600260205260409020546001600160a01b0316156108275760405162461bcd60e51b815260206004820152601c60248201527f4552433732313a20746f6b656e20616c7265616479206d696e746564000000006044820152606401610404565b610835600083836001610dac565b6000818152600260205260409020546001600160a01b03161561089a5760405162461bcd60e51b815260206004820152601c60248201527f4552433732313a20746f6b656e20616c7265616479206d696e746564000000006044820152606401610404565b6001600160a01b038216600081815260036020908152604080832080546001019055848352600290915280822080546001600160a01b0319168417905551839291907fddf252ad1be2c89b69c2b068fc378daa952ba7f163c4a11628f55a4df523b3ef908290a45050565b6000828152600260205260409020546001600160a01b03166109805760405162461bcd60e51b815260206004820152602e60248201527f45524337323155524953746f726167653a2055524920736574206f66206e6f6e60448201526d32bc34b9ba32b73a103a37b5b2b760911b6064820152608401610404565b60008281526006602052604090206104a58282611451565b6000818152600260205260409020546001600160a01b03166109f75760405162461bcd60e51b8152602060048201526018602482015277115490cdcc8c4e881a5b9d985b1a59081d1bdad95b88125160421b6044820152606401610404565b50565b600081815260046020526040902080546001600160a01b0319166001600160a01b0384169081179091558190610a2f826104f6565b6001600160a01b03167f8c5be1e5ebec7d5bd14f71427d1e84f3dd0314c0f7b2291e5b200ac8c7c3b92560405160405180910390a45050565b600080610a74836104f6565b9050806001600160a01b0316846001600160a01b03161480610a9b5750610a9b818561073e565b806107365750836001600160a01b0316610ab484610369565b6001600160a01b031614949350505050565b826001600160a01b0316610ad9826104f6565b6001600160a01b031614610aff5760405162461bcd60e51b815260040161040490611511565b6001600160a01b038216610b615760405162461bcd60e51b8152602060048201526024808201527f4552433732313a207472616e7366657220746f20746865207a65726f206164646044820152637265737360e01b6064820152608401610404565b610b6e8383836001610dac565b826001600160a01b0316610b81826104f6565b6001600160a01b031614610ba75760405162461bcd60e51b815260040161040490611511565b600081815260046020908152604080832080546001600160a01b03199081169091556001600160a01b0387811680865260038552838620805460001901905590871680865283862080546001019055868652600290945282852080549092168417909155905184937fddf252ad1be2c89b69c2b068fc378daa952ba7f163c4a11628f55a4df523b3ef91a4505050565b816001600160a01b0316836001600160a01b031603610c985760405162461bcd60e51b815260206004820152601960248201527f4552433732313a20617070726f766520746f2063616c6c6572000000000000006044820152606401610404565b6001600160a01b03838116600081815260056020908152604080832094871680845294825291829020805460ff191686151590811790915591519182527f17307eab39ab6107e8899845ad3d59bd9653f200f220920489ca2b5937696c31910160405180910390a3505050565b610d10848484610ac6565b610d1c84848484610e34565b6106285760405162461bcd60e51b815260040161040490611556565b6060610d4382610998565b6000610d5a60408051602081019091526000815290565b90506000815111610d7a5760405180602001604052806000815250610da5565b80610d8484610f35565b604051602001610d959291906113d4565b6040516020818303038152906040525b9392505050565b6001811115610628576001600160a01b03841615610df2576001600160a01b03841660009081526003602052604081208054839290610dec9084906115be565b90915550505b6001600160a01b03831615610628576001600160a01b03831660009081526003602052604081208054839290610e299084906115d1565b909155505050505050565b60006001600160a01b0384163b15610f2a57604051630a85bd0160e11b81526001600160a01b0385169063150b7a0290610e789033908990889088906004016115e4565b6020604051808303816000875af1925050508015610eb3575060408051601f3d908101601f19168201909252610eb091810190611621565b60015b610f10573d808015610ee1576040519150601f19603f3d011682016040523d82523d6000602084013e610ee6565b606091505b508051600003610f085760405162461bcd60e51b815260040161040490611556565b805181602001fd5b6001600160e01b031916630a85bd0160e11b149050610736565b506001949350505050565b60606000610f4283610fc8565b600101905060008167ffffffffffffffff811115610f6257610f62611228565b6040519080825280601f01601f191660200182016040528015610f8c576020820181803683370190505b5090508181016020015b600019016f181899199a1a9b1b9c1cb0b131b232b360811b600a86061a8153600a8504945084610f9657509392505050565b60008072184f03e93ff9f4daa797ed6e38ed64bf6a1f0160401b83106110075772184f03e93ff9f4daa797ed6e38ed64bf6a1f0160401b830492506040015b6d04ee2d6d415b85acef81000000008310611033576d04ee2d6d415b85acef8100000000830492506020015b662386f26fc10000831061105157662386f26fc10000830492506010015b6305f5e1008310611069576305f5e100830492506008015b612710831061107d57612710830492506004015b6064831061108f576064830492506002015b600a83106102d15760010192915050565b80356001600160a01b03811681146110b757600080fd5b919050565b6000602082840312156110ce57600080fd5b610da5826110a0565b6001600160e01b0319811681146109f757600080fd5b6000602082840312156110ff57600080fd5b8135610da5816110d7565b60005b8381101561112557818101518382015260200161110d565b50506000910152565b6000815180845261114681602086016020860161110a565b601f01601f19169290920160200192915050565b602081526000610da5602083018461112e565b60006020828403121561117f57600080fd5b5035919050565b6000806040838503121561119957600080fd5b6111a2836110a0565b946020939093013593505050565b6000806000606084860312156111c557600080fd5b6111ce846110a0565b92506111dc602085016110a0565b9150604084013590509250925092565b600080604083850312156111ff57600080fd5b611208836110a0565b91506020830135801515811461121d57600080fd5b809150509250929050565b634e487b7160e01b600052604160045260246000fd5b6000806000806080858703121561125457600080fd5b61125d856110a0565b935061126b602086016110a0565b925060408501359150606085013567ffffffffffffffff8082111561128f57600080fd5b818701915087601f8301126112a357600080fd5b8135818111156112b5576112b5611228565b604051601f8201601f19908116603f011681019083821181831017156112dd576112dd611228565b816040528281528a60208487010111156112f657600080fd5b82602086016020830137600060208483010152809550505050505092959194509250565b6000806040838503121561132d57600080fd5b611336836110a0565b9150611344602084016110a0565b90509250929050565b600181811c9082168061136157607f821691505b60208210810361138157634e487b7160e01b600052602260045260246000fd5b50919050565b6020808252602d908201527f4552433732313a2063616c6c6572206973206e6f7420746f6b656e206f776e6560408201526c1c881bdc88185c1c1c9bdd9959609a1b606082015260800190565b600083516113e681846020880161110a565b8351908301906113fa81836020880161110a565b01949350505050565b601f8211156104a557600081815260208120601f850160051c8101602086101561142a5750805b601f850160051c820191505b8181101561144957828155600101611436565b505050505050565b815167ffffffffffffffff81111561146b5761146b611228565b61147f81611479845461134d565b84611403565b602080601f8311600181146114b4576000841561149c5750858301515b600019600386901b1c1916600185901b178555611449565b600085815260208120601f198616915b828110156114e3578886015182559484019460019091019084016114c4565b50858210156115015787850151600019600388901b60f8161c191681555b5050505050600190811b01905550565b60208082526025908201527f4552433732313a207472616e736665722066726f6d20696e636f72726563742060408201526437bbb732b960d91b606082015260800190565b60208082526032908201527f4552433732313a207472616e7366657220746f206e6f6e20455243373231526560408201527131b2b4bb32b91034b6b83632b6b2b73a32b960711b606082015260800190565b634e487b7160e01b600052601160045260246000fd5b818103818111156102d1576102d16115a8565b808201808211156102d1576102d16115a8565b6001600160a01b03858116825284166020820152604081018390526080606082018190526000906116179083018461112e565b9695505050505050565b60006020828403121561163357600080fd5b8151610da5816110d756fea2646970667358221220a11dc0917add57110de1c07624d3c250af87f85fe182aadff3aff5c90b82b5aa64736f6c63430008110033",
    "linkReferences": {}
  },
  "methodIdentifiers": {
    "approve(address,uint256)": "095ea7b3",
    "balanceOf(address)": "70a08231",
    "getApproved(uint256)": "081812fc",
    "isApprovedForAll(address,address)": "e985e9c5",
    "mintEcstasyNFT(address)": "00977dcd",
    "name()": "06fdde03",
    "ownerOf(uint256)": "6352211e",
    "safeTransferFrom(address,address,uint256)": "42842e0e",
    "safeTransferFrom(address,address,uint256,bytes)": "b88d4fde",
    "setApprovalForAll(address,bool)": "a22cb465",
    "supportsInterface(bytes4)": "01ffc9a7",
    "symbol()": "95d89b41",
    "tokenURI(uint256)": "c87b56dd",
    "transferFrom(address,address,uint256)": "23b872dd"
  },
  "id": 30
}