{
  "abi": [
    {
      "inputs": [
        {
          "internalType": "uint256",
          "name": "_minting_fee",
          "type": "uint256"
        },
        {
          "internalType": "uint256",
          "name": "_auctionFee",
          "type": "uint256"
        },
        {
          "internalType": "uint256",
          "name": "_auctionDuration",
          "type": "uint256"
        }
      ],
      "stateMutability": "nonpayable",
      "type": "constructor"
    },
    {
      "anonymous": false,
      "inputs": [
        {
          "indexed": true,
          "internalType": "address",
          "name": "previousOwner",
          "type": "address"
        },
        {
          "indexed": true,
          "internalType": "address",
          "name": "newOwner",
          "type": "address"
        }
      ],
      "name": "OwnershipTransferred",
      "type": "event"
    },
    {
      "inputs": [],
      "name": "auctionCounter",
      "outputs": [
        {
          "internalType": "uint256",
          "name": "",
          "type": "uint256"
        }
      ],
      "stateMutability": "view",
      "type": "function"
    },
    {
      "inputs": [],
      "name": "auctionDuration",
      "outputs": [
        {
          "internalType": "uint256",
          "name": "",
          "type": "uint256"
        }
      ],
      "stateMutability": "view",
      "type": "function"
    },
    {
      "inputs": [],
      "name": "auctionFee",
      "outputs": [
        {
          "internalType": "uint256",
          "name": "",
          "type": "uint256"
        }
      ],
      "stateMutability": "view",
      "type": "function"
    },
    {
      "inputs": [
        {
          "internalType": "uint256",
          "name": "",
          "type": "uint256"
        }
      ],
      "name": "auctions",
      "outputs": [
        {
          "internalType": "address",
          "name": "nftAddress",
          "type": "address"
        },
        {
          "internalType": "uint256",
          "name": "tokenId",
          "type": "uint256"
        },
        {
          "internalType": "uint256",
          "name": "minimumStake",
          "type": "uint256"
        },
        {
          "internalType": "uint256",
          "name": "startTime",
          "type": "uint256"
        },
        {
          "internalType": "uint256",
          "name": "endTime",
          "type": "uint256"
        },
        {
          "internalType": "address",
          "name": "listor",
          "type": "address"
        },
        {
          "internalType": "uint256",
          "name": "lastBid",
          "type": "uint256"
        },
        {
          "internalType": "address",
          "name": "lastBidder",
          "type": "address"
        }
      ],
      "stateMutability": "view",
      "type": "function"
    },
    {
      "inputs": [
        {
          "internalType": "uint256",
          "name": "uniqueId",
          "type": "uint256"
        }
      ],
      "name": "bid",
      "outputs": [],
      "stateMutability": "payable",
      "type": "function"
    },
    {
      "inputs": [
        {
          "internalType": "uint256",
          "name": "listingID",
          "type": "uint256"
        }
      ],
      "name": "buyNFT_Single",
      "outputs": [],
      "stateMutability": "payable",
      "type": "function"
    },
    {
      "inputs": [
        {
          "internalType": "uint256",
          "name": "listingId",
          "type": "uint256"
        }
      ],
      "name": "cancelListing",
      "outputs": [],
      "stateMutability": "nonpayable",
      "type": "function"
    },
    {
      "inputs": [
        {
          "internalType": "uint256",
          "name": "uniqueId",
          "type": "uint256"
        }
      ],
      "name": "claimMyFunds",
      "outputs": [],
      "stateMutability": "nonpayable",
      "type": "function"
    },
    {
      "inputs": [
        {
          "internalType": "address",
          "name": "nftAddress",
          "type": "address"
        },
        {
          "internalType": "uint256",
          "name": "tokenId",
          "type": "uint256"
        },
        {
          "internalType": "uint256",
          "name": "minimumStake",
          "type": "uint256"
        }
      ],
      "name": "createAuction",
      "outputs": [],
      "stateMutability": "payable",
      "type": "function"
    },
    {
      "inputs": [],
      "name": "getAllNFTs",
      "outputs": [
        {
          "components": [
            {
              "internalType": "address",
              "name": "NFTAddress",
              "type": "address"
            },
            {
              "internalType": "address",
              "name": "listor",
              "type": "address"
            },
            {
              "internalType": "uint256",
              "name": "tokenID",
              "type": "uint256"
            },
            {
              "internalType": "uint256",
              "name": "listingPrice",
              "type": "uint256"
            },
            {
              "internalType": "uint256",
              "name": "timestamp",
              "type": "uint256"
            }
          ],
          "internalType": "struct EcstasyMKT.listedNFT[]",
          "name": "",
          "type": "tuple[]"
        }
      ],
      "stateMutability": "view",
      "type": "function"
    },
    {
      "inputs": [
        {
          "internalType": "uint256",
          "name": "uniqueId",
          "type": "uint256"
        }
      ],
      "name": "getLastBid",
      "outputs": [
        {
          "internalType": "uint256",
          "name": "",
          "type": "uint256"
        }
      ],
      "stateMutability": "view",
      "type": "function"
    },
    {
      "inputs": [],
      "name": "getLatestPrice",
      "outputs": [
        {
          "internalType": "int256",
          "name": "",
          "type": "int256"
        }
      ],
      "stateMutability": "view",
      "type": "function"
    },
    {
      "inputs": [
        {
          "internalType": "uint256",
          "name": "uniqueId",
          "type": "uint256"
        }
      ],
      "name": "isOpen",
      "outputs": [
        {
          "internalType": "bool",
          "name": "",
          "type": "bool"
        }
      ],
      "stateMutability": "view",
      "type": "function"
    },
    {
      "inputs": [
        {
          "internalType": "address",
          "name": "_tokenAddress",
          "type": "address"
        },
        {
          "internalType": "uint256",
          "name": "tokenId",
          "type": "uint256"
        },
        {
          "internalType": "uint256",
          "name": "listingPrice_in_MATIC",
          "type": "uint256"
        }
      ],
      "name": "listMyNFTforSale",
      "outputs": [],
      "stateMutability": "payable",
      "type": "function"
    },
    {
      "inputs": [],
      "name": "listedNFTCount",
      "outputs": [
        {
          "internalType": "uint256",
          "name": "",
          "type": "uint256"
        }
      ],
      "stateMutability": "view",
      "type": "function"
    },
    {
      "inputs": [],
      "name": "mintEcstasy",
      "outputs": [],
      "stateMutability": "payable",
      "type": "function"
    },
    {
      "inputs": [],
      "name": "minting_fee",
      "outputs": [
        {
          "internalType": "uint256",
          "name": "",
          "type": "uint256"
        }
      ],
      "stateMutability": "view",
      "type": "function"
    },
    {
      "inputs": [],
      "name": "numberOfActiveAuctions",
      "outputs": [
        {
          "internalType": "uint256",
          "name": "",
          "type": "uint256"
        }
      ],
      "stateMutability": "view",
      "type": "function"
    },
    {
      "inputs": [],
      "name": "numberOfNftsSold",
      "outputs": [
        {
          "internalType": "uint256",
          "name": "",
          "type": "uint256"
        }
      ],
      "stateMutability": "view",
      "type": "function"
    },
    {
      "inputs": [],
      "name": "owner",
      "outputs": [
        {
          "internalType": "address",
          "name": "",
          "type": "address"
        }
      ],
      "stateMutability": "view",
      "type": "function"
    },
    {
      "inputs": [],
      "name": "renounceOwnership",
      "outputs": [],
      "stateMutability": "nonpayable",
      "type": "function"
    },
    {
      "inputs": [
        {
          "internalType": "uint256",
          "name": "_amount",
          "type": "uint256"
        }
      ],
      "name": "setMintingFee",
      "outputs": [],
      "stateMutability": "nonpayable",
      "type": "function"
    },
    {
      "inputs": [
        {
          "internalType": "address",
          "name": "newOwner",
          "type": "address"
        }
      ],
      "name": "transferOwnership",
      "outputs": [],
      "stateMutability": "nonpayable",
      "type": "function"
    },
    {
      "inputs": [
        {
          "internalType": "uint256",
          "name": "listedTokenID",
          "type": "uint256"
        },
        {
          "internalType": "uint256",
          "name": "listingPrice_in_MATIC",
          "type": "uint256"
        }
      ],
      "name": "updateListingPrice",
      "outputs": [],
      "stateMutability": "payable",
      "type": "function"
    },
    {
      "stateMutability": "payable",
      "type": "receive"
    }
  ],
  "bytecode": {
    "object": "0x60806040526000600255600060035560006009553480156200002057600080fd5b50604051620030d5380380620030d5833981016040819052620000439162000198565b81818115801562000052575080155b15620000915760405162461bcd60e51b815260206004820152600a60248201526916995c9bc8125b9c1d5d60b21b604482015260640160405180910390fd5b6000919091556001908155600555620000aa3362000138565b600880546001600160a01b03191673ab594600376ec9fd91f8e885dadf0ce036862de01790556040513090620000e0906200018a565b6001600160a01b039091168152602001604051809103906000f0801580156200010d573d6000803e3d6000fd5b50600780546001600160a01b0319166001600160a01b039290921691909117905550620001c7915050565b600680546001600160a01b038381166001600160a01b0319831681179093556040519116919082907f8be0079c531659141344cd1fd0a4f28419497f9722a3daafe3b4186f6b6457e090600090a35050565b6118e580620017f083390190565b600080600060608486031215620001ae57600080fd5b8351925060208401519150604084015190509250925092565b61161980620001d76000396000f3fe60806040526004361061014f5760003560e01c80637dafaa08116100b6578063c46049431161006f578063c4604943146103fe578063d09b198514610411578063df88ea1a14610424578063e0391b0914610444578063e8603bd614610466578063f2fde38b1461046e57600080fd5b80637dafaa081461036c5780638da5cb5b146103825780638e15f473146103aa578063a7e76644146103bf578063abb94051146103d5578063c3355b8d146103e857600080fd5b8063454a2ab311610108578063454a2ab3146102225780634ad8a0a0146102355780634d6861a61461024a578063571a26a01461028d5780635a5f8d4114610344578063715018a61461035757600080fd5b80630cbf54c81461015b57806314525b6b14610184578063238a47091461019a578063305a67a8146101bc57806330b6208a146101dc578063421d54001461020c57600080fd5b3661015657005b600080fd5b34801561016757600080fd5b5061017160015481565b6040519081526020015b60405180910390f35b34801561019057600080fd5b5061017160005481565b3480156101a657600080fd5b506101ba6101b536600461138c565b61048e565b005b3480156101c857600080fd5b506101ba6101d736600461138c565b6104e3565b3480156101e857600080fd5b506101716101f736600461138c565b60009081526004602052604090206006015490565b34801561021857600080fd5b5061017160095481565b6101ba61023036600461138c565b61059c565b34801561024157600080fd5b50600954610171565b34801561025657600080fd5b5061027d61026536600461138c565b60009081526004602081905260409091200154421090565b604051901515815260200161017b565b34801561029957600080fd5b506102f86102a836600461138c565b6004602081905260009182526040909120805460018201546002830154600384015494840154600585015460068601546007909601546001600160a01b0395861697949693959293918316921688565b604080516001600160a01b03998a168152602081019890985287019590955260608601939093526080850191909152841660a084015260c083015290911660e08201526101000161017b565b6101ba61035236600461138c565b61072a565b34801561036357600080fd5b506101ba6108bd565b34801561037857600080fd5b5061017160025481565b34801561038e57600080fd5b506006546040516001600160a01b03909116815260200161017b565b3480156103b657600080fd5b506101716108d1565b3480156103cb57600080fd5b5061017160035481565b6101ba6103e33660046113c1565b610967565b3480156103f457600080fd5b50610171600c5481565b6101ba61040c3660046113f4565b610b32565b6101ba61041f3660046113c1565b610c76565b34801561043057600080fd5b506101ba61043f36600461138c565b610e13565b34801561045057600080fd5b50610459610fec565b60405161017b9190611416565b6101ba61111f565b34801561047a57600080fd5b506101ba610489366004611490565b6111db565b610496611251565b600081116104de5760405162461bcd60e51b815260206004820152601060248201526f1154948e8816995c9bc8105b5bdd5b9d60821b60448201526064015b60405180910390fd5b600c55565b6000818152600a60205260409020600101546001600160a01b0316331461055f5760405162461bcd60e51b815260206004820152602a60248201527f4552523a20596f75206469646e277420746865204e46542c20796f752063616e6044820152691b9bdd0818d85b98d95b60b21b60648201526084016104d5565b6000908152600a6020526040812080546001600160a01b031990811682556001820180549091169055600481018290556003810182905560020155565b6000818152600460208190526040909120015442106105f15760405162461bcd60e51b8152602060048201526011602482015270105d58dd1a5bdb881a5cc818db1bdcd959607a1b60448201526064016104d5565b6000818152600460205260409020600201543410156106525760405162461bcd60e51b815260206004820152601f60248201527f426964206d757374206d65657420746865206d696e696d756d207374616b650060448201526064016104d5565b60008181526004602052604090206006015434116106be5760405162461bcd60e51b8152602060048201526024808201527f426964206d75737420626520686967686572207468616e20746865206c61737460448201526308189a5960e21b60648201526084016104d5565b600081815260046020526040808220600781018054600690920180546001600160a01b03198416331790925534905591516001600160a01b0390911692839183156108fc0291849190818181858888f19350505050158015610724573d6000803e3d6000fd5b50505050565b6107326112ab565b6000818152600a6020908152604091829020825160a08101845281546001600160a01b039081168252600183015416928101929092526002810154928201929092526003820154606082018190526004909201546080820152903410156107ea5760405162461bcd60e51b815260206004820152602660248201527f4552523a20596f75206469646e27742070617920656e6f75676820666f7220746044820152651a194813919560d21b60648201526084016104d5565b80516040808301516020808501516000878152600a90925283822080546001600160a01b03199081168255600182018054909116905560048082018490556003820184905560029091019290925592516323b872dd60e01b81523091810191909152336024820152604481018290529091906001600160a01b038416906323b872dd90606401600060405180830381600087803b15801561088a57600080fd5b505af115801561089e573d6000803e3d6000fd5b505050506108ac8134611304565b505050506108ba6001600555565b50565b6108c5611251565b6108cf600061133a565b565b600080600860009054906101000a90046001600160a01b03166001600160a01b031663feaf968c6040518163ffffffff1660e01b815260040160a060405180830381865afa158015610927573d6000803e3d6000fd5b505050506040513d601f19601f8201168201806040525081019061094b91906114cc565b5050509150506305f5e100816109619190611532565b91505090565b6000543410156109b95760405162461bcd60e51b815260206004820152601860248201527f4552523a2041554354494f4e20464545204e4f54204d4554000000000000000060448201526064016104d5565b6040516323b872dd60e01b8152336004820152306024820152604481018390526001600160a01b038416906323b872dd90606401600060405180830381600087803b158015610a0757600080fd5b505af1158015610a1b573d6000803e3d6000fd5b505060038054925090506000610a308361156e565b909155505060028054906000610a458361156e565b9190505550604051806101000160405280846001600160a01b0316815260200183815260200182815260200142815260200160015442610a859190611587565b815233602080830191909152600060408084018290526060938401829052600380548352600480855292829020865181546001600160a01b039182166001600160a01b0319918216178355958801516001830155928701516002820155948601519085015560808501519184019190915560a084015160058401805491831691841691909117905560c0840151600684015560e09093015160079092018054929093169116179055505050565b6000828152600a6020908152604091829020825160a08101845281546001600160a01b039081168252600183015416928101839052600282015493810193909352600381015460608401526004015460808301523314610bf15760405162461bcd60e51b815260206004820152603460248201527f4552523a20596f75206469646e2774206c6973742069742c20796f752063616e6044820152736e6f74207570646174652069747320707269636560601b60648201526084016104d5565b6080810151610c039062278d00611587565b4211610c605760405162461bcd60e51b815260206004820152602660248201527f4552523a204c697374696e672074696d65206973206c657373207468616e203360448201526530206461797360d01b60648201526084016104d5565b506000918252600a602052604090912060030155565b610c7e6112ab565b600c54341015610cc95760405162461bcd60e51b815260206004820152601660248201527522a9291d1026b4b73a34b733afb332b29022b93937b960511b60448201526064016104d5565b6040516323b872dd60e01b8152336004820152306024820152604481018390526001600160a01b038416906323b872dd90606401600060405180830381600087803b158015610d1757600080fd5b505af1158015610d2b573d6000803e3d6000fd5b50506040805160a0810182526001600160a01b0380881682523360208084018281528486018a8152606086018a81524260808801908152600980546000908152600a87528a812099518a54908a166001600160a01b0319918216178b5595516001808c01805492909b169190971617909855925160028901559051600388015551600490960195909555828452600b82529483209354845480870186558585529184209091015581529082018054929450925090610dea908490611587565b909155505060098054906000610dff8361156e565b9190505550610e0e6001600555565b505050565b333014610e765760405162461bcd60e51b815260206004820152602b60248201527f4f6e6c79207468652061756374696f6e6565722063616e20706572666f726d2060448201526a3a3434b99030b1ba34b7b760a91b60648201526084016104d5565b60008181526004602081905260409091200154421015610ed05760405162461bcd60e51b815260206004820152601560248201527420bab1ba34b7b71034b99039ba34b6361037b832b760591b60448201526064016104d5565b600081815260046020526040902060078101546006909101546001600160a01b039091169081610f4c5760405162461bcd60e51b815260206004820152602160248201527f4e6f20626964732077657265206d616465206f6e20746869732061756374696f6044820152603760f91b60648201526084016104d5565b6040513090819083156108fc029084906000818181858888f19350505050158015610f7b573d6000803e3d6000fd5b506000848152600460208190526040822080546001600160a01b03199081168255600182018490556002808301859055600383018590559282018490556005820180548216905560068201849055600790910180549091169055805491610fe1836115a0565b919050555050505050565b6060600060095467ffffffffffffffff81111561100b5761100b6115b7565b60405190808252806020026020018201604052801561108057816020015b61106d6040518060a0016040528060006001600160a01b0316815260200160006001600160a01b031681526020016000815260200160008152602001600081525090565b8152602001906001900390816110295790505b50905060005b600954811015611119576000818152600a6020908152604091829020825160a08101845281546001600160a01b0390811682526001830154169281019290925260028101549282019290925260038201546060820152600490910154608082015282518390839081106110fb576110fb6115cd565b602002602001018190525080806111119061156e565b915050611086565b50919050565b600c543410156111845760405162461bcd60e51b815260206004820152602a60248201527f4552523a20506c656173652070617920656e6f75676820666f7220746865204560448201526918dcdd185cde4813919560b21b60648201526084016104d5565b60075460405162977dcd60e01b81523360048201526001600160a01b039091169062977dcd90602401600060405180830381600087803b1580156111c757600080fd5b505af1158015610724573d6000803e3d6000fd5b6111e3611251565b6001600160a01b0381166112485760405162461bcd60e51b815260206004820152602660248201527f4f776e61626c653a206e6577206f776e657220697320746865207a65726f206160448201526564647265737360d01b60648201526084016104d5565b6108ba8161133a565b6006546001600160a01b031633146108cf5760405162461bcd60e51b815260206004820181905260248201527f4f776e61626c653a2063616c6c6572206973206e6f7420746865206f776e657260448201526064016104d5565b6002600554036112fd5760405162461bcd60e51b815260206004820152601f60248201527f5265656e7472616e637947756172643a207265656e7472616e742063616c6c0060448201526064016104d5565b6002600555565b6040516001600160a01b0383169082156108fc029083906000818181858888f19350505050158015610e0e573d6000803e3d6000fd5b600680546001600160a01b038381166001600160a01b0319831681179093556040519116919082907f8be0079c531659141344cd1fd0a4f28419497f9722a3daafe3b4186f6b6457e090600090a35050565b60006020828403121561139e57600080fd5b5035919050565b80356001600160a01b03811681146113bc57600080fd5b919050565b6000806000606084860312156113d657600080fd5b6113df846113a5565b95602085013595506040909401359392505050565b6000806040838503121561140757600080fd5b50508035926020909101359150565b602080825282518282018190526000919060409081850190868401855b8281101561148357815180516001600160a01b0390811686528782015116878601528581015186860152606080820151908601526080908101519085015260a09093019290850190600101611433565b5091979650505050505050565b6000602082840312156114a257600080fd5b6114ab826113a5565b9392505050565b805169ffffffffffffffffffff811681146113bc57600080fd5b600080600080600060a086880312156114e457600080fd5b6114ed866114b2565b9450602086015193506040860151925060608601519150611510608087016114b2565b90509295509295909350565b634e487b7160e01b600052601160045260246000fd5b60008261154f57634e487b7160e01b600052601260045260246000fd5b600160ff1b8214600019841416156115695761156961151c565b500590565b6000600182016115805761158061151c565b5060010190565b8082018082111561159a5761159a61151c565b92915050565b6000816115af576115af61151c565b506000190190565b634e487b7160e01b600052604160045260246000fd5b634e487b7160e01b600052603260045260246000fdfea26469706673582212200e23564a88b491210f8413954f022ba6e1f9a3db70303e802e1c47537360dfcb64736f6c6343000811003360806040523480156200001157600080fd5b50604051620018e5380380620018e58339810160408190526200003491620000be565b6040518060400160405280600a8152602001691150dcdd185cde53919560b21b815250604051806040016040528060048152602001631953919560e21b815250816000908162000085919062000195565b50600162000094828262000195565b5050600880546001600160a01b0319166001600160a01b0393909316929092179091555062000261565b600060208284031215620000d157600080fd5b81516001600160a01b0381168114620000e957600080fd5b9392505050565b634e487b7160e01b600052604160045260246000fd5b600181811c908216806200011b57607f821691505b6020821081036200013c57634e487b7160e01b600052602260045260246000fd5b50919050565b601f8211156200019057600081815260208120601f850160051c810160208610156200016b5750805b601f850160051c820191505b818110156200018c5782815560010162000177565b5050505b505050565b81516001600160401b03811115620001b157620001b1620000f0565b620001c981620001c2845462000106565b8462000142565b602080601f831160018114620002015760008415620001e85750858301515b600019600386901b1c1916600185901b1785556200018c565b600085815260208120601f198616915b82811015620002325788860151825594840194600190910190840162000211565b5085821015620002515787850151600019600388901b60f8161c191681555b5050505050600190811b01905550565b61167480620002716000396000f3fe608060405234801561001057600080fd5b50600436106100e95760003560e01c80636352211e1161008c578063a22cb46511610066578063a22cb465146101e0578063b88d4fde146101f3578063c87b56dd14610206578063e985e9c51461021957600080fd5b80636352211e146101a457806370a08231146101b757806395d89b41146101d857600080fd5b8063081812fc116100c8578063081812fc14610140578063095ea7b31461016b57806323b872dd1461017e57806342842e0e1461019157600080fd5b8062977dcd146100ee57806301ffc9a71461010357806306fdde031461012b575b600080fd5b6101016100fc3660046110bc565b61022c565b005b6101166101113660046110ed565b610285565b60405190151581526020015b60405180910390f35b6101336102d7565b604051610122919061115a565b61015361014e36600461116d565b610369565b6040516001600160a01b039091168152602001610122565b610101610179366004611186565b610390565b61010161018c3660046111b0565b6104aa565b61010161019f3660046111b0565b6104db565b6101536101b236600461116d565b6104f6565b6101ca6101c53660046110bc565b610556565b604051908152602001610122565b6101336105dc565b6101016101ee3660046111ec565b6105eb565b61010161020136600461123e565b6105f6565b61013361021436600461116d565b61062e565b61011661022736600461131a565b61073e565b6008546001600160a01b0316331461024357600080fd5b600061024e60075490565b905061025a828261076c565b6102738160405180602001604052806000815250610905565b610281600780546001019055565b5050565b60006001600160e01b031982166380ac58cd60e01b14806102b657506001600160e01b03198216635b5e139f60e01b145b806102d157506301ffc9a760e01b6001600160e01b03198316145b92915050565b6060600080546102e69061134d565b80601f01602080910402602001604051908101604052809291908181526020018280546103129061134d565b801561035f5780601f106103345761010080835404028352916020019161035f565b820191906000526020600020905b81548152906001019060200180831161034257829003601f168201915b5050505050905090565b600061037482610998565b506000908152600460205260409020546001600160a01b031690565b600061039b826104f6565b9050806001600160a01b0316836001600160a01b03160361040d5760405162461bcd60e51b815260206004820152602160248201527f4552433732313a20617070726f76616c20746f2063757272656e74206f776e656044820152603960f91b60648201526084015b60405180910390fd5b336001600160a01b03821614806104295750610429813361073e565b61049b5760405162461bcd60e51b815260206004820152603d60248201527f4552433732313a20617070726f76652063616c6c6572206973206e6f7420746f60448201527f6b656e206f776e6572206f7220617070726f76656420666f7220616c6c0000006064820152608401610404565b6104a583836109fa565b505050565b6104b43382610a68565b6104d05760405162461bcd60e51b815260040161040490611387565b6104a5838383610ac6565b6104a5838383604051806020016040528060008152506105f6565b6000818152600260205260408120546001600160a01b0316806102d15760405162461bcd60e51b8152602060048201526018602482015277115490cdcc8c4e881a5b9d985b1a59081d1bdad95b88125160421b6044820152606401610404565b60006001600160a01b0382166105c05760405162461bcd60e51b815260206004820152602960248201527f4552433732313a2061646472657373207a65726f206973206e6f7420612076616044820152683634b21037bbb732b960b91b6064820152608401610404565b506001600160a01b031660009081526003602052604090205490565b6060600180546102e69061134d565b610281338383610c37565b6106003383610a68565b61061c5760405162461bcd60e51b815260040161040490611387565b61062884848484610d05565b50505050565b606061063982610998565b600082815260066020526040812080546106529061134d565b80601f016020809104026020016040519081016040528092919081815260200182805461067e9061134d565b80156106cb5780601f106106a0576101008083540402835291602001916106cb565b820191906000526020600020905b8154815290600101906020018083116106ae57829003601f168201915b5050505050905060006106e960408051602081019091526000815290565b905080516000036106fb575092915050565b81511561072d5780826040516020016107159291906113d4565b60405160208183030381529060405292505050919050565b61073684610d38565b949350505050565b6001600160a01b03918216600090815260056020908152604080832093909416825291909152205460ff1690565b6001600160a01b0382166107c25760405162461bcd60e51b815260206004820181905260248201527f4552433732313a206d696e7420746f20746865207a65726f20616464726573736044820152606401610404565b6000818152600260205260409020546001600160a01b0316156108275760405162461bcd60e51b815260206004820152601c60248201527f4552433732313a20746f6b656e20616c7265616479206d696e746564000000006044820152606401610404565b610835600083836001610dac565b6000818152600260205260409020546001600160a01b03161561089a5760405162461bcd60e51b815260206004820152601c60248201527f4552433732313a20746f6b656e20616c7265616479206d696e746564000000006044820152606401610404565b6001600160a01b038216600081815260036020908152604080832080546001019055848352600290915280822080546001600160a01b0319168417905551839291907fddf252ad1be2c89b69c2b068fc378daa952ba7f163c4a11628f55a4df523b3ef908290a45050565b6000828152600260205260409020546001600160a01b03166109805760405162461bcd60e51b815260206004820152602e60248201527f45524337323155524953746f726167653a2055524920736574206f66206e6f6e60448201526d32bc34b9ba32b73a103a37b5b2b760911b6064820152608401610404565b60008281526006602052604090206104a58282611451565b6000818152600260205260409020546001600160a01b03166109f75760405162461bcd60e51b8152602060048201526018602482015277115490cdcc8c4e881a5b9d985b1a59081d1bdad95b88125160421b6044820152606401610404565b50565b600081815260046020526040902080546001600160a01b0319166001600160a01b0384169081179091558190610a2f826104f6565b6001600160a01b03167f8c5be1e5ebec7d5bd14f71427d1e84f3dd0314c0f7b2291e5b200ac8c7c3b92560405160405180910390a45050565b600080610a74836104f6565b9050806001600160a01b0316846001600160a01b03161480610a9b5750610a9b818561073e565b806107365750836001600160a01b0316610ab484610369565b6001600160a01b031614949350505050565b826001600160a01b0316610ad9826104f6565b6001600160a01b031614610aff5760405162461bcd60e51b815260040161040490611511565b6001600160a01b038216610b615760405162461bcd60e51b8152602060048201526024808201527f4552433732313a207472616e7366657220746f20746865207a65726f206164646044820152637265737360e01b6064820152608401610404565b610b6e8383836001610dac565b826001600160a01b0316610b81826104f6565b6001600160a01b031614610ba75760405162461bcd60e51b815260040161040490611511565b600081815260046020908152604080832080546001600160a01b03199081169091556001600160a01b0387811680865260038552838620805460001901905590871680865283862080546001019055868652600290945282852080549092168417909155905184937fddf252ad1be2c89b69c2b068fc378daa952ba7f163c4a11628f55a4df523b3ef91a4505050565b816001600160a01b0316836001600160a01b031603610c985760405162461bcd60e51b815260206004820152601960248201527f4552433732313a20617070726f766520746f2063616c6c6572000000000000006044820152606401610404565b6001600160a01b03838116600081815260056020908152604080832094871680845294825291829020805460ff191686151590811790915591519182527f17307eab39ab6107e8899845ad3d59bd9653f200f220920489ca2b5937696c31910160405180910390a3505050565b610d10848484610ac6565b610d1c84848484610e34565b6106285760405162461bcd60e51b815260040161040490611556565b6060610d4382610998565b6000610d5a60408051602081019091526000815290565b90506000815111610d7a5760405180602001604052806000815250610da5565b80610d8484610f35565b604051602001610d959291906113d4565b6040516020818303038152906040525b9392505050565b6001811115610628576001600160a01b03841615610df2576001600160a01b03841660009081526003602052604081208054839290610dec9084906115be565b90915550505b6001600160a01b03831615610628576001600160a01b03831660009081526003602052604081208054839290610e299084906115d1565b909155505050505050565b60006001600160a01b0384163b15610f2a57604051630a85bd0160e11b81526001600160a01b0385169063150b7a0290610e789033908990889088906004016115e4565b6020604051808303816000875af1925050508015610eb3575060408051601f3d908101601f19168201909252610eb091810190611621565b60015b610f10573d808015610ee1576040519150601f19603f3d011682016040523d82523d6000602084013e610ee6565b606091505b508051600003610f085760405162461bcd60e51b815260040161040490611556565b805181602001fd5b6001600160e01b031916630a85bd0160e11b149050610736565b506001949350505050565b60606000610f4283610fc8565b600101905060008167ffffffffffffffff811115610f6257610f62611228565b6040519080825280601f01601f191660200182016040528015610f8c576020820181803683370190505b5090508181016020015b600019016f181899199a1a9b1b9c1cb0b131b232b360811b600a86061a8153600a8504945084610f9657509392505050565b60008072184f03e93ff9f4daa797ed6e38ed64bf6a1f0160401b83106110075772184f03e93ff9f4daa797ed6e38ed64bf6a1f0160401b830492506040015b6d04ee2d6d415b85acef81000000008310611033576d04ee2d6d415b85acef8100000000830492506020015b662386f26fc10000831061105157662386f26fc10000830492506010015b6305f5e1008310611069576305f5e100830492506008015b612710831061107d57612710830492506004015b6064831061108f576064830492506002015b600a83106102d15760010192915050565b80356001600160a01b03811681146110b757600080fd5b919050565b6000602082840312156110ce57600080fd5b610da5826110a0565b6001600160e01b0319811681146109f757600080fd5b6000602082840312156110ff57600080fd5b8135610da5816110d7565b60005b8381101561112557818101518382015260200161110d565b50506000910152565b6000815180845261114681602086016020860161110a565b601f01601f19169290920160200192915050565b602081526000610da5602083018461112e565b60006020828403121561117f57600080fd5b5035919050565b6000806040838503121561119957600080fd5b6111a2836110a0565b946020939093013593505050565b6000806000606084860312156111c557600080fd5b6111ce846110a0565b92506111dc602085016110a0565b9150604084013590509250925092565b600080604083850312156111ff57600080fd5b611208836110a0565b91506020830135801515811461121d57600080fd5b809150509250929050565b634e487b7160e01b600052604160045260246000fd5b6000806000806080858703121561125457600080fd5b61125d856110a0565b935061126b602086016110a0565b925060408501359150606085013567ffffffffffffffff8082111561128f57600080fd5b818701915087601f8301126112a357600080fd5b8135818111156112b5576112b5611228565b604051601f8201601f19908116603f011681019083821181831017156112dd576112dd611228565b816040528281528a60208487010111156112f657600080fd5b82602086016020830137600060208483010152809550505050505092959194509250565b6000806040838503121561132d57600080fd5b611336836110a0565b9150611344602084016110a0565b90509250929050565b600181811c9082168061136157607f821691505b60208210810361138157634e487b7160e01b600052602260045260246000fd5b50919050565b6020808252602d908201527f4552433732313a2063616c6c6572206973206e6f7420746f6b656e206f776e6560408201526c1c881bdc88185c1c1c9bdd9959609a1b606082015260800190565b600083516113e681846020880161110a565b8351908301906113fa81836020880161110a565b01949350505050565b601f8211156104a557600081815260208120601f850160051c8101602086101561142a5750805b601f850160051c820191505b8181101561144957828155600101611436565b505050505050565b815167ffffffffffffffff81111561146b5761146b611228565b61147f81611479845461134d565b84611403565b602080601f8311600181146114b4576000841561149c5750858301515b600019600386901b1c1916600185901b178555611449565b600085815260208120601f198616915b828110156114e3578886015182559484019460019091019084016114c4565b50858210156115015787850151600019600388901b60f8161c191681555b5050505050600190811b01905550565b60208082526025908201527f4552433732313a207472616e736665722066726f6d20696e636f72726563742060408201526437bbb732b960d91b606082015260800190565b60208082526032908201527f4552433732313a207472616e7366657220746f206e6f6e20455243373231526560408201527131b2b4bb32b91034b6b83632b6b2b73a32b960711b606082015260800190565b634e487b7160e01b600052601160045260246000fd5b818103818111156102d1576102d16115a8565b808201808211156102d1576102d16115a8565b6001600160a01b03858116825284166020820152604081018390526080606082018190526000906116179083018461112e565b9695505050505050565b60006020828403121561163357600080fd5b8151610da5816110d756fea26469706673582212201f4b76a67eba8cd90a350e07a1140d48ee7355e2c7511649a2258fbae437816364736f6c63430008110033",
    "linkReferences": {}
  },
  "methodIdentifiers": {
    "auctionCounter()": "a7e76644",
    "auctionDuration()": "0cbf54c8",
    "auctionFee()": "14525b6b",
    "auctions(uint256)": "571a26a0",
    "bid(uint256)": "454a2ab3",
    "buyNFT_Single(uint256)": "5a5f8d41",
    "cancelListing(uint256)": "305a67a8",
    "claimMyFunds(uint256)": "df88ea1a",
    "createAuction(address,uint256,uint256)": "abb94051",
    "getAllNFTs()": "e0391b09",
    "getLastBid(uint256)": "30b6208a",
    "getLatestPrice()": "8e15f473",
    "isOpen(uint256)": "4d6861a6",
    "listMyNFTforSale(address,uint256,uint256)": "d09b1985",
    "listedNFTCount()": "421d5400",
    "mintEcstasy()": "e8603bd6",
    "minting_fee()": "c3355b8d",
    "numberOfActiveAuctions()": "7dafaa08",
    "numberOfNftsSold()": "4ad8a0a0",
    "owner()": "8da5cb5b",
    "renounceOwnership()": "715018a6",
    "setMintingFee(uint256)": "238a4709",
    "transferOwnership(address)": "f2fde38b",
    "updateListingPrice(uint256,uint256)": "c4604943"
  },
  "id": 32
}