{
  "abi": [
    {
      "inputs": [
        {
          "internalType": "address",
          "name": "",
          "type": "address"
        }
      ],
      "stateMutability": "nonpayable",
      "type": "constructor"
    },
    {
      "anonymous": false,
      "inputs": [
        {
          "indexed": true,
          "internalType": "address",
          "name": "owner",
          "type": "address"
        },
        {
          "indexed": true,
          "internalType": "address",
          "name": "approved",
          "type": "address"
        },
        {
          "indexed": true,
          "internalType": "uint256",
          "name": "tokenId",
          "type": "uint256"
        }
      ],
      "name": "Approval",
      "type": "event"
    },
    {
      "anonymous": false,
      "inputs": [
        {
          "indexed": true,
          "internalType": "address",
          "name": "owner",
          "type": "address"
        },
        {
          "indexed": true,
          "internalType": "address",
          "name": "operator",
          "type": "address"
        },
        {
          "indexed": false,
          "internalType": "bool",
          "name": "approved",
          "type": "bool"
        }
      ],
      "name": "ApprovalForAll",
      "type": "event"
    },
    {
      "anonymous": false,
      "inputs": [
        {
          "indexed": false,
          "internalType": "uint256",
          "name": "auctionIndex",
          "type": "uint256"
        },
        {
          "indexed": false,
          "internalType": "uint256",
          "name": "nftId",
          "type": "uint256"
        },
        {
          "indexed": false,
          "internalType": "address",
          "name": "claimedBy",
          "type": "address"
        }
      ],
      "name": "NFTClaimed",
      "type": "event"
    },
    {
      "anonymous": false,
      "inputs": [
        {
          "indexed": false,
          "internalType": "uint256",
          "name": "auctionIndex",
          "type": "uint256"
        },
        {
          "indexed": false,
          "internalType": "uint256",
          "name": "nftId",
          "type": "uint256"
        },
        {
          "indexed": false,
          "internalType": "address",
          "name": "claimedBy",
          "type": "address"
        }
      ],
      "name": "NFTRefunded",
      "type": "event"
    },
    {
      "anonymous": false,
      "inputs": [
        {
          "indexed": false,
          "internalType": "uint256",
          "name": "index",
          "type": "uint256"
        },
        {
          "indexed": false,
          "internalType": "address",
          "name": "addressNFTCollection",
          "type": "address"
        },
        {
          "indexed": false,
          "internalType": "address",
          "name": "addressPaymentToken",
          "type": "address"
        },
        {
          "indexed": false,
          "internalType": "uint256",
          "name": "nftId",
          "type": "uint256"
        },
        {
          "indexed": false,
          "internalType": "address",
          "name": "mintedBy",
          "type": "address"
        },
        {
          "indexed": false,
          "internalType": "address",
          "name": "currentBidOwner",
          "type": "address"
        },
        {
          "indexed": false,
          "internalType": "uint256",
          "name": "currentBidPrice",
          "type": "uint256"
        },
        {
          "indexed": false,
          "internalType": "uint256",
          "name": "endAuction",
          "type": "uint256"
        },
        {
          "indexed": false,
          "internalType": "uint256",
          "name": "bidCount",
          "type": "uint256"
        }
      ],
      "name": "NewAuction",
      "type": "event"
    },
    {
      "anonymous": false,
      "inputs": [
        {
          "indexed": false,
          "internalType": "uint256",
          "name": "auctionIndex",
          "type": "uint256"
        },
        {
          "indexed": false,
          "internalType": "uint256",
          "name": "newBid",
          "type": "uint256"
        }
      ],
      "name": "NewBidOnAuction",
      "type": "event"
    },
    {
      "anonymous": false,
      "inputs": [
        {
          "indexed": true,
          "internalType": "uint256",
          "name": "tokenId",
          "type": "uint256"
        },
        {
          "indexed": false,
          "internalType": "address",
          "name": "owner",
          "type": "address"
        },
        {
          "indexed": false,
          "internalType": "address",
          "name": "seller",
          "type": "address"
        },
        {
          "indexed": false,
          "internalType": "uint256",
          "name": "price",
          "type": "uint256"
        },
        {
          "indexed": false,
          "internalType": "bool",
          "name": "currentlyListed",
          "type": "bool"
        }
      ],
      "name": "TokenListedSuccess",
      "type": "event"
    },
    {
      "anonymous": false,
      "inputs": [
        {
          "indexed": false,
          "internalType": "uint256",
          "name": "auctionIndex",
          "type": "uint256"
        },
        {
          "indexed": false,
          "internalType": "uint256",
          "name": "nftId",
          "type": "uint256"
        },
        {
          "indexed": false,
          "internalType": "address",
          "name": "claimedBy",
          "type": "address"
        }
      ],
      "name": "TokensClaimed",
      "type": "event"
    },
    {
      "anonymous": false,
      "inputs": [
        {
          "indexed": true,
          "internalType": "address",
          "name": "from",
          "type": "address"
        },
        {
          "indexed": true,
          "internalType": "address",
          "name": "to",
          "type": "address"
        },
        {
          "indexed": true,
          "internalType": "uint256",
          "name": "tokenId",
          "type": "uint256"
        }
      ],
      "name": "Transfer",
      "type": "event"
    },
    {
      "inputs": [],
      "name": "EXCHANGE_PER_NFT",
      "outputs": [
        {
          "internalType": "uint256",
          "name": "",
          "type": "uint256"
        }
      ],
      "stateMutability": "view",
      "type": "function"
    },
    {
      "inputs": [],
      "name": "MAX_NFT_BUYABLE",
      "outputs": [
        {
          "internalType": "uint256",
          "name": "",
          "type": "uint256"
        }
      ],
      "stateMutability": "view",
      "type": "function"
    },
    {
      "inputs": [],
      "name": "MAX_NFT_SUPPLY",
      "outputs": [
        {
          "internalType": "uint256",
          "name": "",
          "type": "uint256"
        }
      ],
      "stateMutability": "view",
      "type": "function"
    },
    {
      "inputs": [],
      "name": "MoMo",
      "outputs": [
        {
          "internalType": "string",
          "name": "",
          "type": "string"
        }
      ],
      "stateMutability": "view",
      "type": "function"
    },
    {
      "inputs": [],
      "name": "NAME_CHANGE_PRICE",
      "outputs": [
        {
          "internalType": "uint256",
          "name": "",
          "type": "uint256"
        }
      ],
      "stateMutability": "view",
      "type": "function"
    },
    {
      "inputs": [],
      "name": "REWARD_PER_NFT",
      "outputs": [
        {
          "internalType": "uint256",
          "name": "",
          "type": "uint256"
        }
      ],
      "stateMutability": "view",
      "type": "function"
    },
    {
      "inputs": [
        {
          "internalType": "address",
          "name": "to",
          "type": "address"
        },
        {
          "internalType": "uint256",
          "name": "tokenId",
          "type": "uint256"
        }
      ],
      "name": "approve",
      "outputs": [],
      "stateMutability": "nonpayable",
      "type": "function"
    },
    {
      "inputs": [
        {
          "internalType": "address",
          "name": "owner",
          "type": "address"
        }
      ],
      "name": "balanceOf",
      "outputs": [
        {
          "internalType": "uint256",
          "name": "",
          "type": "uint256"
        }
      ],
      "stateMutability": "view",
      "type": "function"
    },
    {
      "inputs": [
        {
          "internalType": "uint256",
          "name": "_auctionIndex",
          "type": "uint256"
        },
        {
          "internalType": "uint256",
          "name": "_newBid",
          "type": "uint256"
        }
      ],
      "name": "bid",
      "outputs": [
        {
          "internalType": "bool",
          "name": "",
          "type": "bool"
        }
      ],
      "stateMutability": "nonpayable",
      "type": "function"
    },
    {
      "inputs": [
        {
          "internalType": "uint256",
          "name": "numberOfNfts",
          "type": "uint256"
        }
      ],
      "name": "buy",
      "outputs": [],
      "stateMutability": "payable",
      "type": "function"
    },
    {
      "inputs": [
        {
          "internalType": "uint256",
          "name": "_auctionIndex",
          "type": "uint256"
        }
      ],
      "name": "claimNFT",
      "outputs": [],
      "stateMutability": "nonpayable",
      "type": "function"
    },
    {
      "inputs": [
        {
          "internalType": "uint256",
          "name": "_auctionIndex",
          "type": "uint256"
        }
      ],
      "name": "claimToken",
      "outputs": [],
      "stateMutability": "nonpayable",
      "type": "function"
    },
    {
      "inputs": [
        {
          "internalType": "address",
          "name": "_addressNFTCollection",
          "type": "address"
        },
        {
          "internalType": "address",
          "name": "_addressPaymentToken",
          "type": "address"
        },
        {
          "internalType": "uint256",
          "name": "_nftId",
          "type": "uint256"
        },
        {
          "internalType": "uint256",
          "name": "_initialBid",
          "type": "uint256"
        },
        {
          "internalType": "uint256",
          "name": "_endAuction",
          "type": "uint256"
        }
      ],
      "name": "createAuction",
      "outputs": [
        {
          "internalType": "uint256",
          "name": "",
          "type": "uint256"
        }
      ],
      "stateMutability": "nonpayable",
      "type": "function"
    },
    {
      "inputs": [
        {
          "internalType": "string",
          "name": "tokenURI",
          "type": "string"
        },
        {
          "internalType": "uint256",
          "name": "price",
          "type": "uint256"
        }
      ],
      "name": "createToken",
      "outputs": [
        {
          "internalType": "uint256",
          "name": "",
          "type": "uint256"
        }
      ],
      "stateMutability": "payable",
      "type": "function"
    },
    {
      "inputs": [
        {
          "internalType": "uint256",
          "name": "tokenId",
          "type": "uint256"
        }
      ],
      "name": "executeSale",
      "outputs": [],
      "stateMutability": "payable",
      "type": "function"
    },
    {
      "inputs": [],
      "name": "getAllNFTs",
      "outputs": [
        {
          "components": [
            {
              "internalType": "uint256",
              "name": "tokenId",
              "type": "uint256"
            },
            {
              "internalType": "address payable",
              "name": "owner",
              "type": "address"
            },
            {
              "internalType": "address payable",
              "name": "seller",
              "type": "address"
            },
            {
              "internalType": "uint256",
              "name": "price",
              "type": "uint256"
            },
            {
              "internalType": "bool",
              "name": "currentlyListed",
              "type": "bool"
            }
          ],
          "internalType": "struct MoNFTMarketPlace.ListedToken[]",
          "name": "",
          "type": "tuple[]"
        }
      ],
      "stateMutability": "view",
      "type": "function"
    },
    {
      "inputs": [
        {
          "internalType": "uint256",
          "name": "tokenId",
          "type": "uint256"
        }
      ],
      "name": "getApproved",
      "outputs": [
        {
          "internalType": "address",
          "name": "",
          "type": "address"
        }
      ],
      "stateMutability": "view",
      "type": "function"
    },
    {
      "inputs": [
        {
          "internalType": "uint256",
          "name": "_auctionIndex",
          "type": "uint256"
        }
      ],
      "name": "getCurrentBidOwner",
      "outputs": [
        {
          "internalType": "address",
          "name": "",
          "type": "address"
        }
      ],
      "stateMutability": "view",
      "type": "function"
    },
    {
      "inputs": [],
      "name": "getCurrentToken",
      "outputs": [
        {
          "internalType": "uint256",
          "name": "",
          "type": "uint256"
        }
      ],
      "stateMutability": "view",
      "type": "function"
    },
    {
      "inputs": [
        {
          "internalType": "uint256",
          "name": "_auctionIndex",
          "type": "uint256"
        }
      ],
      "name": "getHighestBid",
      "outputs": [
        {
          "internalType": "uint256",
          "name": "",
          "type": "uint256"
        }
      ],
      "stateMutability": "view",
      "type": "function"
    },
    {
      "inputs": [],
      "name": "getLatestIdToListedToken",
      "outputs": [
        {
          "components": [
            {
              "internalType": "uint256",
              "name": "tokenId",
              "type": "uint256"
            },
            {
              "internalType": "address payable",
              "name": "owner",
              "type": "address"
            },
            {
              "internalType": "address payable",
              "name": "seller",
              "type": "address"
            },
            {
              "internalType": "uint256",
              "name": "price",
              "type": "uint256"
            },
            {
              "internalType": "bool",
              "name": "currentlyListed",
              "type": "bool"
            }
          ],
          "internalType": "struct MoNFTMarketPlace.ListedToken",
          "name": "",
          "type": "tuple"
        }
      ],
      "stateMutability": "view",
      "type": "function"
    },
    {
      "inputs": [],
      "name": "getLatestPrice",
      "outputs": [
        {
          "internalType": "int256",
          "name": "",
          "type": "int256"
        }
      ],
      "stateMutability": "view",
      "type": "function"
    },
    {
      "inputs": [
        {
          "internalType": "uint256",
          "name": "tokenId",
          "type": "uint256"
        }
      ],
      "name": "getListedTokenForId",
      "outputs": [
        {
          "components": [
            {
              "internalType": "uint256",
              "name": "tokenId",
              "type": "uint256"
            },
            {
              "internalType": "address payable",
              "name": "owner",
              "type": "address"
            },
            {
              "internalType": "address payable",
              "name": "seller",
              "type": "address"
            },
            {
              "internalType": "uint256",
              "name": "price",
              "type": "uint256"
            },
            {
              "internalType": "bool",
              "name": "currentlyListed",
              "type": "bool"
            }
          ],
          "internalType": "struct MoNFTMarketPlace.ListedToken",
          "name": "",
          "type": "tuple"
        }
      ],
      "stateMutability": "view",
      "type": "function"
    },
    {
      "inputs": [],
      "name": "getListingPrice",
      "outputs": [
        {
          "internalType": "uint256",
          "name": "",
          "type": "uint256"
        }
      ],
      "stateMutability": "view",
      "type": "function"
    },
    {
      "inputs": [],
      "name": "getMyNFTs",
      "outputs": [
        {
          "components": [
            {
              "internalType": "uint256",
              "name": "tokenId",
              "type": "uint256"
            },
            {
              "internalType": "address payable",
              "name": "owner",
              "type": "address"
            },
            {
              "internalType": "address payable",
              "name": "seller",
              "type": "address"
            },
            {
              "internalType": "uint256",
              "name": "price",
              "type": "uint256"
            },
            {
              "internalType": "bool",
              "name": "currentlyListed",
              "type": "bool"
            }
          ],
          "internalType": "struct MoNFTMarketPlace.ListedToken[]",
          "name": "",
          "type": "tuple[]"
        }
      ],
      "stateMutability": "view",
      "type": "function"
    },
    {
      "inputs": [],
      "name": "index",
      "outputs": [
        {
          "internalType": "uint256",
          "name": "",
          "type": "uint256"
        }
      ],
      "stateMutability": "view",
      "type": "function"
    },
    {
      "inputs": [
        {
          "internalType": "address",
          "name": "owner",
          "type": "address"
        },
        {
          "internalType": "address",
          "name": "operator",
          "type": "address"
        }
      ],
      "name": "isApprovedForAll",
      "outputs": [
        {
          "internalType": "bool",
          "name": "",
          "type": "bool"
        }
      ],
      "stateMutability": "view",
      "type": "function"
    },
    {
      "inputs": [
        {
          "internalType": "uint256",
          "name": "_auctionIndex",
          "type": "uint256"
        }
      ],
      "name": "isOpen",
      "outputs": [
        {
          "internalType": "bool",
          "name": "",
          "type": "bool"
        }
      ],
      "stateMutability": "view",
      "type": "function"
    },
    {
      "inputs": [],
      "name": "name",
      "outputs": [
        {
          "internalType": "string",
          "name": "",
          "type": "string"
        }
      ],
      "stateMutability": "view",
      "type": "function"
    },
    {
      "inputs": [],
      "name": "numberOfNftsSold",
      "outputs": [
        {
          "internalType": "uint256",
          "name": "",
          "type": "uint256"
        }
      ],
      "stateMutability": "view",
      "type": "function"
    },
    {
      "inputs": [
        {
          "internalType": "uint256",
          "name": "tokenId",
          "type": "uint256"
        }
      ],
      "name": "ownerOf",
      "outputs": [
        {
          "internalType": "address",
          "name": "",
          "type": "address"
        }
      ],
      "stateMutability": "view",
      "type": "function"
    },
    {
      "inputs": [
        {
          "internalType": "uint256",
          "name": "_auctionIndex",
          "type": "uint256"
        }
      ],
      "name": "refund",
      "outputs": [],
      "stateMutability": "nonpayable",
      "type": "function"
    },
    {
      "inputs": [
        {
          "internalType": "address",
          "name": "from",
          "type": "address"
        },
        {
          "internalType": "address",
          "name": "to",
          "type": "address"
        },
        {
          "internalType": "uint256",
          "name": "tokenId",
          "type": "uint256"
        }
      ],
      "name": "safeTransferFrom",
      "outputs": [],
      "stateMutability": "nonpayable",
      "type": "function"
    },
    {
      "inputs": [
        {
          "internalType": "address",
          "name": "from",
          "type": "address"
        },
        {
          "internalType": "address",
          "name": "to",
          "type": "address"
        },
        {
          "internalType": "uint256",
          "name": "tokenId",
          "type": "uint256"
        },
        {
          "internalType": "bytes",
          "name": "data",
          "type": "bytes"
        }
      ],
      "name": "safeTransferFrom",
      "outputs": [],
      "stateMutability": "nonpayable",
      "type": "function"
    },
    {
      "inputs": [
        {
          "internalType": "address",
          "name": "operator",
          "type": "address"
        },
        {
          "internalType": "bool",
          "name": "approved",
          "type": "bool"
        }
      ],
      "name": "setApprovalForAll",
      "outputs": [],
      "stateMutability": "nonpayable",
      "type": "function"
    },
    {
      "inputs": [
        {
          "internalType": "bytes4",
          "name": "interfaceId",
          "type": "bytes4"
        }
      ],
      "name": "supportsInterface",
      "outputs": [
        {
          "internalType": "bool",
          "name": "",
          "type": "bool"
        }
      ],
      "stateMutability": "view",
      "type": "function"
    },
    {
      "inputs": [],
      "name": "symbol",
      "outputs": [
        {
          "internalType": "string",
          "name": "",
          "type": "string"
        }
      ],
      "stateMutability": "view",
      "type": "function"
    },
    {
      "inputs": [
        {
          "internalType": "uint256",
          "name": "tokenId",
          "type": "uint256"
        }
      ],
      "name": "tokenURI",
      "outputs": [
        {
          "internalType": "string",
          "name": "",
          "type": "string"
        }
      ],
      "stateMutability": "view",
      "type": "function"
    },
    {
      "inputs": [
        {
          "internalType": "address",
          "name": "from",
          "type": "address"
        },
        {
          "internalType": "address",
          "name": "to",
          "type": "address"
        },
        {
          "internalType": "uint256",
          "name": "tokenId",
          "type": "uint256"
        }
      ],
      "name": "transferFrom",
      "outputs": [],
      "stateMutability": "nonpayable",
      "type": "function"
    },
    {
      "inputs": [
        {
          "internalType": "uint256",
          "name": "_listPrice",
          "type": "uint256"
        }
      ],
      "name": "updateListingPrice",
      "outputs": [],
      "stateMutability": "payable",
      "type": "function"
    }
  ],
  "bytecode": {
    "object": "0x60806040526000600955662386f26fc10000600f553480156200002157600080fd5b506040516200398d3803806200398d8339810160408190526200004491620000ef565b6040518060400160405280601081526020016f4d6f4e46544d61726b6574506c61636560801b815250604051806040016040528060068152602001654d6f4e46544d60d01b81525081600090816200009d9190620001c6565b506001620000ac8282620001c6565b505060016007555050600e80546001600160a01b031990811633179091556011805490911673d4a33860578de61dbabdc8bfdb98fd742fa7028e17905562000292565b6000602082840312156200010257600080fd5b81516001600160a01b03811681146200011a57600080fd5b9392505050565b634e487b7160e01b600052604160045260246000fd5b600181811c908216806200014c57607f821691505b6020821081036200016d57634e487b7160e01b600052602260045260246000fd5b50919050565b601f821115620001c157600081815260208120601f850160051c810160208610156200019c5750805b601f850160051c820191505b81811015620001bd57828155600101620001a8565b5050505b505050565b81516001600160401b03811115620001e257620001e262000121565b620001fa81620001f3845462000137565b8462000173565b602080601f831160018114620002325760008415620002195750858301515b600019600386901b1c1916600185901b178555620001bd565b600085815260208120601f198616915b82811015620002635788860151825594840194600190910190840162000242565b5085821015620002825787850151600019600388901b60f8161c191681555b5050505050600190811b01905550565b6136eb80620002a26000396000f3fe60806040526004361061023b5760003560e01c80638e2645901161012e578063bc2bb6c9116100ab578063e0391b091161006f578063e0391b0914610645578063e959c36a1461065a578063e985e9c514610672578063ef2d1746146106bb578063fe5c873a146106d057600080fd5b8063bc2bb6c9146105d0578063c87b56dd146105e5578063d1a88ae514610605578063d96a094a1461061a578063dca75bd41461062d57600080fd5b8063a22cb465116100f2578063a22cb46514610547578063a9e7c2e514610567578063ae677aa314610587578063b5077f441461059a578063b88d4fde146105b057600080fd5b80638e264590146104bc5780638f288644146104e95780639093ec5a1461050957806395d89b411461051f5780639b1225c41461053457600080fd5b80634ad8a0a0116101bc5780636352211e116101805780636352211e1461043457806370a082311461045457806372b3b6201461047457806386b46073146104875780638e15f473146104a757600080fd5b80634ad8a0a0146103a65780634d6861a6146103bb57806354b6f161146103db578063598647f8146103f2578063629cb2e41461041257600080fd5b806323b872dd1161020357806323b872dd14610310578063278ecde1146103305780632986c0e514610350578063310bf5831461036657806342842e0e1461038657600080fd5b806301ffc9a71461024057806306fdde0314610275578063081812fc14610297578063095ea7b3146102cf57806312e85585146102f1575b600080fd5b34801561024c57600080fd5b5061026061025b366004612dec565b6106f0565b60405190151581526020015b60405180910390f35b34801561028157600080fd5b5061028a610742565b60405161026c9190612e59565b3480156102a357600080fd5b506102b76102b2366004612e6c565b6107d4565b6040516001600160a01b03909116815260200161026c565b3480156102db57600080fd5b506102ef6102ea366004612e9a565b6107fb565b005b3480156102fd57600080fd5b50600f545b60405190815260200161026c565b34801561031c57600080fd5b506102ef61032b366004612ec6565b610915565b34801561033c57600080fd5b506102ef61034b366004612e6c565b610946565b34801561035c57600080fd5b5061030260095481565b34801561037257600080fd5b50610302610381366004612f07565b610afb565b34801561039257600080fd5b506102ef6103a1366004612ec6565b611108565b3480156103b257600080fd5b50600a54610302565b3480156103c757600080fd5b506102606103d6366004612e6c565b611123565b3480156103e757600080fd5b506103026289544081565b3480156103fe57600080fd5b5061026061040d366004612f58565b611166565b34801561041e57600080fd5b506104276114a3565b60405161026c9190612fba565b34801561044057600080fd5b506102b761044f366004612e6c565b6116cc565b34801561046057600080fd5b5061030261046f366004613008565b61172c565b6103026104823660046130b1565b6117b2565b34801561049357600080fd5b506102b76104a2366004612e6c565b6117ea565b3480156104b357600080fd5b50610302611844565b3480156104c857600080fd5b506104dc6104d7366004612e6c565b6118d3565b60405161026c919061310a565b3480156104f557600080fd5b50610302610504366004612e6c565b61193d565b34801561051557600080fd5b50610302610bb881565b34801561052b57600080fd5b5061028a61198d565b6102ef610542366004612e6c565b61199c565b34801561055357600080fd5b506102ef610562366004613126565b611b00565b34801561057357600080fd5b506102ef610582366004612e6c565b611b0f565b6102ef610595366004612e6c565b611cf3565b3480156105a657600080fd5b5061030261271081565b3480156105bc57600080fd5b506102ef6105cb36600461315f565b611d5e565b3480156105dc57600080fd5b5061028a611d90565b3480156105f157600080fd5b5061028a610600366004612e6c565b611e1e565b34801561061157600080fd5b506104dc611f2e565b6102ef610628366004612e6c565b611fa5565b34801561063957600080fd5b50610302630225510081565b34801561065157600080fd5b506104276120d4565b34801561066657600080fd5b50610302630112a88081565b34801561067e57600080fd5b5061026061068d3660046131df565b6001600160a01b03918216600090815260056020908152604080832093909416825291909152205460ff1690565b3480156106c757600080fd5b506103026121ff565b3480156106dc57600080fd5b506102ef6106eb366004612e6c565b61220f565b60006001600160e01b031982166380ac58cd60e01b148061072157506001600160e01b03198216635b5e139f60e01b145b8061073c57506301ffc9a760e01b6001600160e01b03198316145b92915050565b6060600080546107519061320d565b80601f016020809104026020016040519081016040528092919081815260200182805461077d9061320d565b80156107ca5780601f1061079f576101008083540402835291602001916107ca565b820191906000526020600020905b8154815290600101906020018083116107ad57829003601f168201915b5050505050905090565b60006107df8261244f565b506000908152600460205260409020546001600160a01b031690565b6000610806826116cc565b9050806001600160a01b0316836001600160a01b0316036108785760405162461bcd60e51b815260206004820152602160248201527f4552433732313a20617070726f76616c20746f2063757272656e74206f776e656044820152603960f91b60648201526084015b60405180910390fd5b336001600160a01b03821614806108945750610894813361068d565b6109065760405162461bcd60e51b815260206004820152603d60248201527f4552433732313a20617070726f76652063616c6c6572206973206e6f7420746f60448201527f6b656e206f776e6572206f7220617070726f76656420666f7220616c6c000000606482015260840161086f565b61091083836124ae565b505050565b61091f338261251c565b61093b5760405162461bcd60e51b815260040161086f90613247565b61091083838361259a565b60125481106109675760405162461bcd60e51b815260040161086f90613294565b61097081611123565b1561098d5760405162461bcd60e51b815260040161086f906132c3565b6000601282815481106109a2576109a26132f2565b600091825260209091206004600990920201908101549091506001600160a01b031633146109e25760405162461bcd60e51b815260040161086f90613308565b60058101546001600160a01b031615610a3d5760405162461bcd60e51b815260206004820152601f60248201527f4578697374696e6720626964657220666f7220746869732061756374696f6e00604482015260640161086f565b600181015460048083015460038401546040516323b872dd60e01b81526001600160a01b039485169485946323b872dd94610a8094309491909316929101613365565b600060405180830381600087803b158015610a9a57600080fd5b505af1158015610aae573d6000803e3d6000fd5b5050505060038201546040805185815260208101929092523382820152517f7dfbb77cc823ba323508cf4299ef206c31bf00a33e43ac269c79f793f6bd12c79181900360600190a1505050565b6000853b610b5b5760405162461bcd60e51b815260206004820152602760248201527f496e76616c6964204e465420436f6c6c656374696f6e20636f6e7472616374206044820152666164647265737360c81b606482015260840161086f565b843b610bb85760405162461bcd60e51b815260206004820152602660248201527f496e76616c6964205061796d656e7420546f6b656e20636f6e7472616374206160448201526564647265737360d01b606482015260840161086f565b428211610c075760405162461bcd60e51b815260206004820152601c60248201527f496e76616c696420656e64206461746520666f722061756374696f6e00000000604482015260640161086f565b60008311610c575760405162461bcd60e51b815260206004820152601960248201527f496e76616c696420696e697469616c2062696420707269636500000000000000604482015260640161086f565b6040516331a9108f60e11b815260048101859052869033906001600160a01b03831690636352211e90602401602060405180830381865afa158015610ca0573d6000803e3d6000fd5b505050506040513d601f19601f82011682018060405250810190610cc49190613389565b6001600160a01b031614610d255760405162461bcd60e51b815260206004820152602260248201527f43616c6c6572206973206e6f7420746865206f776e6572206f6620746865204e604482015261119560f21b606482015260840161086f565b60405163020604bf60e21b81526004810186905230906001600160a01b0383169063081812fc90602401602060405180830381865afa158015610d6c573d6000803e3d6000fd5b505050506040513d601f19601f82011682018060405250810190610d909190613389565b6001600160a01b031614610df65760405162461bcd60e51b815260206004820152602760248201527f52657175697265204e4654206f776e657273686970207472616e7366657220616044820152661c1c1c9bdd985b60ca1b606482015260840161086f565b604051630337823160e61b81526001600160a01b0382169063cde08c4090610e2690339030908a90600401613365565b6020604051808303816000875af1158015610e45573d6000803e3d6000fd5b505050506040513d601f19601f82011682018060405250810190610e6991906133a6565b610e7257600080fd5b60408051610120810182526009805482526001600160a01b038a8116602084019081528a8216948401948552606084018a81523360808601908152600060a0870181815260c088018d815260e089018d81526101008a01848152601280546001810182559086528b517fbb8a6a4669ba250d26cd7a459eca9d215f8307e33aebe50379bc5a3617ec3444918c029182015597517fbb8a6a4669ba250d26cd7a459eca9d215f8307e33aebe50379bc5a3617ec3445890180546001600160a01b0319908116928c169290921790559b517fbb8a6a4669ba250d26cd7a459eca9d215f8307e33aebe50379bc5a3617ec3446890180548e16918b1691909117905595517fbb8a6a4669ba250d26cd7a459eca9d215f8307e33aebe50379bc5a3617ec344788015593517fbb8a6a4669ba250d26cd7a459eca9d215f8307e33aebe50379bc5a3617ec3448870180548c1691891691909117905590517fbb8a6a4669ba250d26cd7a459eca9d215f8307e33aebe50379bc5a3617ec344986018054909a1696169590951790975592517fbb8a6a4669ba250d26cd7a459eca9d215f8307e33aebe50379bc5a3617ec344a83015591517fbb8a6a4669ba250d26cd7a459eca9d215f8307e33aebe50379bc5a3617ec344b82015590517fbb8a6a4669ba250d26cd7a459eca9d215f8307e33aebe50379bc5a3617ec344c909101558054908361107c836133d9565b9091555050600954604080519182526001600160a01b038b811660208401528a811683830152606083018a9052336080840152841660a083015260c0820188905260e082018790526000610100830152517f2fe15e5d20eaeaefdae63cab840dcb1ae80e7eaf6c60000aaaba96a6dc4ce874918190036101200190a15050600954979650505050505050565b61091083838360405180602001604052806000815250611d5e565b60008060128381548110611139576111396132f2565b906000526020600020906009020190508060070154421061115d5750600092915050565b50600192915050565b601254600090831061118a5760405162461bcd60e51b815260040161086f90613294565b60006012848154811061119f5761119f6132f2565b906000526020600020906009020190506111b884611123565b6111fa5760405162461bcd60e51b815260206004820152601360248201527220bab1ba34b7b71034b9903737ba1037b832b760691b604482015260640161086f565b806006015483116112675760405162461bcd60e51b815260206004820152603160248201527f4e657720626964207072696365206d75737420626520686967686572207468616044820152701b881d1a194818dd5c9c995b9d08189a59607a1b606482015260840161086f565b60048101546001600160a01b031633036112d75760405162461bcd60e51b815260206004820152602b60248201527f43726561746f72206f66207468652061756374696f6e2063616e6e6f7420706c60448201526a1858d9481b995dc8189a5960aa1b606482015260840161086f565b60028101546040516323b872dd60e01b81526001600160a01b039091169081906323b872dd9061130f90339030908990600401613365565b6020604051808303816000875af115801561132e573d6000803e3d6000fd5b505050506040513d601f19601f8201168201806040525081019061135291906133a6565b61139e5760405162461bcd60e51b815260206004820152601760248201527f5472616e666572206f6620746f6b656e206661696c6564000000000000000000604482015260640161086f565b600882015415611429576005820154600683015460405163a9059cbb60e01b81526001600160a01b03928316600482015260248101919091529082169063a9059cbb906044016020604051808303816000875af1158015611403573d6000803e3d6000fd5b505050506040513d601f19601f8201168201806040525081019061142791906133a6565b505b6005820180546001600160a01b0319163390811790915560068301859055600883018054906000611459836133d9565b909155505060408051878152602081018790527f0819577efdbcc6f20344847ff1b0cf5099165317fa8c0cec472cf1b2c83515c6910160405180910390a150600195945050505050565b606060006114b0600c5490565b905060008060005b838110156115485733601060006114d08460016133f2565b81526020810191909152604001600020600101546001600160a01b03161480611523575033601060006115048460016133f2565b81526020810191909152604001600020600201546001600160a01b0316145b15611536576115336001846133f2565b92505b80611540816133d9565b9150506114b8565b5060008267ffffffffffffffff81111561156457611564613025565b60405190808252806020026020018201604052801561159d57816020015b61158a612da8565b8152602001906001900390816115825790505b50905060005b848110156116c35733601060006115bb8460016133f2565b81526020810191909152604001600020600101546001600160a01b0316148061160e575033601060006115ef8460016133f2565b81526020810191909152604001600020600201546001600160a01b0316145b156116b15760006116208260016133f2565b600081815260106020908152604091829020825160a0810184528154815260018201546001600160a01b039081169382019390935260028201549092169282019290925260038201546060820152600482015460ff161515608082015285519293509091859087908110611696576116966132f2565b60209081029190910101526116ac6001866133f2565b945050505b806116bb816133d9565b9150506115a3565b50949350505050565b6000818152600260205260408120546001600160a01b03168061073c5760405162461bcd60e51b8152602060048201526018602482015277115490cdcc8c4e881a5b9d985b1a59081d1bdad95b88125160421b604482015260640161086f565b60006001600160a01b0382166117965760405162461bcd60e51b815260206004820152602960248201527f4552433732313a2061646472657373207a65726f206973206e6f7420612076616044820152683634b21037bbb732b960b91b606482015260840161086f565b506001600160a01b031660009081526003602052604090205490565b60006117c2600c80546001019055565b60006117cd600c5490565b90506117d9818561270b565b6117e3818461279e565b9392505050565b601254600090821061180e5760405162461bcd60e51b815260040161086f90613294565b60128281548110611821576118216132f2565b60009182526020909120600560099092020101546001600160a01b031692915050565b600080600080600080601160009054906101000a90046001600160a01b03166001600160a01b031663feaf968c6040518163ffffffff1660e01b815260040160a060405180830381865afa1580156118a0573d6000803e3d6000fd5b505050506040513d601f19601f820116820180604052508101906118c49190613424565b50919998505050505050505050565b6118db612da8565b50600090815260106020908152604091829020825160a0810184528154815260018201546001600160a01b03908116938201939093526002820154909216928201929092526003820154606082015260049091015460ff161515608082015290565b60125460009082106119615760405162461bcd60e51b815260040161086f90613294565b60128281548110611974576119746132f2565b9060005260206000209060090201600601549050919050565b6060600180546107519061320d565b600081815260106020526040902060038101546002909101546001600160a01b0316348214611a35576040805162461bcd60e51b81526020600482015260248101919091527f506c65617365207375626d6974207468652061736b696e67207072696365206960448201527f6e206f7264657220746f20636f6d706c65746520746865207075726368617365606482015260840161086f565b600083815260106020526040902060048101805460ff1916600117905560020180546001600160a01b03191633179055611a73600d80546001019055565b611a7e30338561259a565b611a8830846107fb565b600e54600f546040516001600160a01b039092169181156108fc0291906000818181858888f19350505050158015611ac4573d6000803e3d6000fd5b506040516001600160a01b038216903480156108fc02916000818181858888f19350505050158015611afa573d6000803e3d6000fd5b50505050565b611b0b338383612940565b5050565b6012548110611b305760405162461bcd60e51b815260040161086f90613294565b611b3981611123565b15611b565760405162461bcd60e51b815260040161086f906132c3565b600060128281548110611b6b57611b6b6132f2565b600091825260209091206004600990920201908101549091506001600160a01b03163314611bab5760405162461bcd60e51b815260040161086f90613308565b6001810154600582015460038301546040516323b872dd60e01b81526001600160a01b039384169384936323b872dd93611bed93309390921691600401613365565b600060405180830381600087803b158015611c0757600080fd5b505af1158015611c1b573d6000803e3d6000fd5b505050506002820154600480840154600685015460405163a9059cbb60e01b81526001600160a01b0392831693810193909352602483015290911690819063a9059cbb906044016020604051808303816000875af1158015611c81573d6000803e3d6000fd5b505050506040513d601f19601f82011682018060405250810190611ca591906133a6565b50600383015460408051868152602081019290925233908201527f74d693d132dbe07a071ac2e6d043de8ca215aeaa3df9b1150643fd73f2027254906060015b60405180910390a150505050565b600e546001600160a01b03163314611d595760405162461bcd60e51b815260206004820152602360248201527f4f6e6c79206f776e65722063616e20757064617465206c697374696e6720707260448201526269636560e81b606482015260840161086f565b600f55565b611d68338361251c565b611d845760405162461bcd60e51b815260040161086f90613247565b611afa84848484612a0e565b60088054611d9d9061320d565b80601f0160208091040260200160405190810160405280929190818152602001828054611dc99061320d565b8015611e165780601f10611deb57610100808354040283529160200191611e16565b820191906000526020600020905b815481529060010190602001808311611df957829003601f168201915b505050505081565b6060611e298261244f565b60008281526006602052604081208054611e429061320d565b80601f0160208091040260200160405190810160405280929190818152602001828054611e6e9061320d565b8015611ebb5780601f10611e9057610100808354040283529160200191611ebb565b820191906000526020600020905b815481529060010190602001808311611e9e57829003601f168201915b505050505090506000611ed960408051602081019091526000815290565b90508051600003611eeb575092915050565b815115611f1d578082604051602001611f05929190613474565b60405160208183030381529060405292505050919050565b611f2684612a41565b949350505050565b611f36612da8565b6000611f41600c5490565b600090815260106020908152604091829020825160a0810184528154815260018201546001600160a01b03908116938201939093526002820154909216928201929092526003820154606082015260049091015460ff161515608082015292915050565b610bb8600a541061201e5760405162461bcd60e51b815260206004820152603960248201527f53616c652068617320616c726561647920656e6465642e20506c65617365205360448201527f54414b4520746f6b656e7320746f206561726e206d6f72652100000000000000606482015260840161086f565b6000811161206e5760405162461bcd60e51b815260206004820152601860248201527f6e756d6265724f664e6674732063616e6e6f7420626520300000000000000000604482015260640161086f565b600a8111156120d15760405162461bcd60e51b815260206004820152602960248201527f596f75206d6179206e6f7420627579206d6f7265207468616e203130204e465460448201526873206174206f6e636560b81b606482015260840161086f565b50565b606060006120e1600c5490565b905060008167ffffffffffffffff8111156120fe576120fe613025565b60405190808252806020026020018201604052801561213757816020015b612124612da8565b81526020019060019003908161211c5790505b5090506000805b838110156121f65760006121538260016133f2565b600081815260106020908152604091829020825160a0810184528154815260018201546001600160a01b039081169382019390935260028201549092169282019290925260038201546060820152600482015460ff1615156080820152865192935090918690869081106121c9576121c96132f2565b60209081029190910101526121df6001856133f2565b9350505080806121ee906133d9565b91505061213e565b50909392505050565b600061220a600c5490565b905090565b60125481106122305760405162461bcd60e51b815260040161086f90613294565b61223981611123565b156122565760405162461bcd60e51b815260040161086f906132c3565b60006012828154811061226b5761226b6132f2565b600091825260209091206005600990920201908101549091506001600160a01b031633146122f45760405162461bcd60e51b815260206004820152603060248201527f4e46542063616e20626520636c61696d6564206f6e6c7920627920746865206360448201526f3ab93932b73a103134b21037bbb732b960811b606482015260840161086f565b60018101546005820154604051630337823160e61b81526001600160a01b0392831692839263cde08c409261233192309216908890600401613365565b6020604051808303816000875af1158015612350573d6000803e3d6000fd5b505050506040513d601f19601f8201168201806040525081019061237491906133a6565b61237d57600080fd5b6002820154600480840154600685015460405163a9059cbb60e01b81526001600160a01b0392831693810193909352602483015290911690819063a9059cbb906044016020604051808303816000875af11580156123df573d6000803e3d6000fd5b505050506040513d601f19601f8201168201806040525081019061240391906133a6565b61240c57600080fd5b600383015460408051868152602081019290925233908201527f7d4f7628c7b4939e94b123a69aabebcd8fbc8bac313fa8c20b7b71cb1601d39690606001611ce5565b6000818152600260205260409020546001600160a01b03166120d15760405162461bcd60e51b8152602060048201526018602482015277115490cdcc8c4e881a5b9d985b1a59081d1bdad95b88125160421b604482015260640161086f565b600081815260046020526040902080546001600160a01b0319166001600160a01b03841690811790915581906124e3826116cc565b6001600160a01b03167f8c5be1e5ebec7d5bd14f71427d1e84f3dd0314c0f7b2291e5b200ac8c7c3b92560405160405180910390a45050565b600080612528836116cc565b9050806001600160a01b0316846001600160a01b0316148061256f57506001600160a01b0380821660009081526005602090815260408083209388168352929052205460ff165b80611f265750836001600160a01b0316612588846107d4565b6001600160a01b031614949350505050565b826001600160a01b03166125ad826116cc565b6001600160a01b0316146125d35760405162461bcd60e51b815260040161086f906134a3565b6001600160a01b0382166126355760405162461bcd60e51b8152602060048201526024808201527f4552433732313a207472616e7366657220746f20746865207a65726f206164646044820152637265737360e01b606482015260840161086f565b6126428383836001612ab4565b826001600160a01b0316612655826116cc565b6001600160a01b03161461267b5760405162461bcd60e51b815260040161086f906134a3565b600081815260046020908152604080832080546001600160a01b03199081169091556001600160a01b0387811680865260038552838620805460001901905590871680865283862080546001019055868652600290945282852080549092168417909155905184937fddf252ad1be2c89b69c2b068fc378daa952ba7f163c4a11628f55a4df523b3ef91a4505050565b6000828152600260205260409020546001600160a01b03166127865760405162461bcd60e51b815260206004820152602e60248201527f45524337323155524953746f726167653a2055524920736574206f66206e6f6e60448201526d32bc34b9ba32b73a103a37b5b2b760911b606482015260840161086f565b60008281526006602052604090206109108282613536565b600f5434146127fb5760405162461bcd60e51b815260206004820152602360248201527f486f706566756c6c792073656e64696e672074686520636f727265637420707260448201526269636560e81b606482015260840161086f565b600081116128565760405162461bcd60e51b815260206004820152602260248201527f4d616b652073757265207468652070726963652069736e2774206e6567617469604482015261766560f01b606482015260840161086f565b6040805160a081018252838152306020808301828152338486018181526060860188815260016080880181815260008c815260109097529890952096518755925193860180546001600160a01b039586166001600160a01b03199182161790915590516002870180549190951691161790925551600384015592516004909201805492151560ff19909316929092179091556128f391908461259a565b604080513081523360208201529081018290526001606082015282907f9339409317fd01fabff48b703019016f49159bacc801ae872d2ca637d226e4c09060800160405180910390a25050565b816001600160a01b0316836001600160a01b0316036129a15760405162461bcd60e51b815260206004820152601960248201527f4552433732313a20617070726f766520746f2063616c6c657200000000000000604482015260640161086f565b6001600160a01b03838116600081815260056020908152604080832094871680845294825291829020805460ff191686151590811790915591519182527f17307eab39ab6107e8899845ad3d59bd9653f200f220920489ca2b5937696c31910160405180910390a3505050565b612a1984848461259a565b612a2584848484612b3c565b611afa5760405162461bcd60e51b815260040161086f906135f6565b6060612a4c8261244f565b6000612a6360408051602081019091526000815290565b90506000815111612a8357604051806020016040528060008152506117e3565b80612a8d84612c3d565b604051602001612a9e929190613474565b6040516020818303038152906040529392505050565b6001811115611afa576001600160a01b03841615612afa576001600160a01b03841660009081526003602052604081208054839290612af4908490613648565b90915550505b6001600160a01b03831615611afa576001600160a01b03831660009081526003602052604081208054839290612b319084906133f2565b909155505050505050565b60006001600160a01b0384163b15612c3257604051630a85bd0160e11b81526001600160a01b0385169063150b7a0290612b8090339089908890889060040161365b565b6020604051808303816000875af1925050508015612bbb575060408051601f3d908101601f19168201909252612bb891810190613698565b60015b612c18573d808015612be9576040519150601f19603f3d011682016040523d82523d6000602084013e612bee565b606091505b508051600003612c105760405162461bcd60e51b815260040161086f906135f6565b805181602001fd5b6001600160e01b031916630a85bd0160e11b149050611f26565b506001949350505050565b60606000612c4a83612cd0565b600101905060008167ffffffffffffffff811115612c6a57612c6a613025565b6040519080825280601f01601f191660200182016040528015612c94576020820181803683370190505b5090508181016020015b600019016f181899199a1a9b1b9c1cb0b131b232b360811b600a86061a8153600a8504945084612c9e57509392505050565b60008072184f03e93ff9f4daa797ed6e38ed64bf6a1f0160401b8310612d0f5772184f03e93ff9f4daa797ed6e38ed64bf6a1f0160401b830492506040015b6d04ee2d6d415b85acef81000000008310612d3b576d04ee2d6d415b85acef8100000000830492506020015b662386f26fc100008310612d5957662386f26fc10000830492506010015b6305f5e1008310612d71576305f5e100830492506008015b6127108310612d8557612710830492506004015b60648310612d97576064830492506002015b600a831061073c5760010192915050565b6040805160a08101825260008082526020820181905291810182905260608101829052608081019190915290565b6001600160e01b0319811681146120d157600080fd5b600060208284031215612dfe57600080fd5b81356117e381612dd6565b60005b83811015612e24578181015183820152602001612e0c565b50506000910152565b60008151808452612e45816020860160208601612e09565b601f01601f19169290920160200192915050565b6020815260006117e36020830184612e2d565b600060208284031215612e7e57600080fd5b5035919050565b6001600160a01b03811681146120d157600080fd5b60008060408385031215612ead57600080fd5b8235612eb881612e85565b946020939093013593505050565b600080600060608486031215612edb57600080fd5b8335612ee681612e85565b92506020840135612ef681612e85565b929592945050506040919091013590565b600080600080600060a08688031215612f1f57600080fd5b8535612f2a81612e85565b94506020860135612f3a81612e85565b94979496505050506040830135926060810135926080909101359150565b60008060408385031215612f6b57600080fd5b50508035926020909101359150565b805182526020808201516001600160a01b039081169184019190915260408083015190911690830152606080820151908301526080908101511515910152565b6020808252825182820181905260009190848201906040850190845b81811015612ffc57612fe9838551612f7a565b9284019260a09290920191600101612fd6565b50909695505050505050565b60006020828403121561301a57600080fd5b81356117e381612e85565b634e487b7160e01b600052604160045260246000fd5b600067ffffffffffffffff8084111561305657613056613025565b604051601f8501601f19908116603f0116810190828211818310171561307e5761307e613025565b8160405280935085815286868601111561309757600080fd5b858560208301376000602087830101525050509392505050565b600080604083850312156130c457600080fd5b823567ffffffffffffffff8111156130db57600080fd5b8301601f810185136130ec57600080fd5b6130fb8582356020840161303b565b95602094909401359450505050565b60a0810161073c8284612f7a565b80151581146120d157600080fd5b6000806040838503121561313957600080fd5b823561314481612e85565b9150602083013561315481613118565b809150509250929050565b6000806000806080858703121561317557600080fd5b843561318081612e85565b9350602085013561319081612e85565b925060408501359150606085013567ffffffffffffffff8111156131b357600080fd5b8501601f810187136131c457600080fd5b6131d38782356020840161303b565b91505092959194509250565b600080604083850312156131f257600080fd5b82356131fd81612e85565b9150602083013561315481612e85565b600181811c9082168061322157607f821691505b60208210810361324157634e487b7160e01b600052602260045260246000fd5b50919050565b6020808252602d908201527f4552433732313a2063616c6c6572206973206e6f7420746f6b656e206f776e6560408201526c1c881bdc88185c1c1c9bdd9959609a1b606082015260800190565b602080825260159082015274092dcecc2d8d2c840c2eac6e8d2dedc40d2dcc8caf605b1b604082015260600190565b60208082526015908201527420bab1ba34b7b71034b99039ba34b6361037b832b760591b604082015260600190565b634e487b7160e01b600052603260045260246000fd5b60208082526038908201527f546f6b656e732063616e20626520636c61696d6564206f6e6c7920627920746860408201527f652063726561746f72206f66207468652061756374696f6e0000000000000000606082015260800190565b6001600160a01b039384168152919092166020820152604081019190915260600190565b60006020828403121561339b57600080fd5b81516117e381612e85565b6000602082840312156133b857600080fd5b81516117e381613118565b634e487b7160e01b600052601160045260246000fd5b6000600182016133eb576133eb6133c3565b5060010190565b8082018082111561073c5761073c6133c3565b805169ffffffffffffffffffff8116811461341f57600080fd5b919050565b600080600080600060a0868803121561343c57600080fd5b61344586613405565b945060208601519350604086015192506060860151915061346860808701613405565b90509295509295909350565b60008351613486818460208801612e09565b83519083019061349a818360208801612e09565b01949350505050565b60208082526025908201527f4552433732313a207472616e736665722066726f6d20696e636f72726563742060408201526437bbb732b960d91b606082015260800190565b601f82111561091057600081815260208120601f850160051c8101602086101561350f5750805b601f850160051c820191505b8181101561352e5782815560010161351b565b505050505050565b815167ffffffffffffffff81111561355057613550613025565b6135648161355e845461320d565b846134e8565b602080601f83116001811461359957600084156135815750858301515b600019600386901b1c1916600185901b17855561352e565b600085815260208120601f198616915b828110156135c8578886015182559484019460019091019084016135a9565b50858210156135e65787850151600019600388901b60f8161c191681555b5050505050600190811b01905550565b60208082526032908201527f4552433732313a207472616e7366657220746f206e6f6e20455243373231526560408201527131b2b4bb32b91034b6b83632b6b2b73a32b960711b606082015260800190565b8181038181111561073c5761073c6133c3565b6001600160a01b038581168252841660208201526040810183905260806060820181905260009061368e90830184612e2d565b9695505050505050565b6000602082840312156136aa57600080fd5b81516117e381612dd656fea2646970667358221220f969be9a11835f077c3373a2aabb2f264c632c9d05816be6b077faa95d74dc2264736f6c63430008110033",
    "linkReferences": {}
  },
  "methodIdentifiers": {
    "EXCHANGE_PER_NFT()": "dca75bd4",
    "MAX_NFT_BUYABLE()": "9093ec5a",
    "MAX_NFT_SUPPLY()": "b5077f44",
    "MoMo()": "bc2bb6c9",
    "NAME_CHANGE_PRICE()": "54b6f161",
    "REWARD_PER_NFT()": "e959c36a",
    "approve(address,uint256)": "095ea7b3",
    "balanceOf(address)": "70a08231",
    "bid(uint256,uint256)": "598647f8",
    "buy(uint256)": "d96a094a",
    "claimNFT(uint256)": "fe5c873a",
    "claimToken(uint256)": "a9e7c2e5",
    "createAuction(address,address,uint256,uint256,uint256)": "310bf583",
    "createToken(string,uint256)": "72b3b620",
    "executeSale(uint256)": "9b1225c4",
    "getAllNFTs()": "e0391b09",
    "getApproved(uint256)": "081812fc",
    "getCurrentBidOwner(uint256)": "86b46073",
    "getCurrentToken()": "ef2d1746",
    "getHighestBid(uint256)": "8f288644",
    "getLatestIdToListedToken()": "d1a88ae5",
    "getLatestPrice()": "8e15f473",
    "getListedTokenForId(uint256)": "8e264590",
    "getListingPrice()": "12e85585",
    "getMyNFTs()": "629cb2e4",
    "index()": "2986c0e5",
    "isApprovedForAll(address,address)": "e985e9c5",
    "isOpen(uint256)": "4d6861a6",
    "name()": "06fdde03",
    "numberOfNftsSold()": "4ad8a0a0",
    "ownerOf(uint256)": "6352211e",
    "refund(uint256)": "278ecde1",
    "safeTransferFrom(address,address,uint256)": "42842e0e",
    "safeTransferFrom(address,address,uint256,bytes)": "b88d4fde",
    "setApprovalForAll(address,bool)": "a22cb465",
    "supportsInterface(bytes4)": "01ffc9a7",
    "symbol()": "95d89b41",
    "tokenURI(uint256)": "c87b56dd",
    "transferFrom(address,address,uint256)": "23b872dd",
    "updateListingPrice(uint256)": "ae677aa3"
  },
  "id": 56
}