{
  "abi": [
    {
      "inputs": [
        {
          "internalType": "uint256",
          "name": "_auctionFee",
          "type": "uint256"
        },
        {
          "internalType": "uint256",
          "name": "_auctionDuration",
          "type": "uint256"
        },
        {
          "internalType": "address",
          "name": "_auctioneer",
          "type": "address"
        }
      ],
      "stateMutability": "nonpayable",
      "type": "constructor"
    },
    {
      "inputs": [],
      "name": "InvalidAuctionFee",
      "type": "error"
    },
    {
      "inputs": [],
      "name": "MinimumStakeNotSatisfied",
      "type": "error"
    },
    {
      "inputs": [],
      "name": "NotOpen",
      "type": "error"
    },
    {
      "inputs": [],
      "name": "OpenBidding",
      "type": "error"
    },
    {
      "inputs": [],
      "name": "PlaceAHigherBid",
      "type": "error"
    },
    {
      "inputs": [],
      "name": "ZeroInput",
      "type": "error"
    },
    {
      "inputs": [],
      "name": "auctionCounter",
      "outputs": [
        {
          "internalType": "uint256",
          "name": "",
          "type": "uint256"
        }
      ],
      "stateMutability": "view",
      "type": "function"
    },
    {
      "inputs": [],
      "name": "auctionDuration",
      "outputs": [
        {
          "internalType": "uint256",
          "name": "",
          "type": "uint256"
        }
      ],
      "stateMutability": "view",
      "type": "function"
    },
    {
      "inputs": [],
      "name": "auctionFee",
      "outputs": [
        {
          "internalType": "uint256",
          "name": "",
          "type": "uint256"
        }
      ],
      "stateMutability": "view",
      "type": "function"
    },
    {
      "inputs": [],
      "name": "auctioneer",
      "outputs": [
        {
          "internalType": "address",
          "name": "",
          "type": "address"
        }
      ],
      "stateMutability": "view",
      "type": "function"
    },
    {
      "inputs": [
        {
          "internalType": "uint256",
          "name": "",
          "type": "uint256"
        }
      ],
      "name": "auctions",
      "outputs": [
        {
          "internalType": "address",
          "name": "nftAddress",
          "type": "address"
        },
        {
          "internalType": "uint256",
          "name": "tokenId",
          "type": "uint256"
        },
        {
          "internalType": "uint256",
          "name": "minimumStake",
          "type": "uint256"
        },
        {
          "internalType": "uint256",
          "name": "startTime",
          "type": "uint256"
        },
        {
          "internalType": "uint256",
          "name": "endTime",
          "type": "uint256"
        },
        {
          "internalType": "address",
          "name": "listor",
          "type": "address"
        },
        {
          "internalType": "uint256",
          "name": "lastBid",
          "type": "uint256"
        },
        {
          "internalType": "address",
          "name": "lastBidder",
          "type": "address"
        }
      ],
      "stateMutability": "view",
      "type": "function"
    },
    {
      "inputs": [
        {
          "internalType": "uint256",
          "name": "uniqueId",
          "type": "uint256"
        }
      ],
      "name": "bid",
      "outputs": [],
      "stateMutability": "payable",
      "type": "function"
    },
    {
      "inputs": [
        {
          "internalType": "uint256",
          "name": "uniqueId",
          "type": "uint256"
        }
      ],
      "name": "claimMyFunds",
      "outputs": [],
      "stateMutability": "nonpayable",
      "type": "function"
    },
    {
      "inputs": [
        {
          "internalType": "address",
          "name": "_nftAddress",
          "type": "address"
        },
        {
          "internalType": "uint256",
          "name": "_tokenId",
          "type": "uint256"
        },
        {
          "internalType": "uint256",
          "name": "_minimumStake",
          "type": "uint256"
        }
      ],
      "name": "createAuction",
      "outputs": [],
      "stateMutability": "payable",
      "type": "function"
    },
    {
      "inputs": [
        {
          "internalType": "uint256",
          "name": "uniqueId",
          "type": "uint256"
        }
      ],
      "name": "getLastBid",
      "outputs": [
        {
          "internalType": "uint256",
          "name": "",
          "type": "uint256"
        }
      ],
      "stateMutability": "view",
      "type": "function"
    },
    {
      "inputs": [
        {
          "internalType": "uint256",
          "name": "uniqueId",
          "type": "uint256"
        }
      ],
      "name": "isOpen",
      "outputs": [
        {
          "internalType": "bool",
          "name": "",
          "type": "bool"
        }
      ],
      "stateMutability": "view",
      "type": "function"
    },
    {
      "inputs": [],
      "name": "numberOfActiveAuctions",
      "outputs": [
        {
          "internalType": "uint256",
          "name": "",
          "type": "uint256"
        }
      ],
      "stateMutability": "view",
      "type": "function"
    }
  ],
  "bytecode": {
    "object": "0x60806040526000600355600060045534801561001a57600080fd5b50604051610ad8380380610ad8833981016040819052610039916100b9565b82158015610045575081155b156100635760405163af458c0760e01b815260040160405180910390fd5b67016345785d8a000083101561008c57604051637235db3560e11b815260040160405180910390fd5b600092909255600255600180546001600160a01b0319166001600160a01b039092169190911790556100ff565b6000806000606084860312156100ce57600080fd5b83516020850151604086015191945092506001600160a01b03811681146100f457600080fd5b809150509250925092565b6109ca8061010e6000396000f3fe60806040526004361061009c5760003560e01c8063571a26a011610064578063571a26a0146101675780635ec2c7bf1461021f5780637dafaa0814610257578063a7e766441461026d578063abb9405114610283578063df88ea1a1461029657600080fd5b80630cbf54c8146100a157806314525b6b146100ca57806330b6208a146100e0578063454a2ab3146101105780634d6861a614610125575b600080fd5b3480156100ad57600080fd5b506100b760025481565b6040519081526020015b60405180910390f35b3480156100d657600080fd5b506100b760005481565b3480156100ec57600080fd5b506100b76100fb3660046108c8565b60009081526005602052604090206006015490565b61012361011e3660046108c8565b6102b6565b005b34801561013157600080fd5b506101576101403660046108c8565b600090815260056020526040902060040154421090565b60405190151581526020016100c1565b34801561017357600080fd5b506101d36101823660046108c8565b6005602081905260009182526040909120805460018201546002830154600384015460048501549585015460068601546007909601546001600160a01b039586169794969395929493918316921688565b604080516001600160a01b03998a168152602081019890985287019590955260608601939093526080850191909152841660a084015260c083015290911660e0820152610100016100c1565b34801561022b57600080fd5b5060015461023f906001600160a01b031681565b6040516001600160a01b0390911681526020016100c1565b34801561026357600080fd5b506100b760035481565b34801561027957600080fd5b506100b760045481565b6101236102913660046108e1565b610472565b3480156102a257600080fd5b506101236102b13660046108c8565b610631565b60008181526005602052604090206004015442106102e757604051631bb5f5b360e31b815260040160405180910390fd5b60008181526005602081815260409283902083516101008101855281546001600160a01b0390811682526001830154938201939093526002820154948101859052600382015460608201526004820154608082015292810154821660a0840152600681015460c0840152600701541660e08201529034101561037c57604051636093add160e01b815260040160405180910390fd5b8060c0015134116103a057604051635e5de9ab60e01b815260040160405180910390fd5b60e08101805160c0830180513384523482526000868152600560208181526040808420895181546001600160a01b03199081166001600160a01b03928316178355938b01516001830155828b0151600283015560608b0151600383015560808b0151600483015560a08b015194820180548516958216959095179094559551600687015596516007909501805490911694821694909417909355935192939092918416916108fc84150291849190818181858888f1935050505015801561046b573d6000803e3d6000fd5b5050505050565b60005434101561049557604051637235db3560e11b815260040160405180910390fd5b6040516323b872dd60e01b8152336004820152306024820152604481018390526001600160a01b038416906323b872dd90606401600060405180830381600087803b1580156104e357600080fd5b505af11580156104f7573d6000803e3d6000fd5b50506004805492509050600061050c83610938565b90915550506003805490600061052183610938565b9190505550604051806101000160405280846001600160a01b03168152602001838152602001828152602001428152602001600254426105619190610951565b8152602001336001600160a01b031681526020016000815260200160006001600160a01b031681525060056000600160045461059d919061096a565b81526020808201929092526040908101600020835181546001600160a01b03199081166001600160a01b03928316178355938501516001830155918401516002820155606084015160038201556080840151600482015560a0840151600582018054851691841691909117905560c0840151600682015560e090930151600790930180549092169216919091179055505050565b6001546001600160a01b031633146106a45760405162461bcd60e51b815260206004820152602b60248201527f4f6e6c79207468652061756374696f6e6565722063616e20706572666f726d2060448201526a3a3434b99030b1ba34b7b760a91b60648201526084015b60405180910390fd5b6000818152600560205260409020600401544210156106d657604051630a29e34360e41b815260040160405180910390fd5b60008181526005602081815260409283902083516101008101855281546001600160a01b039081168083526001840154948301859052600284015496830196909652600383015460608301526004830154608083015293820154841660a0820152600682015460c0820181905260079092015490931660e084018190529293909190836107af5760405162461bcd60e51b815260206004820152602160248201527f4e6f20626964732077657265206d616465206f6e20746869732061756374696f6044820152603760f91b606482015260840161069b565b8460a001516001600160a01b03166108fc849081150290604051600060405180830381858888f193505050501580156107ec573d6000803e3d6000fd5b506040516323b872dd60e01b81523060048201526001600160a01b038581166024830152604482018490528216906323b872dd90606401600060405180830381600087803b15801561083d57600080fd5b505af1158015610851573d6000803e3d6000fd5b5050506000878152600560208190526040822080546001600160a01b0319908116825560018201849055600282018490556003808301859055600483018590559282018054821690556006820184905560079091018054909116905580549250906108bb8361097d565b9190505550505050505050565b6000602082840312156108da57600080fd5b5035919050565b6000806000606084860312156108f657600080fd5b83356001600160a01b038116811461090d57600080fd5b95602085013595506040909401359392505050565b634e487b7160e01b600052601160045260246000fd5b60006001820161094a5761094a610922565b5060010190565b8082018082111561096457610964610922565b92915050565b8181038181111561096457610964610922565b60008161098c5761098c610922565b50600019019056fea2646970667358221220b47e97a6cb65b1713648f2717353845bbb7e4073f905011dc6cb1dfe1b45222564736f6c63430008110033",
    "linkReferences": {}
  },
  "methodIdentifiers": {
    "auctionCounter()": "a7e76644",
    "auctionDuration()": "0cbf54c8",
    "auctionFee()": "14525b6b",
    "auctioneer()": "5ec2c7bf",
    "auctions(uint256)": "571a26a0",
    "bid(uint256)": "454a2ab3",
    "claimMyFunds(uint256)": "df88ea1a",
    "createAuction(address,uint256,uint256)": "abb94051",
    "getLastBid(uint256)": "30b6208a",
    "isOpen(uint256)": "4d6861a6",
    "numberOfActiveAuctions()": "7dafaa08"
  },
  "id": 31
}