{
  "abi": [
    {
      "inputs": [
        {
          "internalType": "uint256",
          "name": "_auctionFee",
          "type": "uint256"
        },
        {
          "internalType": "uint256",
          "name": "_auctionDuration",
          "type": "uint256"
        }
      ],
      "stateMutability": "nonpayable",
      "type": "constructor"
    },
    {
      "inputs": [],
      "name": "auctionCounter",
      "outputs": [
        {
          "internalType": "uint256",
          "name": "",
          "type": "uint256"
        }
      ],
      "stateMutability": "view",
      "type": "function"
    },
    {
      "inputs": [],
      "name": "auctionDuration",
      "outputs": [
        {
          "internalType": "uint256",
          "name": "",
          "type": "uint256"
        }
      ],
      "stateMutability": "view",
      "type": "function"
    },
    {
      "inputs": [],
      "name": "auctionFee",
      "outputs": [
        {
          "internalType": "uint256",
          "name": "",
          "type": "uint256"
        }
      ],
      "stateMutability": "view",
      "type": "function"
    },
    {
      "inputs": [
        {
          "internalType": "uint256",
          "name": "",
          "type": "uint256"
        }
      ],
      "name": "auctions",
      "outputs": [
        {
          "internalType": "address",
          "name": "nftAddress",
          "type": "address"
        },
        {
          "internalType": "uint256",
          "name": "tokenId",
          "type": "uint256"
        },
        {
          "internalType": "uint256",
          "name": "minimumStake",
          "type": "uint256"
        },
        {
          "internalType": "uint256",
          "name": "startTime",
          "type": "uint256"
        },
        {
          "internalType": "uint256",
          "name": "endTime",
          "type": "uint256"
        },
        {
          "internalType": "address",
          "name": "listor",
          "type": "address"
        },
        {
          "internalType": "uint256",
          "name": "lastBid",
          "type": "uint256"
        },
        {
          "internalType": "address",
          "name": "lastBidder",
          "type": "address"
        }
      ],
      "stateMutability": "view",
      "type": "function"
    },
    {
      "inputs": [
        {
          "internalType": "uint256",
          "name": "uniqueId",
          "type": "uint256"
        }
      ],
      "name": "bid",
      "outputs": [],
      "stateMutability": "payable",
      "type": "function"
    },
    {
      "inputs": [
        {
          "internalType": "uint256",
          "name": "uniqueId",
          "type": "uint256"
        }
      ],
      "name": "claimMyFunds",
      "outputs": [],
      "stateMutability": "nonpayable",
      "type": "function"
    },
    {
      "inputs": [
        {
          "internalType": "address",
          "name": "nftAddress",
          "type": "address"
        },
        {
          "internalType": "uint256",
          "name": "tokenId",
          "type": "uint256"
        },
        {
          "internalType": "uint256",
          "name": "minimumStake",
          "type": "uint256"
        }
      ],
      "name": "createAuction",
      "outputs": [],
      "stateMutability": "payable",
      "type": "function"
    },
    {
      "inputs": [
        {
          "internalType": "uint256",
          "name": "uniqueId",
          "type": "uint256"
        }
      ],
      "name": "getLastBid",
      "outputs": [
        {
          "internalType": "uint256",
          "name": "",
          "type": "uint256"
        }
      ],
      "stateMutability": "view",
      "type": "function"
    },
    {
      "inputs": [
        {
          "internalType": "uint256",
          "name": "uniqueId",
          "type": "uint256"
        }
      ],
      "name": "isOpen",
      "outputs": [
        {
          "internalType": "bool",
          "name": "",
          "type": "bool"
        }
      ],
      "stateMutability": "view",
      "type": "function"
    },
    {
      "inputs": [],
      "name": "numberOfActiveAuctions",
      "outputs": [
        {
          "internalType": "uint256",
          "name": "",
          "type": "uint256"
        }
      ],
      "stateMutability": "view",
      "type": "function"
    }
  ],
  "bytecode": {
    "object": "0x60806040526000600255600060035534801561001a57600080fd5b5060405161095d38038061095d83398101604081905261003991610091565b81158015610045575080155b156100835760405162461bcd60e51b815260206004820152600a60248201526916995c9bc8125b9c1d5d60b21b604482015260640160405180910390fd5b6000919091556001556100b5565b600080604083850312156100a457600080fd5b505080516020909101519092909150565b610899806100c46000396000f3fe6080604052600436106100915760003560e01c8063571a26a011610059578063571a26a01461015d5780637dafaa0814610214578063a7e766441461022a578063abb9405114610240578063df88ea1a1461025357600080fd5b80630cbf54c81461009657806314525b6b146100bf57806330b6208a146100d5578063454a2ab3146101055780634d6861a61461011a575b600080fd5b3480156100a257600080fd5b506100ac60015481565b6040519081526020015b60405180910390f35b3480156100cb57600080fd5b506100ac60005481565b3480156100e157600080fd5b506100ac6100f03660046107aa565b60009081526004602052604090206006015490565b6101186101133660046107aa565b610273565b005b34801561012657600080fd5b5061014d6101353660046107aa565b60009081526004602081905260409091200154421090565b60405190151581526020016100b6565b34801561016957600080fd5b506101c86101783660046107aa565b6004602081905260009182526040909120805460018201546002830154600384015494840154600585015460068601546007909601546001600160a01b0395861697949693959293918316921688565b604080516001600160a01b03998a168152602081019890985287019590955260608601939093526080850191909152841660a084015260c083015290911660e0820152610100016100b6565b34801561022057600080fd5b506100ac60025481565b34801561023657600080fd5b506100ac60035481565b61011861024e3660046107c3565b610406565b34801561025f57600080fd5b5061011861026e3660046107aa565b6105d1565b6000818152600460208190526040909120015442106102cd5760405162461bcd60e51b8152602060048201526011602482015270105d58dd1a5bdb881a5cc818db1bdcd959607a1b60448201526064015b60405180910390fd5b60008181526004602052604090206002015434101561032e5760405162461bcd60e51b815260206004820152601f60248201527f426964206d757374206d65657420746865206d696e696d756d207374616b650060448201526064016102c4565b600081815260046020526040902060060154341161039a5760405162461bcd60e51b8152602060048201526024808201527f426964206d75737420626520686967686572207468616e20746865206c61737460448201526308189a5960e21b60648201526084016102c4565b600081815260046020526040808220600781018054600690920180546001600160a01b03198416331790925534905591516001600160a01b0390911692839183156108fc0291849190818181858888f19350505050158015610400573d6000803e3d6000fd5b50505050565b6000543410156104585760405162461bcd60e51b815260206004820152601860248201527f4552523a2041554354494f4e20464545204e4f54204d4554000000000000000060448201526064016102c4565b6040516323b872dd60e01b8152336004820152306024820152604481018390526001600160a01b038416906323b872dd90606401600060405180830381600087803b1580156104a657600080fd5b505af11580156104ba573d6000803e3d6000fd5b5050600380549250905060006104cf8361081a565b9091555050600280549060006104e48361081a565b9190505550604051806101000160405280846001600160a01b03168152602001838152602001828152602001428152602001600154426105249190610833565b815233602080830191909152600060408084018290526060938401829052600380548352600480855292829020865181546001600160a01b039182166001600160a01b0319918216178355958801516001830155928701516002820155948601519085015560808501519184019190915560a084015160058401805491831691841691909117905560c0840151600684015560e09093015160079092018054929093169116179055505050565b3330146106345760405162461bcd60e51b815260206004820152602b60248201527f4f6e6c79207468652061756374696f6e6565722063616e20706572666f726d2060448201526a3a3434b99030b1ba34b7b760a91b60648201526084016102c4565b6000818152600460208190526040909120015442101561068e5760405162461bcd60e51b815260206004820152601560248201527420bab1ba34b7b71034b99039ba34b6361037b832b760591b60448201526064016102c4565b600081815260046020526040902060078101546006909101546001600160a01b03909116908161070a5760405162461bcd60e51b815260206004820152602160248201527f4e6f20626964732077657265206d616465206f6e20746869732061756374696f6044820152603760f91b60648201526084016102c4565b6040513090819083156108fc029084906000818181858888f19350505050158015610739573d6000803e3d6000fd5b506000848152600460208190526040822080546001600160a01b0319908116825560018201849055600280830185905560038301859055928201849055600582018054821690556006820184905560079091018054909116905580549161079f8361084c565b919050555050505050565b6000602082840312156107bc57600080fd5b5035919050565b6000806000606084860312156107d857600080fd5b83356001600160a01b03811681146107ef57600080fd5b95602085013595506040909401359392505050565b634e487b7160e01b600052601160045260246000fd5b60006001820161082c5761082c610804565b5060010190565b8082018082111561084657610846610804565b92915050565b60008161085b5761085b610804565b50600019019056fea26469706673582212203603e824785157fa74d17b4874dffe3e7141ffd52e9a8ed5f9fa7d56f79151f364736f6c63430008110033",
    "linkReferences": {}
  },
  "methodIdentifiers": {
    "auctionCounter()": "a7e76644",
    "auctionDuration()": "0cbf54c8",
    "auctionFee()": "14525b6b",
    "auctions(uint256)": "571a26a0",
    "bid(uint256)": "454a2ab3",
    "claimMyFunds(uint256)": "df88ea1a",
    "createAuction(address,uint256,uint256)": "abb94051",
    "getLastBid(uint256)": "30b6208a",
    "isOpen(uint256)": "4d6861a6",
    "numberOfActiveAuctions()": "7dafaa08"
  },
  "id": 31
}