{
  "abi": [
    {
      "inputs": [
        {
          "internalType": "uint256",
          "name": "_auctionFee",
          "type": "uint256"
        },
        {
          "internalType": "uint256",
          "name": "_auctionDuration",
          "type": "uint256"
        },
        {
          "internalType": "address",
          "name": "_auctioneer",
          "type": "address"
        }
      ],
      "stateMutability": "nonpayable",
      "type": "constructor"
    },
    {
      "inputs": [],
      "name": "InvalidAuctionFee",
      "type": "error"
    },
    {
      "inputs": [],
      "name": "MinimumStakeNotSatisfied",
      "type": "error"
    },
    {
      "inputs": [],
      "name": "NotOpen",
      "type": "error"
    },
    {
      "inputs": [],
      "name": "OpenBidding",
      "type": "error"
    },
    {
      "inputs": [],
      "name": "PlaceAHigherBid",
      "type": "error"
    },
    {
      "inputs": [],
      "name": "ZeroInput",
      "type": "error"
    },
    {
      "anonymous": false,
      "inputs": [
        {
          "indexed": false,
          "internalType": "uint256",
          "name": "uniqueId",
          "type": "uint256"
        },
        {
          "indexed": false,
          "internalType": "address",
          "name": "tokenAddress",
          "type": "address"
        },
        {
          "indexed": false,
          "internalType": "uint256",
          "name": "tokenId",
          "type": "uint256"
        },
        {
          "indexed": false,
          "internalType": "uint256",
          "name": "minimumStake",
          "type": "uint256"
        }
      ],
      "name": "auctionCreated",
      "type": "event"
    },
    {
      "anonymous": false,
      "inputs": [
        {
          "indexed": false,
          "internalType": "uint256",
          "name": "uniqueId",
          "type": "uint256"
        }
      ],
      "name": "fundClaimSuccessful",
      "type": "event"
    },
    {
      "anonymous": false,
      "inputs": [
        {
          "indexed": false,
          "internalType": "uint256",
          "name": "uniqueId",
          "type": "uint256"
        },
        {
          "indexed": false,
          "internalType": "address",
          "name": "lastBidder",
          "type": "address"
        },
        {
          "indexed": false,
          "internalType": "uint256",
          "name": "lastBid",
          "type": "uint256"
        }
      ],
      "name": "lastBid",
      "type": "event"
    },
    {
      "inputs": [],
      "name": "auctionCounter",
      "outputs": [
        {
          "internalType": "uint256",
          "name": "",
          "type": "uint256"
        }
      ],
      "stateMutability": "view",
      "type": "function"
    },
    {
      "inputs": [],
      "name": "auctionDuration",
      "outputs": [
        {
          "internalType": "uint256",
          "name": "",
          "type": "uint256"
        }
      ],
      "stateMutability": "view",
      "type": "function"
    },
    {
      "inputs": [],
      "name": "auctionFee",
      "outputs": [
        {
          "internalType": "uint256",
          "name": "",
          "type": "uint256"
        }
      ],
      "stateMutability": "view",
      "type": "function"
    },
    {
      "inputs": [],
      "name": "auctioneer",
      "outputs": [
        {
          "internalType": "address",
          "name": "",
          "type": "address"
        }
      ],
      "stateMutability": "view",
      "type": "function"
    },
    {
      "inputs": [
        {
          "internalType": "uint256",
          "name": "",
          "type": "uint256"
        }
      ],
      "name": "auctions",
      "outputs": [
        {
          "internalType": "address",
          "name": "nftAddress",
          "type": "address"
        },
        {
          "internalType": "uint256",
          "name": "tokenId",
          "type": "uint256"
        },
        {
          "internalType": "uint256",
          "name": "minimumStake",
          "type": "uint256"
        },
        {
          "internalType": "uint256",
          "name": "startTime",
          "type": "uint256"
        },
        {
          "internalType": "uint256",
          "name": "endTime",
          "type": "uint256"
        },
        {
          "internalType": "address",
          "name": "listor",
          "type": "address"
        },
        {
          "internalType": "uint256",
          "name": "lastBid",
          "type": "uint256"
        },
        {
          "internalType": "address",
          "name": "lastBidder",
          "type": "address"
        }
      ],
      "stateMutability": "view",
      "type": "function"
    },
    {
      "inputs": [
        {
          "internalType": "uint256",
          "name": "uniqueId",
          "type": "uint256"
        }
      ],
      "name": "bid",
      "outputs": [],
      "stateMutability": "payable",
      "type": "function"
    },
    {
      "inputs": [
        {
          "internalType": "uint256",
          "name": "uniqueId",
          "type": "uint256"
        }
      ],
      "name": "claimMyFunds",
      "outputs": [],
      "stateMutability": "nonpayable",
      "type": "function"
    },
    {
      "inputs": [
        {
          "internalType": "address",
          "name": "_nftAddress",
          "type": "address"
        },
        {
          "internalType": "uint256",
          "name": "_tokenId",
          "type": "uint256"
        },
        {
          "internalType": "uint256",
          "name": "_minimumStake",
          "type": "uint256"
        }
      ],
      "name": "createAuction",
      "outputs": [],
      "stateMutability": "payable",
      "type": "function"
    },
    {
      "inputs": [
        {
          "internalType": "uint256",
          "name": "uniqueId",
          "type": "uint256"
        }
      ],
      "name": "getLastBid",
      "outputs": [
        {
          "internalType": "uint256",
          "name": "",
          "type": "uint256"
        }
      ],
      "stateMutability": "view",
      "type": "function"
    },
    {
      "inputs": [
        {
          "internalType": "uint256",
          "name": "uniqueId",
          "type": "uint256"
        }
      ],
      "name": "isOpen",
      "outputs": [
        {
          "internalType": "bool",
          "name": "",
          "type": "bool"
        }
      ],
      "stateMutability": "view",
      "type": "function"
    },
    {
      "inputs": [],
      "name": "numberOfActiveAuctions",
      "outputs": [
        {
          "internalType": "uint256",
          "name": "",
          "type": "uint256"
        }
      ],
      "stateMutability": "view",
      "type": "function"
    }
  ],
  "bytecode": {
    "object": "0x60e060405260008055600060015534801561001957600080fd5b50604051610c5c380380610c5c833981016040819052610038916100a5565b82158015610044575081155b156100625760405163af458c0760e01b815260040160405180910390fd5b67016345785d8a000083101561008b57604051637235db3560e11b815260040160405180910390fd5b60809290925260c0526001600160a01b031660a0526100eb565b6000806000606084860312156100ba57600080fd5b83516020850151604086015191945092506001600160a01b03811681146100e057600080fd5b809150509250925092565b60805160a05160c051610b2f61012d6000396000818160b3015261060301526000818161026e015261075401526000818160fa01526105050152610b2f6000f3fe60806040526004361061009c5760003560e01c8063571a26a011610064578063571a26a0146101a35780635ec2c7bf1461025c5780637dafaa08146102a8578063a7e76644146102be578063abb94051146102d4578063df88ea1a146102e757600080fd5b80630cbf54c8146100a157806314525b6b146100e857806330b6208a1461011c578063454a2ab31461014c5780634d6861a614610161575b600080fd5b3480156100ad57600080fd5b506100d57f000000000000000000000000000000000000000000000000000000000000000081565b6040519081526020015b60405180910390f35b3480156100f457600080fd5b506100d57f000000000000000000000000000000000000000000000000000000000000000081565b34801561012857600080fd5b506100d5610137366004610a2d565b60009081526002602052604090206006015490565b61015f61015a366004610a2d565b610307565b005b34801561016d57600080fd5b5061019361017c366004610a2d565b600090815260026020526040902060040154421090565b60405190151581526020016100df565b3480156101af57600080fd5b506102106101be366004610a2d565b6002602081905260009182526040909120805460018201549282015460038301546004840154600585015460068601546007909601546001600160a01b03958616979694959394929391821692911688565b604080516001600160a01b03998a168152602081019890985287019590955260608601939093526080850191909152841660a084015260c083015290911660e0820152610100016100df565b34801561026857600080fd5b506102907f000000000000000000000000000000000000000000000000000000000000000081565b6040516001600160a01b0390911681526020016100df565b3480156102b457600080fd5b506100d560005481565b3480156102ca57600080fd5b506100d560015481565b61015f6102e2366004610a46565b610503565b3480156102f357600080fd5b5061015f610302366004610a2d565b610749565b600081815260026020526040902060040154421061033857604051631bb5f5b360e31b815260040160405180910390fd5b60008181526002602081815260409283902083516101008101855281546001600160a01b0390811682526001830154938201939093529281015493830184905260038101546060840152600481015460808401526005810154821660a0840152600681015460c0840152600701541660e0820152903410156103cd57604051636093add160e01b815260040160405180910390fd5b8060c0015134116103f157604051635e5de9ab60e01b815260040160405180910390fd5b60e08101805160c0830180513384523482526000868152600260208181526040808420895181546001600160a01b03199081166001600160a01b03928316178355938b01516001830155828b01519482019490945560608a0151600382015560808a0151600482015560a08a015160058201805485169186169190911790559551600687015596516007909501805490911694821694909417909355935192939092918416916108fc84150291849190818181858888f193505050501580156104be573d6000803e3d6000fd5b5060408051858152336020820152348183015290517f7287d291a2b55e77403eabf4100e5fbb50ff9a0a8bf7abacd3eafb40ecc7ded39181900360600190a150505050565b7f000000000000000000000000000000000000000000000000000000000000000034101561054457604051637235db3560e11b815260040160405180910390fd5b6040516323b872dd60e01b8152336004820152306024820152604481018390526001600160a01b038416906323b872dd90606401600060405180830381600087803b15801561059257600080fd5b505af11580156105a6573d6000803e3d6000fd5b5050600180549250905060006105bb83610a9d565b90915550506000805490806105cf83610a9d565b9190505550604051806101000160405280846001600160a01b031681526020018381526020018281526020014281526020017f00000000000000000000000000000000000000000000000000000000000000004261062d9190610ab6565b81523360208201526000604082018190526060909101819052600180546002929161065791610acf565b81526020808201929092526040908101600020835181546001600160a01b03199081166001600160a01b0392831617835593850151600180840191909155928501516002830155606085015160038301556080850151600483015560a0850151600583018054861691831691909117905560c0850151600683015560e09094015160079091018054909316931692909217905580547f93b4e27b5e643b53968e73c21541cb98e2d928db9d9f11aae963752280b6f1539161071791610acf565b604080519182526001600160a01b038616602083015281018490526060810183905260800160405180910390a1505050565b336001600160a01b037f000000000000000000000000000000000000000000000000000000000000000016146107da5760405162461bcd60e51b815260206004820152602b60248201527f4f6e6c79207468652061756374696f6e6565722063616e20706572666f726d2060448201526a3a3434b99030b1ba34b7b760a91b60648201526084015b60405180910390fd5b60008181526002602052604090206004015442101561080c57604051630a29e34360e41b815260040160405180910390fd5b60008181526002602081815260409283902083516101008101855281546001600160a01b039081168083526001840154948301859052948301549582019590955260038201546060820152600482015460808201526005820154851660a0820152600682015460c0820181905260079092015490941660e0850181905292909190836108e45760405162461bcd60e51b815260206004820152602160248201527f4e6f20626964732077657265206d616465206f6e20746869732061756374696f6044820152603760f91b60648201526084016107d1565b8460a001516001600160a01b03166108fc849081150290604051600060405180830381858888f19350505050158015610921573d6000803e3d6000fd5b506040516323b872dd60e01b81523060048201526001600160a01b038581166024830152604482018490528216906323b872dd90606401600060405180830381600087803b15801561097257600080fd5b505af1158015610986573d6000803e3d6000fd5b5050506000878152600260208190526040822080546001600160a01b0319908116825560018201849055918101839055600381018390556004810183905560058101805483169055600681018390556007018054909116905580549150806109ed83610ae2565b90915550506040518681527f176383336d59b304355f3f0a58947d019af92b9982d77fe545c8110ea040f7219060200160405180910390a1505050505050565b600060208284031215610a3f57600080fd5b5035919050565b600080600060608486031215610a5b57600080fd5b83356001600160a01b0381168114610a7257600080fd5b95602085013595506040909401359392505050565b634e487b7160e01b600052601160045260246000fd5b600060018201610aaf57610aaf610a87565b5060010190565b80820180821115610ac957610ac9610a87565b92915050565b81810381811115610ac957610ac9610a87565b600081610af157610af1610a87565b50600019019056fea2646970667358221220000ecee641507305230ca33dbeb9e7a0cdcea229c742cbc19d57e3e98608822264736f6c63430008110033",
    "linkReferences": {}
  },
  "methodIdentifiers": {
    "auctionCounter()": "a7e76644",
    "auctionDuration()": "0cbf54c8",
    "auctionFee()": "14525b6b",
    "auctioneer()": "5ec2c7bf",
    "auctions(uint256)": "571a26a0",
    "bid(uint256)": "454a2ab3",
    "claimMyFunds(uint256)": "df88ea1a",
    "createAuction(address,uint256,uint256)": "abb94051",
    "getLastBid(uint256)": "30b6208a",
    "isOpen(uint256)": "4d6861a6",
    "numberOfActiveAuctions()": "7dafaa08"
  },
  "id": 31
}